:1000710020202048656C6C6F20576F726C642020C3
:100081000049276D204D6158692020202020202023
:0200910020004D
:10003B00C2A57F147E001200538B807F147E0012AA
:08004B000053D2A77F147E00D0
:10005300D3EF9400EE940040147D6E7C00ED1D7090
:0D006300011CED4C70F7EF1F70E61E80E3EE
:01007000226D
:0C00AC00AB07C2A7C2A612003BC2A722ED
:0C00B800AB07C2A7D2A612003BC2A722D1
:100093007F381200AC7F0C1200AC7F061200AC7FDD
:0900A300011200AC7F800200ACE8
:100003001200937F801200ACE4FAEA90007193FF30
:100013001200B8E4FFFE1200530ABA10ED7FC012BB
:1000230000ACE4FAEA90008293FF1200B8E4FFFE0A
:070033001200530ABA10EDA0
:01003A0022A3
:030000000200C437
:0C00C400787FE4F6D8FD75810702000388
:00000001FF
