:1001260011082050656368696E20536369656E63C4
:0301360065200041
:10008F00EBC454F0F5807F0A7E001200A2D2A77F46
:03009F000A7E00D6
:1000A200D3EF9400EE940040147D6E7C00ED1D7041
:0D00B200011CED4C70F7EF1F70E61E80E39F
:0100BF00221E
:1000F900AB07C2A7C2A6C2A58B80120095C2A712E0
:08010900009E12008FC2A72224
:10011100AB07C2A7D2A6C2A58B80120095C2A712B7
:05012100008FC2A722BF
:1000C0007F321200F97F281200F97F0C1200F97FAD
:0E00D000061200F97F011200F97F800200F98C
:1000DE00120000E4F51974082519F8E6FF12000065
:0B00EE000519E519C3941040ED80FED9
:03000000020003F8
:0C000300787FE4F6D8FD75811902004AF0
:10000F000200DEE493A3F8E493A34003F68001F229
:10001F0008DFF48029E493A3F85407240CC8C333F2
:10002F00C4540F4420C8834004F456800146F6DFC1
:10003F00E4800B0102040810204080900126E47E2A
:10004F00019360BCA3FF543F30E509541FFEE493B6
:10005F00A360010ECF54C025E060A840B8E493A37D
:10006F00FAE493A3F8E493A3C8C582C8CAC583CAA8
:10007F00F0A3C8C582C8CAC583CADFE9DEE780BE60
:0101390000C5
:00000001FF
