:10005F0020202048656C6C6F20576F726C642020D5
:10006F000049276D204D6158692020202020202035
:02007F0020005F
:10000300C2A57F147E0012001B8B807F147E00121A
:08001300001BD2A77F147E0040
:10001B00D3EF9400EE940040147D6E7C00ED1D70C8
:0D002B00011CED4C70F7EF1F70E61E80E326
:0100380022A5
:0C009A00AB07C2A7C2A6120003C2A72237
:0C00A600AB07C2A7D2A6120003C2A7221B
:100081007F3812009A7F0C12009A7F0612009A7F25
:090091000112009A7F8002009A1E
:10003900120081E4FFFE12001B7F8012009AE4FA8D
:10004900EA90005F93FF1200A67FD07E0712001B83
:060059000ABA10EC80FE63
:030000000200B249
:0C00B200787FE4F6D8FD75810702003964
:00000001FF
