:100074004C43443136303220636865636B206F6BC8
:0A0084000073747564792075700034
:10003E00C2A57F057E00120056D2A77F057E001254
:08004E0000568B807F057E0047
:10005600D3EF9400EE940040147D6E7C00ED1D708D
:0D006600011CED4C70F7EF1F70E61E80E3EB
:01007300226A
:0A00AE00AB07C2A612003EC2A72253
:0A00B800AB07D2A612003EC2A72239
:10008E007F381200AE7F0C1200AE7F061200AE7FDC
:04009E00010200AEAD
:10000300E4FA12008E7F801200AEEA90007493FF30
:100013001200B87FC87E001200560ABA10EC7FC4E3
:100023001200AEE4FAEA90008593FF1200B87FC88D
:0B0033007E001200560ABA08EC80FEA6
:030000000200A259
:0C00A200787FE4F6D8FD758107020003AA
:00000001FF
