:1001CB001108546865206B65792076616C75652024
:0301DB0069733A0B
:10011500C2A58B807F017E0012013ED2A77F057E9E
:100125000012013EC2A7EBC454F0F5807F017E00AA
:0901350012013ED2A77F057E00F5
:10013E00D3EF9400EE9400400F7DC77C01DCFEDD12
:08014E00FAEF1F70EB1E80E8C0
:010156002286
:0C01DF00AB07C2A7C2A6120115C2A722DE
:0C01EB00AB07C2A7D2A6120115C2A722C2
:100194007F321201DF7F281201DF7F0C1201DF7F23
:0E01A400061201DF7F011201DF7F800201DF02
:10015700120194E4FABA0E057FC01201DF74082A6F
:10016700F8E6FF1201EB0ABA11EB12008F7FC412F7
:1001770001DFE519C3940A500AE5192430FF12017B
:0D018700EB80E7E5192437FF1201EB80DD66
:10008F00E4F51A75900FE590640F60797F017E009B
:10009F001201B2E590640F606C75900FAF90EF2472
:1000AF00F5601024FE601114601324077012E4F53C
:1000BF0019800D7519048008751908800375190CBE
:1000CF007590F0AF90EF2450601424E0601624F088
:1000DF0060162470701574032519F519800D051914
:1000EF000519800705198003851919C3E51A64805E
:1000FF0094B25011E59064F0600B7F017E00120105
:05010F00B2051A80E6B4
:0101140022C8
:1001B200D3EF9400EE9400400F7D267C82DCFEDDBE
:0801C200FAEF1F70EB1E80E84C
:0101CA002212
:03000000020003F8
:0C000300787FE4F6D8FD75811A02004AEF
:10000F00020157E493A3F8E493A34003F68001F2AF
:10001F0008DFF48029E493A3F85407240CC8C333F2
:10002F00C4540F4420C8834004F456800146F6DFC1
:10003F00E4800B01020408102040809001CBE47E85
:10004F00019360BCA3FF543F30E509541FFEE493B6
:10005F00A360010ECF54C025E060A840B8E493A37D
:10006F00FAE493A3F8E493A3C8C582C8CAC583CAA8
:10007F00F0A3C8C582C8CAC583CADFE9DEE780BE60
:0101DE000020
:00000001FF
