:1014E3003F065B4F666D7D077F6FFEFDFBF7EFDF0A
:0214F300BF7FB9
:090C7700E4F530F52FF52EF52D02
:080C80008F388E378D368C355C
:100C8800753908C201E4FFFEFDFCAB38AA37A93666
:100C9800A835120A785015D201AF38AE37AD36AC48
:100CA80035120AE58F388E378D368C35E4FFFEFD18
:100CB800FCAB38AA37A936A835120A784032E4FFC7
:100CC800FE7D207C41AB38AA37A936A835120A78B0
:100CD800501E7539017F807E967D187C4BAB38AAF3
:100CE80037A936A8351208D28F3F8E3E8D3D8C3CF1
:100CF800E4FFFE7D207C41AB38AA37A936A835121F
:100D08000A784032E4FFFE7DC87C42AB38AA37A996
:100D180036A835120A78501E7539027F007E247D68
:100D2800747C49AB38AA37A936A8351208D28F3F48
:100D38008E3E8D3D8C3CE4FFFE7DC87C42AB38AADC
:100D480037A936A835120A784032E4FFFE7D7A7C4E
:100D580044AB38AA37A936A835120A78501E753917
:100D6800037F007E507DC37C47AB38AA37A936A8DD
:100D7800351208D28F3F8E3E8D3D8C3CE4FFFE7DC0
:100D88007A7C44AB38AA37A936A835120A7840339A
:100D98007F007E407D1C7C46AB38AA37A936A83533
:100DA800120A78501E7539047F007E407D1C7C46EF
:100DB800AB38AA37A936A8351208D28F3F8E3E8D98
:100DC8003D8C3C7F007E407D1C7C46AB38AA37A911
:100DD80036A835120A7840327F007E507DC37C47A2
:100DE800AB38AA37A936A835120A78501D753905C7
:100DF800E4FFFE7D7A7C44AB38AA37A936A83512C1
:100E080008D28F3F8E3E8D3D8C3C7F007E507DC347
:100E18007C47AB38AA37A936A835120A7840327F02
:100E2800007E247D747C49AB38AA37A936A83512D0
:100E38000A78501D753906E4FFFE7DC87C42AB3840
:100E4800AA37A936A8351208D28F3F8E3E8D3D8C21
:100E58003C7F007E247D747C49AB38AA37A936A82C
:100E680035120A7840327F807E967D187C4BAB38ED
:100E7800AA37A936A835120A78501D753907E4FF34
:100E8800FE7D207C41AB38AA37A936A8351208D296
:100E98008F3F8E3E8D3D8C3C7F807E967D187C4BAF
:100EA800AB38AA37A936A835120A7840247F207EA5
:100EB800BC7DBE7C4CAB38AA37A936A835120A7857
:100EC800500F75390885383F85373E85363D85355D
:100ED8003C7F207EBC7DBE7C4CAB38AA37A936A8A7
:100EE80035120A784003020FE2753B07AC3BEC125F
:100EF8000B008F478E468D458C447F007E007D20F9
:100F08007C4112116AA804A905AA06AB07AF3FAE37
:100F18003EAD3DAC3C1209DB120B348F3AEF901416
:100F2800E393FFC37407953B2408F8A607AF3FAEC9
:100F38003EAD3DAC3CC004C005C006C007AC3BECB0
:100F4800120B008F478E468D458C447F007E007DB6
:100F5800207C4112116AC004C005C006C007AC3A23
:100F6800E4120B00D003D002D001D0001208D2A89E
:100F780004A905AA06AB07D007D006D005D00412ED
:100F880007DD8F3F8E3E8D3D8C3CE4FFFEFDFCABC4
:100F98003FAA3EA93DA83C120A785009E4F53FF55E
:100FA8003EF53DF53C153BC3E53B6480948040032A
:100FB800020EF4E4FFFE7D807C3FAB38AA37A936E9
:100FC800A835120A784005750E3F8000750F3F74EA
:100FD800072539F8748026F68018753B06740825AD
:100FE8003BF8E4F6153BC3E53B6480948050EE750E
:100FF8000F79E50FB43F19753B077407253BF8E6F1
:10100800FF7408253BF8A607D53BEFE4F50880E216
:10101800300119753B067408253BF8E670037640E5
:0C10280022153BC3E53B6480948050EA35
:011034002299
:1014CE00E4FEEEC39F500DE4FDEDC39F50030D806F
:0414DE00F80E80EE96
:0114E20022E7
:10128100E4FCFB53A0E843901FAF904307E0EFF469
:1012910070030213877F0F1214CEAF904307E0EF64
:1012A100F47003021384AC9043A0175390E0ABA0F9
:1012B1004303E8ECFEAD037C00E42DFFEC3EFEEFC2
:1012C1008EF0120C4A1379EFEF1360EFFB1347EF27
:1012D100FD132EEFFE1374F7EF135BF7FB1342F7C9
:1012E100FD1329F7FE136FFBEF1356FBFB133DFBB9
:1012F100FD1324FBFE136AFDEF1351FDFB1338FDB3
:10130100FD131FFDFE1365FEEF134CFEFB1333FEB1
:10131100FD131AFEFE0000137EE4F535806275357B
:1013210001805D7535028058753503805375350A26
:10133100804E7535048049753505804475350680C4
:101341003F753507803A75350B8035753508803026
:10135100753509802B75350F802675350E80217501
:10136100350C801C75351080177535118012753557
:1013710012800D753513800875350D800375351490
:08138100AF35227F14227F1416
:011389002241
:10000300C200E4F52CF52BF52AF529F530F52FF58B
:100013002EF52DF534F533F532F531FFFEFDFC12E7
:100023000C801212818F21E521B41403E4F522E43C
:10003300FCD2A7EC9014ED93F580C2A77580FFD294
:10004300A674082CF8E6F580C2A67F141214CE75A8
:1000530080FF0CBC08DBE521B4140050C590006799
:10006300F82828730200A30200A30200A30200A33E
:100073000200A30200A30200A30200A30200A30242
:1000830000A30202F90203A70204550205030205B5
:10009300B10205E902067C02068702072D02075317
:1000A300E52260030202F4F534F533F532F531E568
:1000B3002360030201D620006AFFFEFDFCAB2CAADD
:1000C3002BA92AA829120A78E4FFFE7D207C41ABE4
:1000D3002CAA2BA92AA829401E1208D2C004C005A5
:1000E300C006C007AC21E4120B00D003D002D0013C
:1000F300D0001207E180241208D2C004C005C00654
:10010300C007AC21E4120B00A804A905AA06AB079B
:10011300D007D006D005D0041207DD8F2C8E2B8D8F
:100123002A8C292000030201CB1524AC24EC120BEA
:10013300008F478E468D458C447F007E007D207C5A
:100143004112116A8F288E278D268C25E4FFFEFD30
:10015300FCAB2CAA2BA92AA829120A78402EAB2C77
:10016300AA2BA92AA829C000C001C002C003AC2140
:10017300E4120B00AB28AA27A926A8251208D2D07F
:1001830003D002D001D0001207E18034AF2CAE2B94
:10019300AD2AAC29C004C005C006C007AC21E412D7
:1001A3000B00AB28AA27A926A8251208D2A804A9C0
:1001B30005AA06AB07D007D006D005D0041207DD89
:1001C3008F2C8E2B8D2A8C29AF2CAE2BAD2AAC29EC
:1001D3000202F120006BE4FFFEFDFCAB30AA2FA965
:1001E3002EA82D120A78E4FFFE7D207C41AB30AAB5
:1001F3002FA92EA82D401E1208D2C004C005C00688
:10020300C007AC21E4120B00D003D002D001D00010
:100213001207E180241208D2C004C005C006C0073B
:10022300AC21E4120B00A804A905AA06AB07D0076A
:10023300D006D005D0041207DD8F308E2F8D2E8C83
:100243002D2000030202E91524AC24EC120B008FCD
:10025300478E468D458C447F007E007D207C411275
:10026300116A8F288E278D268C25E4FFFEFDFCABBB
:1002730030AA2FA92EA82D120A78402EAB30AA2F10
:10028300A92EA82DC000C001C002C003AC21E412F6
:100293000B00AB28AA27A926A8251208D2D003D081
:1002A30002D001D0001207E18034AF30AE2FAD2E63
:1002B300AC2DC004C005C006C007AC21E4120B007E
:1002C300AB28AA27A926A8251208D2A804A905AAFB
:1002D30006AB07D007D006D005D0041207DD8F3058
:1002E3008E2F8D2E8C2DAF30AE2FAD2EAC2D120C4C
:1002F300800522020025E52260030203A2FFFEFD22
:10030300FCAB34AA33A932A831120A7860158534BC
:100313002C85332B85322A853129E4F534F533F5E1
:1003230032F531E52314601214602414603614602E
:1003330048240470657523018060AF2CAE2BAD2A71
:10034300AC29AB30AA2FA92EA82D1207E1803DAF0F
:100353002CAE2BAD2AAC29AB30AA2FA92EA82D1277
:1003630007DD8028AF2CAE2BAD2AAC29AB30AA2FEA
:10037300A92EA82D1208D28013AF2CAE2BAD2AAC18
:1003830029AB30AA2FA92EA82D1209DB8F2C8E2B77
:100393008D2A8C29752301120C77C200E4F52405FC
:1003A30022020025E5226003020450FFFEFDFCABA0
:1003B30034AA33A932A831120A78601585342C8502
:1003C300332B85322A853129E4F534F533F532F5BB
:1003D30031E5231460121460241460361460482439
:1003E3000470657523028060AF2CAE2BAD2AAC2957
:1003F300AB30AA2FA92EA82D1207E1803DAF2CAE5A
:100403002BAD2AAC29AB30AA2FA92EA82D1207DDBC
:100413008028AF2CAE2BAD2AAC29AB30AA2FA92E46
:10042300A82D1208D28013AF2CAE2BAD2AAC29AB6A
:1004330030AA2FA92EA82D1209DB8F2C8E2B8D2AE3
:100443008C29752302120C77C200E4F524052202DD
:100453000025E52260030204FEFFFEFDFCAB34AA87
:1004630033A932A831120A78601585342C85332BD1
:1004730085322A853129E4F534F533F532F531E552
:10048300231460121460241460361460482404702A
:10049300657523038060AF2CAE2BAD2AAC29AB303E
:1004A300AA2FA92EA82D1207E1803DAF2CAE2BADAC
:1004B3002AAC29AB30AA2FA92EA82D1207DD80283C
:1004C300AF2CAE2BAD2AAC29AB30AA2FA92EA82D69
:1004D3001208D28013AF2CAE2BAD2AAC29AB30AAB5
:1004E3002FA92EA82D1209DB8F2C8E2B8D2A8C2958
:1004F300752303120C77C200E4F5240522020025BC
:10050300E52260030205ACFFFEFDFCAB34AA33A970
:1005130032A831120A78601585342C85332B853245
:100523002A853129E4F534F533F532F531E5231421
:1005330060121460241460361460482404706575D6
:1005430023048060AF2CAE2BAD2AAC29AB30AA2F8D
:10055300A92EA82D1207E1803DAF2CAE2BAD2AACFE
:1005630029AB30AA2FA92EA82D1207DD8028AF2C86
:10057300AE2BAD2AAC29AB30AA2FA92EA82D120879
:10058300D28013AF2CAE2BAD2AAC29AB30AA2FA946
:100593002EA82D1209DB8F2C8E2B8D2A8C297523E7
:1005A30004120C77C200E4F5240522020025E5229B
:1005B300702FE5237015AF2CAE2BAD2AAC29120A90
:1005C300E58F2C8E2B8D2A8C298013AF30AE2FAD67
:1005D3002EAC2D120AE58F308E2F8D2E8C2D120C02
:1005E300800522020025E5226003020677FFFEFD57
:1005F300FCAB34AA33A932A831120A7860158534CA
:100603002C85332B85322A853129E4F534F533F5EE
:1006130032F531E5237015AF2CAE2BAD2AAC291280
:10062300138E8F2C8E2B8D2A8C298040E4FFFEFDA8
:10063300FCAB30AA2FA92EA82D120A78701BAF2C61
:10064300AE2BAD2AAC2912138E8F2C8E2B8D2A8CB8
:1006530029120C80E4F5238016AF30AE2FAD2EACFB
:100663002D12138E8F308E2F8D2E8C2D120C80C257
:1006730000E4F5240522020025E5227002D20005DC
:1006830022020025E5226003020728FFFEFDFCABE2
:1006930034AA33A932A831120A78601585342C851F
:1006A300332B85322A853129E4F534F533F532F5D8
:1006B30031E523701BAB2CAA2BA92AA829FFFE7DA9
:1006C300807C3F1209DB8F2C8E2B8D2A8C29804D49
:1006D300E4FFFEFDFCAB30AA2FA92EA82D120A7849
:1006E3007021AB2CAA2BA92AA829FFFE7D807C3F71
:1006F3001209DB8F2C8E2B8D2A8C29120C80E4F5AA
:1007030023801DAB30AA2FA92EA82DE4FFFE7D80E8
:100713007C3F1209DB8F308E2F8D2E8C2D120C8097
:10072300C200E4F5240522020025E522701DF52C04
:10073300F52BF52AF529F523F530F52FF52EF52DB3
:10074300C200F524FFFEFDFC120C800522020025E9
:10075300E5226003020025E52324FE601F146031B7
:1007630014604324037068AF30AE2FAD2EAC2DABB5
:100773002CAA2BA92AA8291207E1803DAB30AA2F66
:10078300A92EA82DAF2CAE2BAD2AAC291207DD80E4
:1007930028AF30AE2FAD2EAC2DAB2CAA2BA92AA897
:1007A300291208D28013AB30AA2FA92EA82DAF2C63
:1007B300AE2BAD2AAC291209DB8F348E338D328CEC
:1007C30031E4F52CF52BF52AF529F523120C78C223
:0707D30000E4F524020025FB
:1007DA00020BA0E86480F8E933E83360110460F0A2
:1007EA00ED33EC337009E8FCE9FDEAFEEBFF220485
:1007FA0060DED3EB9FEA9EE99DE8C2E78CF0C2F780
:10080A0095F0400CE8CCF8E9CDF9EACEFAEBCFFB4B
:10081A00120B6B85D0F05804700320D5B3E804702E
:10082A00075002B2D5020BAA92D5EC0460F7E4CCC9
:10083A00C0E0C398F8603B94186008400DD0E0FB14
:10084A00020B82E4FBFAC9FC8028E830E406E4C91A
:10085A00FBE4CAFCE830E305E4C9CACBFCE8540768
:10086A006010F8C3E913F9EA13FAEB13FBEC13FC73
:10087A00D8F130F52FC3E49CFCEF9BFFEE9AFEED16
:10088A0099FDD0E0FBEF4E4D4C701222DB03020BB8
:10089A00A7EC2CFCEF33FFEE33FEED33FDED30E732
:1008AA00EB020B82EF2BFFEE3AFEED39FDD0E0FBB7
:1008BA0050130BBB0003020BAAED13FDEE13FEEF60
:0808CA0013FFEC13FC020B828A
:1008D200EC4D6011E8497017ED33EC3304600DE420
:1008E200FCFFFEFD22E933E8330470F8020BA0128C
:1008F2000B6B58046009E4CC24815006285009028D
:100902000BAA284003020BA7C0E0EB4A7044B9804F
:1009120006D0E0FB020B96EF4E701CBD8008EBFF89
:10092200EAFEE9FD80EBE98DF0A4FEE5F00209BBE9
:10093200E9CDF9EAFEEBFFEF89F0A4FCE5F0CE8900
:10094200F0A42EFFE435F0CD89F0A42DFEE435F0BD
:100952008067EF4E7005BD80D780C3EF8BF0A4ACEB
:10096200F0EE8BF0A42CFCE435F0F8EF8AF0A42C26
:10097200E5F038FCE433CB8DF0A42CFCE5F03BF839
:10098200EE8AF0A42CFCE5F038F8E433CF89F0A429
:100992002CFCE5F038CF3400CE89F0A42FFFE5F02F
:1009A2003EFEE433C98DF0A42EFEE5F039CD8AF087
:1009B200A42FFFE5F03EFEE43DFD33D0E0FB5007FF
:1009C2000BBB000F020BAAEC2CFCEF33FFEE33FE45
:0609D200ED33FD020B8273
:1009D800020BAAEC5D046005E859047003020BA041
:1009E800120B6B580460F6EC4860F2EC7004FDFEE4
:1009F800FF22C860DB2481C85009C39860025006F2
:100A0800020BA79850CAF582E9294B4A7005AB82B8
:100A1800020B9675F0007C1A7880C3EF9BEE9AED76
:100A280099400DC3EF9BFFEE9AFEED99FDE842F069
:100A3800DC23ACF0D0E0FFD0E0FED0E0FDAB8220BC
:100A4800E7101BEB60BAEC2CFCEF33FFEE33FEED46
:100A580033FD020B82E803F830E705C0F075F000BB
:100A6800EF2FFFEE33FEED33FD40B830E7C280AA2A
:100A780074F8CC6480CCC86480C8F582046043C331
:100A8800EB9FF5F0EA9E42F0E99D42F0E89C45F0C4
:100A980060305018E5825FFFE582F42B5582FB50E9
:100AA800210ABA001D09B90019088016E5825BFB06
:100AB800E582F42F5582FF50090EBE00050DBD00DA
:100AC800010CC3EB9FF5F0EA9E42F0E99D42F0E885
:0D0AD8009C45F06007CC4820E701B3EC22FC
:100AE500ED33EC33600A047003BD8004ECB2E7FC1F
:010AF50022DE
:100AF60075F020800E75F010800575F0087D007E7B
:100B0600007F003392D530D503120C1CEC33401015
:100B1600EF33FFEE33FEED33FDEC33FCD5F0ED2283
:0E0B2600E5F0247EA2D513CC92E7CDCEFF22BF
:100B3400EDD2E7CD33EC3392D524814006E4FFFEB9
:100B4400FDFC22FCE4CFCECDCC24E0501174FF8018
:100B5400EDC3CC13CCCD13CDCE13CECF13CF0470B5
:070B6400F030D5DE020C1C8D
:10138A00020BA022EDA2E7D2E7F9EC3340F260F3B8
:10139A00B4FF08ED547F70E8020BAAF82481C2E07A
:1013AA00C0E0F40428FAC313FCED92E7FD8C358DF6
:1013BA00368E378F38EEA2E7E9BA7F02C3133400BC
:1013CA009400FA75F091A4E5F013F494FE8AF0A45F
:1013DA0033E5F033248CD313FDE492E7FE7F007CDF
:1013EA003F758302ECC0E0F8EDC0E0F9EEC0E0FA28
:1013FA00EFC0E0FBAC35AD36AE37AF381209DBD003
:10140A00E0FBD0E0FAD0E0F9D0E0F81207E1ED64B1
:10141A0080FD30E7011CD583CBED33CC33F8D0E027
:0A142A00A2E71328C313CC13FD2220
:10116A008F438E428D418C40E4FFFE7D807C3FABF5
:10117A0043AA42A941A840120A787009AF43AE4275
:10118A00AD41AC4022AF43AE42AD41AC40120BB5CB
:10119A00FBAF47AE46AD45AC44120BB5FFBF0108E5
:1011AA00E4FFFE7D807C3F22EF64046022EB64044E
:1011BA00601DBB0127E4FFFEFDFCAB47AA46A9451B
:1011CA00A844120A7860084006E4FFFEFDFC227477
:1011DA00FFF547F546F545F544021278E4F548F57A
:1011EA0049FFFEFDFCAB43AA42A941A840120A7876
:1011FA00504BAF47AE46AD45AC44120B348E488FC8
:10120A0049AC48AD49EC120AFBC8ECC8C9EDC9CAD9
:10121A00EECACBEFCBAF47AE46AD45AC441207DDC5
:10122A00E4FBFAF9F8120A7870A5AF43AE42AD4171
:10123A00AC40120AE58F438E428D418C40AF43AEDB
:10124A0042AD41AC40121069AB47AA46A945A84431
:10125A001208D212146C8F478E468D458C44E5498C
:10126A0030E00B120AE58F478E468D458C44AF4716
:07127A00AE46AD45AC442275
:100B6B00E9D2E7C933E833F892D5EDD2E7CD33ECD0
:070B7B0033FC5002B2D52249
:100B8200EC30E7100FBF000C0EBE00080DBD0004D4
:100B92000BEB6014A2D5EB13FCED92E7FD2274FF80
:100BA200FCFDFEFF22E480F8A2D574FF13FC7D80D9
:030BB200E480EFED
:100BB500ED33EC33601004700FED547F7005740253
:0A0BC50092E0227404220422E422CC
:1014340033DA929E35B16011377FE5FE3921848914
:101444003AAEC3FF3C1D955B3D6358473E75FDF0C6
:101454003F3172183F800000C2D5020BAA020BA0D4
:10146400BD80FA50F3020BA7ED33EC330460F17B3B
:101474003B7AAA79B8783F1208D2ED33EC3392D58F
:10148400247B5011A2D570DB500BED448024045012
:1014940004A2D580CEEFFBEEFAEDF9ECF8120B3492
:1014A400EFF582F404FC120B001207E1C0829014E1
:1014B400347409120BDEED33CC33D0F092D525F021
:0A14C400A2D57001C313CC13FD2262
:101035003E9248DA3ECCCCCD3F2AAAAB4000000018
:101045003F8000003F9837F03FB504F33FD744FC9D
:101055003E3172173EB172173F0515913EDE5BD9E1
:10106500D2028002C202EDD2E7F8CD33EC33047030
:101075000BBD800592D5020BAA020BA040FBD31431
:1010850060F2F5F07C3FEE7A00C39496C8948B40ED
:10109500230AC89469C8941A401A0AC89468C8945F
:1010A5001F40110AC8945AC89425400805F07A00D3
:1010B500CDC2E7CDC0F08C4A8D4B8E4C8F4DEA23C7
:1010C50023C0E02445F582E43410F583120C3A126E
:1010D50007E1ECC0E0EDC0E0EEC0E0EFC0E0120CCF
:1010E5002AA84AA94BAA4CAB4D1207DDD0E0FBD08C
:1010F500E0FAD0E0F9D0E0B2E7F81209DB8C4A8DCE
:101105004B8E4C8F4D9010357403120BCFA84AA906
:101115004BAA4CAB4D1208D2D0E0600F2451F5829A
:10112500E43410F583120C3A1207E18C4A8D4B8E8C
:101135004C8F4DD0E0C3947FFDE49400FC120AFB74
:101145007B187A727931783F1208D2A84AA94BAA3E
:101155004CAB4D1207E130020B7BD97A5B79DE7817
:051165003E1208D22239
:100BCF00C0E0EFFBEEFAEDF9ECF81208D2D0E0F549
:100BDF00F0EFFBEEFAEDF9ECF8120C2AA3A3A3A3A6
:100BEF00E8C0E0E9C0E0EAC0E0EBC0E0C0F0120806
:100BFF00D2120C3AA3A3A3A31207E1D0F0D0E0FBCB
:0D0C0F00D0E0FAD0E0F9D0E0F8D5F0D42222
:030000000214F5F2
:0C14F500787FE4F6D8FD75814D020003FD
:0E0C1C00C3E49FFFE49EFEE49DFDE49CFC22E9
:100C2A00E493FC740193FD740293FE740393FF2210
:100C3A00E493F8740193F9740293FA740393FB2210
:100C4A00D083D082F8E4937012740193700DA3A339
:100C5A0093F8740193F5828883E473740293B5F070
:0D0C6A00067403936860E9A3A3A3A380D8D8
:00000001FF
