:100A98000708090004050600010203000000000021
:100AA800070809FF040506FA010203FDD1000DFB42
:0F0AD200EFD394004009E4FE0EBE6EFC1F80F1CE
:010AE10022F2
:0E0A7100C2A57F05120AD2C2A77F05120AD2C3
:100A7F007580FF7F05120AD2C2A6D2A5C2A77F0139
:090A8F00120AD2D2A72087E82246
:070AB8007FCF120ABF7F048B
:100ABF008F807F05120AD2C2A6120A71D2A77F05B4
:030ACF00020AD246
:100A4600AF13EF3395E0FE74A82FF582740A3EF5D6
:080A560083E493F5212430FF35
:100A5E008F807F05120AD2D2A6120A71D2A77F0505
:030A6E00020AD2A7
:100A04007513FFD2A77F38120ABF7F0C120ABF7F6B
:100A140006120ABF7F80120ABF7F01120ABFE4F5E3
:100A240020F521F522F517F516F515F514F51BF546
:100A34001AF519F518F51FF51EF51DF51CF509F540
:020A4400082286
:100003007590FEE59064FE70030200F67F14120AF9
:10001300D2E59064FE6028E59054F0F512249060D8
:100023001B24C0601224E0600924F07012E4F5136D
:10003300800D75130180087513028003751303E5A2
:1000430090B4FEFBE513600D64016009E5136402DF
:1000530060030200EDE52260087F01120ABFE4F5A8
:1000630022E50970427F0AFEFDFCAB17AA16A9150B
:10007300A81412087FA804A905AA06AB07AF13EFBB
:100083003395E0FE74982FF582740A3EF583E4936A
:10009300FFE4FCFDFEEB2FF517EE3AF516ED39F50F
:1000A30015EC38F5148049E47F0AFEFDFCAB1BAA6E
:1000B3001AA919A81812087FA804A905AA06AB074C
:1000C300AF13EF3395E0FE74982FF582740A3EF573
:1000D30083E493FFE4FCFDFEEB2FF51BEE3AF51AE8
:1000E300ED39F519EC38F518800675090175080422
:1000F300120A467590FDE59064FD70030201F67FD8
:1001030005120AD2E59064FD6028E59054F0F512DB
:100113002490601B24C0601224E0600924F0701254
:10012300751304800D751305800875130680037518
:100133001307E590B4FDFBE51364046018E513644D
:10014300056012E513640660030201EDE51364071D
:1001530070030201EDE52260087F01120ABFE4F596
:1001630022E50970427F0AFEFDFCAB17AA16A9150A
:10017300A81412087FA804A905AA06AB07AF13EFBA
:100183003395E0FE74982FF582740A3EF583E49369
:10019300FFE4FCFDFEEB2FF517EE3AF516ED39F50E
:1001A30015EC38F5148049E47F0AFEFDFCAB1BAA6D
:1001B3001AA919A81812087FA804A905AA06AB074B
:1001C300AF13EF3395E0FE74982FF582740A3EF572
:1001D30083E493FFE4FCFDFEEB2FF51BEE3AF51AE7
:1001E300ED39F519EC38F518800675090175080322
:1001F300120A467590FBE59064FB70030202F27FDE
:1002030005120AD2E59064FB6028E59054F0F512DC
:100213002490601B24C0601224E0600924F0701253
:10022300751308800D751309800875130A8003750B
:10023300130BE590B4FBFBE5136408600FE513644F
:10024300096009E513640A60030202E4E522600819
:100253007F01120ABFE4F522E50970427F0AFEFD21
:10026300FCAB17AA16A915A81412087FA804A905A0
:10027300AA06AB07AF13EF3395E0FE74982FF58210
:10028300740A3EF583E493FFE4FCFDFEEB2FF517C0
:10029300EE3AF516ED39F515EC38F514804EE47F9A
:1002A3000AFEFDFCAB1BAA1AA919A81812087FA8FD
:1002B30004A905AA06AB07AF13EF3395E0FE7498C4
:1002C3002FF582740A3EF583E493FFE4FCFDFEEB15
:1002D3002FF51BEE3AF51AED39F519EC38F51880C0
:1002E3000BE513B40B06750901750802120A46756E
:1002F30090F7E59064F770030206197F05120AD29E
:10030300E59064F76028E59054F0F5122490601BA3
:1003130024C0601224E0600924F0701275130C806D
:100323000D75130D800875130E800375130FE5907B
:10033300B4F7FBE51324F360181460601470030230
:1003430005FA240360030206197F01120ABF02059E
:10035300E4E5097021AF17AE16AD15AC147B0AFAAC
:10036300F9F812087F8F178E168D158C147F3012B3
:100373000A5EE4F5B022E50964016003020619AFE1
:100383001BAE1AAD19AC187B0AFAF9F812087F8F65
:100393001B8E1A8D198C187F30020A5E752201E5B7
:1003A300086401705C120AB8E517251BF51FE516F2
:1003B300351AF51EE5153519F51DE5143518F51C27
:1003C300AF1FAE1EAD1DAC1CEC4D4E4F602BE47B3E
:1003D3000AFAF9F81209C0EB2430FF120A5EAF1FC4
:1003E300AE1EAD1DAC1CE47B0AFAF9F81209C08FEE
:1003F3001F8E1E8D1D8C1C80C77F3D120A5E020559
:10040300E4E508640260030204C1120AB8C3E517F5
:10041300951BFFE516951AFEE5159519FDE514954F
:1004230018FCE4FBFAF9F8C31208DC501BC3E51708
:10043300951BF51FE516951AF51EE5159519F51D7E
:10044300E5149518F51C8019C3E51B9517F51FE5F1
:100453001A9516F51EE5199515F51DE5189514F56C
:100463001CAF1FAE1EAD1DAC1CEC4D4E4F602BE4FC
:100473007B0AFAF9F81209C0EB2430FF120A5EAFC7
:100483001FAE1EAD1DAC1CE47B0AFAF9F81209C0BD
:100493008F1F8E1E8D1D8C1C80C7C3E517951BE512
:1004A30016951AFEE5159519FDE5149518FC3350BC
:1004B300057F2D120A5E7F3D120A5E0205E4E50800
:1004C30064037059120AB8AF1BAE1AAD19AC18AB5E
:1004D30017AA16A915A81412087F802FAF1FAE1EE6
:1004E300AD1DAC1CEC4D4E4F602BE47B0AFAF9F8C2
:1004F3001209C0EB2430FF120A5EAF1FAE1EAD1D02
:10050300AC1CE47B0AFAF9F81209C08F1F8E1E8D0A
:100513001D8C1C80C77F3D120A5E0205E4E508645A
:10052300046003020619120AB8E4F521AF17AE16E8
:10053300AD15AC14EC1207C0C004C005C006C0075B
:10054300AF1BAE1AAD19AC18EC1207C0A804A9056D
:10055300AA06AB07D007D006D005D004120723E4C0
:10056300FBFA797A784412061A1207FE8F1F8E1E41
:100573008D1D8C1CAF1FAE1EAD1DAC1CEC4D4E4F24
:100583006037E47B0AFAF9F81209C0EB2430FF1252
:100593000A5EAF1FAE1EAD1DAC1CE47B0AFAF9F870
:1005A3001209C08F1F8E1E8D1D8C1C0521E521B4E1
:1005B30003C27F2E120A5E80BBAB1BAA1AA919A81D
:1005C30018AF17AE16AD15AC141209C0E4FBFAF957
:1005D300F8C31208DC40057F30120A5E7F3D120A21
:1005E3005EE4F517F516F515F514F51BF51AF5196F
:1005F300F518F509F50822AF13EF3395E0FE74A85B
:100603002FF582740A3EF583E4932430FF120A5EC9
:0706130075090175080122C1
:080AEE00120A0412000380FB50
:10061A00EC4D6011E8497017ED33EC3304600DE4DA
:10062A00FCFFFEFD22E933E8330470F802086A127F
:10063A00083558046009E4CC248150062850090280
:10064A000874284003020871C0E0EB4A7044B9807C
:10065A0006D0E0FB020860EF4E701CBD8008EBFF7D
:10066A00EAFEE9FD80EBE98DF0A4FEE5F00207035E
:10067A00E9CDF9EAFEEBFFEF89F0A4FCE5F0CE89BB
:10068A00F0A42EFFE435F0CD89F0A42DFEE435F078
:10069A008067EF4E7005BD80D780C3EF8BF0A4ACA6
:1006AA00F0EE8BF0A42CFCE435F0F8EF8AF0A42CE1
:1006BA00E5F038FCE433CB8DF0A42CFCE5F03BF8F4
:1006CA00EE8AF0A42CFCE5F038F8E433CF89F0A4E4
:1006DA002CFCE5F038CF3400CE89F0A42FFFE5F0EA
:1006EA003EFEE433C98DF0A42EFEE5F039CD8AF042
:1006FA00A42FFFE5F03EFEE43DFD33D0E0FB5007BA
:10070A000BBB000F020874EC2CFCEF33FFEE33FE38
:06071A00ED33FD02084C66
:10072000020874EC5D046005E85904700302086A6D
:10073000120835580460F6EC4860F2EC7004FDFED7
:10074000FF22C860DB2481C85009C39860025006AC
:100750000208719850CAF582E9294B4A7005AB82AC
:1007600002086075F0007C1A7880C3EF9BEE9AED6A
:1007700099400DC3EF9BFFEE9AFEED99FDE842F024
:10078000DC23ACF0D0E0FFD0E0FED0E0FDAB822077
:10079000E7101BEB60BAEC2CFCEF33FFEE33FEED01
:1007A00033FD02084CE803F830E705C0F075F000AF
:1007B000EF2FFFEE33FEED33FD40B830E7C280AAE5
:1007C00075F020800E75F010800575F0087D007EB4
:1007D000007F003392D530D5031208CEEC334010A1
:1007E000EF33FFEE33FEED33FDEC33FCD5F0ED22BD
:0E07F000E5F0247EA2D513CC92E7CDCEFF22F9
:1007FE00EDD2E7CD33EC3392D524814006E4FFFEF3
:10080E00FDFC22FCE4CFCECDCC24E0501174FF8051
:10081E00EDC3CC13CCCD13CDCE13CECF13CF0470EE
:07082E00F030D5DE0208CE18
:10083500E9D2E7C933E833F892D5EDD2E7CD33EC09
:0708450033FC5002B2D52282
:10084C00EC30E7100FBF000C0EBE00080DBD00040D
:10085C000BEB6014A2D5EB13FCED92E7FD2274FFB9
:10086C00FCFDFEFF22E480F8A2D574FF13FC7D8012
:03087C00E480EF26
:03000000020AE20F
:0C0AE200787FE4F6D8FD758122020AEE50
:10087F00E88FF0A4CC8BF0A42CFCE98EF0A42CFC18
:10088F008AF0EDA42CFCEA8EF0A4CDA8F08BF0A496
:10089F002DCC3825F0FDE98FF0A42CCD35F0FCEBF5
:1008AF008EF0A4FEA9F0EB8FF0A4CFC5F02ECD39BA
:0F08BF00FEE43CFCEAA42DCE35F0FDE43CFC2227
:1009C000C2D5E830E70FB2D5E4C39BFBE49AFAE462
:1009D00099F9E498F8EC30E717B2D51209F6120944
:1009E0002EE4C39BFBE49AFAE499F9E498F88003B7
:1009F00012092E30D50DE4C39FFFE49EFEE49DFD59
:040A0000E49CFC2254
:0E08CE00C3E49FFFE49EFEE49DFDE49CFC223B
:1008DC00EB9FF5F0EA9E42F0E99D42F0EC6480C893
:0608EC0064809845F02233
:1008F20075F008758200EF2FFFEE33FECD33CDCCBD
:1009020033CCC58233C5829BED9AEC99E58298403F
:100912000CF582EE9BFEED9AFDEC99FC0FD5F0D61C
:10092200E4CEFBE4CDFAE4CCF9A88222B800C1B946
:100932000059BA002DEC8BF084CFCECDFCE5F0CB84
:10094200F97818EF2FFFEE33FEED33FDEC33FCEBBD
:1009520033FB10D703994004EB99FB0FD8E5E4F978
:10096200FA227818EF2FFFEE33FEED33FDEC33FC65
:10097200C933C910D7059BE99A4007EC9BFCE99A59
:10098200F90FD8E0E4C9FAE4CCFB2275F010EF2F9E
:10099200FFEE33FEED33FDCC33CCC833C810D7079E
:1009A2009BEC9AE899400AED9BFDEC9AFCE899F8D9
:0E09B2000FD5F0DAE4CDFBE4CCFAE4C8F9226C
:00000001FF
