:101CEE0020202020206572726F722120202020205B
:101CFE000020660073696E2000636F7320007461AC
:101D0E006E200065787020006C6E20004C672000FD
:101D1E0073717274200064616F2000202020207384
:101D2E007563636573732120202020002567004EA4
:101D3E00616D653A4D61786900534E3A32303132F9
:091D4E00313232363830333100F5
:091FB300017A0001A30001C40041
:101F6600E4F5087F18121FAB7FC8121F580508E555
:071F760008C3941040ED22A6
:0F1F4900C2A5C2A78F807F05121F58D2A77F05A0
:0D1F5800EFD3940040077E64DEFE1F80F38F
:011F65002259
:071FA4007F01121FAB7F80DB
:081FAB00C2A6121F49C2A722C1
:081FBD00D2A6121F49C2A7229F
:101F0600C2A6D2A57F05121F587580FF121F5478EE
:101F1600A2A6807F05121F58C2A77F05121F58E68A
:041F2600547FF622CC
:061E92008B248A2589263D
:101E9800E4780BF6AB24AA25A926780BE6F582751B
:101EA8008300120600FF6008121FBD780B0680E44D
:011EB8002207
:101F7D007F38121FAB7F0C121FAB7F06121FAB7F7A
:041F8D0001021FAB83
:101EE000300C0C121F067FC0121FAB7F73800A12CA
:101EF0001F067FC0121FAB7F20121FBD78A2E624F1
:061F000080FF121FAB225E
:10127900E4780BF675B0FE7809A6B0E654F0F608E6
:10128900F664F0604C7F05121F5875B0FE18A6B0C1
:10129900E654F0FFF608E66F703718E62490601EF2
:1012A90024C0601424E0600A24F07016780B7637A5
:1012B9008010780B7638800A780B76398004780BA1
:1012C90076FD7809E664F06065A6B0E654F0F6802C
:1012D900F175B0FD7809A6B0E654F0F608F664F0A9
:1012E900604F7F05121F5875B0FD18A6B0E654F07F
:1012F900FFF608E66F703A18E62490601E24C06075
:101309001424E0600A24F07016780B763480107883
:101319000B7635800A780B76368004780B762A7836
:1013290009E664F06008A6B0E654F0F680F102130D
:10133900F675B0FB7809A6B0E654F0F608F664F045
:10134900604E7F05121F5875B0FB18A6B0E654F021
:10135900FFF608E66F703918E62490601E24C06015
:101369001424E0600A24F07016780B763180107826
:101379000B7632800A780B76338004780B762D78D9
:1013890009E664F06008A6B0E654F0F680F1805DE5
:1013990075B0F77809A6B0E654F0F608F664F0607F
:1013A900507F05121F5875B0F718A6B0E654F0FF24
:1013B900F608E66F703B18E62490601E24C060149E
:1013C90024E0600A24F07016780B762E8010780BD2
:1013D9007630800A780B763D8004780B762B780975
:1013E900E664F06008A6B0E654F0F680F1D20A800F
:1013F9003620A00B780B7620D20A30A0FD80282059
:10140900A10E780B7663D20A30A1FD121EE0803D51
:1014190020A2267F05121F5820A23C200C0B780B16
:10142900766DD20A30A2FD8024780B766ED20AC27C
:101439000C121EE030A2FD801420A3197F05121F93
:101449005820A30E780B7668D20A30A3FD780BE6F4
:07145900FF227F00227F004B
:011460002269
:101BFC007F0F121FAB121FA478AE120692000000CA
:101C0C0000E4780BF6780BE6FB25E025E0248BF856
:101C1C001206920000000074A42BF8E4F6780BE690
:101C2C00FF24A7F8E4F674A92FF8E4F674AC2FF8A7
:101C3C00E4F674C52FF8E4F6780AF6780AE6FFC3E2
:101C4C00940E501108E675F00EA424402FF8E4F61B
:101C5C00780A0680E6780B06E6B402A9E478A3F6C7
:101C6C0078C4F678A6F6788AF6C209C20CC20D784A
:071C7C00ABF6C20A78C3F6C3
:011C8300223E
:101F2A00121FA47BFF7A1C79EE121E92E4780AF63D
:0E1F3A007F19121F58780A06E6C394C840F2B9
:011F48002276
:101C8400788AE675F00EA42440F8E6FF642B60051C
:101C9400EF642D703478A3E66401702D788AE6FF32
:101CA40075F00EA42440F8E6FE74AC2FF8A606786E
:101CB4008AE6FF75F00EA42440F8E4F6EF75F00E02
:101CC400A42441F8E4F678A3F6788AE6FF75F00ECA
:101CD400A42440F8E6700774A42FF8E66009121FE4
:0A1CE4002A121E677F01227F0022F2
:101E670078A6E660011678A6E6FA121BFC78A6A605
:101E770002E4F522E522C378A696500E745C25226B
:0A1E8700F8E6FF1207CA052280EA00
:011E9100222E
:1019AB00AD07121F06788A06787AA605788AE6B400
:1019BB00020E78A2E6C394435006121F2A021E673A
:1019CB00788AE66402704278A2E6D39442403AD217
:1019DB000A7F3D121E01D20A7F6D121E01788A7694
:1019EB0001787AE6FF645E6004EFB4250D78A6E615
:1019FB00245CF8766878A6068000787AE6FF78A6ED
:101A0B00E6245CF8A60778A606787AE6B4250B7B65
:101A1B00FF7A1C79FF121E9280057F20121FBD7862
:101A2B007AE6FF121FBDE478ABF6C20D78C47601DF
:0F1A3B0078A3F6787AE678C3F67FC2121FAB2243
:101D570078C4E675F00EA42440F8E6FF642B60050E
:101D6700EF642D703478A3E66401702D78C4E6FF24
:101D770075F00EA42440F8E6FE74B22FF8A6067894
:101D8700C4E6FF75F00EA42440F8E4F6EF75F00EF4
:101D9700A42441F8E4F678A3F678C4E675F00EA417
:101DA7002440F8E66009121F2A121E677F01227F6E
:021DB700002208
:101E0100AA07200B077F0F121FABD20B3009063038
:101E11000A03121BFCC20ABA6305121E67E4FAEA3E
:101E2100601078A6E6245CF8A60278A606AF021236
:031E310007CA22BB
:0207CA008F237B
:1007CC00E47809F6E523B46805B20C0209D9E523EF
:1007DC00D394395007E523C394305009E523642E94
:1007EC0060030209DCC20D200C29C3740E78AB9691
:1007FC00FF78A3E6C39F5018AF23121FBDE6FF7806
:10080C00C4E675F00EA424402FF8A62378A3062284
:10081C00020AF7E52324D2B40C004003020E09901F
:10082C00083975F003A4C58325F0C5837302099AB2
:10083C00020E0902097202094B0209C90209D2020D
:10084C0008D50208FD02092402085D020885020889
:10085C00AD121C847809EFF664017003020E09785E
:10086C008AE624A4F87673C20C121EE078AB7604E8
:10087C007BFF7A1D7902020997121C847809EFF626
:10088C0064017003020E09788AE624A4F87663C228
:10089C000C121EE078AB76047BFF7A1D79070209F7
:1008AC0097121C847809EFF664017003020E097824
:1008BC008AE624A4F87674C20C121EE078AB760497
:1008CC007BFF7A1D790C020997121C847809EFF6CC
:1008DC0064017003020E09788AE624A4F87665C2D6
:1008EC000C121EE078AB76047BFF7A1D791102099D
:1008FC0097121C847809EFF664017003020E0978D4
:10090C008AE624A4F8766CC20C121EE078AB76034F
:10091C007BFF7A1D79168073121C847809EFF664BC
:10092C00017003020E09788AE624A4F87667C20CDB
:10093C00121EE078AB76037BFF7A1D791A804C127D
:10094C001C847809EFF664017003020E09788AE6BC
:10095C0024A4F87671C20C121EE078AB76057BFFEE
:10096C007A1D791E8025121C847809EFF6640170BB
:10097C0003020E09788AE624A4F87664C20C121ECF
:10098C00E078AB76047BFF7A1D7924021E9278A363
:10099C00E678C47013E625E024A7F87601C3740E3C
:1009AC0078AB9679A3F7800CE625E024A8F87601BD
:1009BC0078A3760E7FF7121FBDC20C80107F5E12DB
:1009CC0019ABC20C80077F251219ABC20C021EE0BA
:1009DC00E523646D703D121D57EF64017003020E28
:1009EC0009E47809F67809E62493F8E6FF60081222
:1009FC001FBD78090680EE78C4E675F00EA424407D
:100A0C00F9E4A801FCFDFB7A0079931207ADD20D35
:100A1C00020AF2E523646E706D300D3078B47C0000
:100A2C00FDFB7A0079931207ADC20D121FA47BFF58
:100A3C007A1D7929121E92E47809F67F19121F5833
:100A4C00780906E6C394C840F2020E06121D57EF51
:100A5C0064017003020E09E47809F67809E624B4FF
:100A6C00F8E6FF6008121FBD78090680EE78C4E630
:100A7C0075F00EA42440F9E4A801FCFDFB7A007982
:100A8C00B41207AD8060E523642B6006E523642D6A
:100A9C00703478A3E6AF237062121FBD78C4E6FFF2
:100AAC0075F00EA42440F8A623EF75F00EA4244193
:100ABC00F87630121F067F30121FBD78A2E6FF12A7
:100ACC001FAB08760122E52364FD7029300C2278D7
:100ADC00A3E6601778C4E624C5F87601C20C121E92
:100AEC00E07FDF121FBD78A3760E22121F2A021E92
:100AFC0067AF238006E523B42A04FF0219ABE52374
:100B0C00643D6003020E01121FA4AF23121FBDE44B
:100B1C007809F67809E6FFC394024003020CE4EF6F
:100B2C0075F00EA42440F9E4FAFB121DB97809E61D
:100B3C00FB25E025E0248BF8120686EB25E024A7A4
:100B4C00F8E6B4010FEB25E025E0248BF8120692B1
:100B5C0040490FDBEB25E024A8F8E6B4011DEB259A
:100B6C00E025E0248BF8C00012064D7BDB7A0F7970
:100B7C004978401200FBD0001206867809E6FF2463
:100B8C00B2F8E6B42D1BEF25E025E0248BF8120615
:100B9C004D1202A17809E625E025E0248BF8120617
:100BAC00867809E6FF24C5F8E6B4012DEF25E0258B
:100BBC00E0248BF812064D7BDB7A0F7949784012D2
:100BCC0000FBE4FBFA793478431202047809E62539
:100BDC00E025E0248BF81206867809E624A4F8E6D2
:100BEC00FF7003020CB8249D6032147003020C9445
:100BFC0014604D24FE606D24FB605724FB60772449
:100C0C00FD602B046003020CB87809E625E025E0B2
:100C1C00248BF812064D1214BF020CAB7809E62592
:100C2C00E025E0248BF812064D1214A98071780986
:100C3C00E625E025E0248BF812064D1214F1805FB6
:100C4C007809E625E025E0248BF812064D121A826D
:100C5C00804D7809E625E025E0248BF812064D122C
:100C6C001603803B7809E625E025E0248BF8120674
:100C7C004D1215FF80297809E625E025E0248BF834
:100C8C0012064D12190580177809E625E025E02497
:100C9C008BF8120669E4FFFE7D807C3F120204781B
:100CAC0009E625E025E0248BF81206867809E6FF94
:100CBC0024ACF8E6B42D1BEF25E025E0248BF812CC
:100CCC00064D1202A17809E625E025E0248BF812E6
:100CDC000686780906020B1F788AE670070812064A
:100CEC004D020D7B78C3E624DB606F24FB6032245D
:100CFC00FD601B24CF604C2461603524D270757864
:100D0C008F12064D788B12066912000A8061788F5B
:100D1C00120669C000788B12064DD00012000680B6
:100D2C004E788F12064D788B1206691200FB803FAD
:100D3C00788F120669C000788B12064DD000120213
:100D4C0004802C788F12064D8F2B8E2A8D298C289F
:100D5C00788B12064D1217048015788F12064D8F62
:100D6C002B8E2A8D298C28788B12064D121AE4783A
:100D7C00AE1206867527FF75281D75293A78AE12B6
:100D8C00064D8F2D8E2C8D2B8C2A7B007A00797B37
:100D9C00120E66787BE6FFD394395006EFC394307D
:100DAC00501B787CE6FFD394395006EFC394305037
:100DBC000CEF6009642E6005121F2A803D78937C2D
:100DCC00007D007B007A00797B1207ADE47809F690
:100DDC007809E6247BF8E6FF6008121FBD78090647
:100DEC0080EE7809E6C3940F50087F20121FBD06D1
:0D0DFC0080F0D20922E523B42003121BFC75
:010E090022C6
:101E3400121BFC121F7DD20BE478A6F67F90121FB2
:101E4400AB7BFF7A1D793D121E927FD0121FAB7BB4
:101E5400FF7A1D7947121E92121F66121279121E02
:031E64000180F802
:100003000202E7E86480F8E933E83360110460F042
:10001300ED33EC337009E8FCE9FDEAFEEBFF220463
:1000230060DED3EB9FEA9EE99DE8C2E78CF0C2F75E
:1000330095F0400CE8CCF8E9CDF9EACEFAEBCFFB2A
:100043001202B285D0F05804700320D5B3E80470CF
:10005300075002B2D50202F192D5EC0460F7E4CC6A
:10006300C0E0C398F8603B94186008400DD0E0FBF3
:100073000202C9E4FBFAC9FC8028E830E406E4C9BB
:10008300FBE4CAFCE830E305E4C9CACBFCE8540747
:100093006010F8C3E913F9EA13FAEB13FBEC13FC52
:1000A300D8F130F52FC3E49CFCEF9BFFEE9AFEEDF5
:1000B30099FDD0E0FBEF4E4D4C701222DB030202A0
:1000C300EEEC2CFCEF33FFEE33FEED33FDED30E7CA
:1000D300EB0202C9EF2BFFEE3AFEED39FDD0E0FB58
:1000E30050130BBB00030202F1ED13FDEE13FEEF01
:0800F30013FFEC13FC0202C92B
:1000FB00EC4D6011E8497017ED33EC3304600DE4FF
:10010B00FCFFFEFD22E933E8330470F80202E7122C
:10011B0002B258046009E4CC24815006285009022D
:10012B0002F12840030202EEC0E0EB4A7044B980B2
:10013B0006D0E0FB0202DDEF4E701CBD8008EBFF2A
:10014B00EAFEE9FD80EBE98DF0A4FEE5F00201E4A7
:10015B00E9CDF9EAFEEBFFEF89F0A4FCE5F0CE89DF
:10016B00F0A42EFFE435F0CD89F0A42DFEE435F09C
:10017B008067EF4E7005BD80D780C3EF8BF0A4ACCA
:10018B00F0EE8BF0A42CFCE435F0F8EF8AF0A42C05
:10019B00E5F038FCE433CB8DF0A42CFCE5F03BF818
:1001AB00EE8AF0A42CFCE5F038F8E433CF89F0A408
:1001BB002CFCE5F038CF3400CE89F0A42FFFE5F00E
:1001CB003EFEE433C98DF0A42EFEE5F039CD8AF066
:1001DB00A42FFFE5F03EFEE43DFD33D0E0FB5007DE
:1001EB000BBB000F0202F1EC2CFCEF33FFEE33FEE6
:0601FB00ED33FD0202C914
:100201000202F1EC5D046005E8590470030202E7A3
:100211001202B2580460F6EC4860F2EC7004FDFE84
:10022100FF22C860DB2481C85009C39860025006D0
:100231000202EE9850CAF582E9294B4A7005AB8259
:100241000202DD75F0007C1A7880C3EF9BEE9AED17
:1002510099400DC3EF9BFFEE9AFEED99FDE842F048
:10026100DC23ACF0D0E0FFD0E0FED0E0FDAB82209B
:10027100E7101BEB60BAEC2CFCEF33FFEE33FEED25
:1002810033FD0202C9E803F830E705C0F075F0005C
:10029100EF2FFFEE33FEED33FD40B830E7C280AA09
:1002A100ED33EC33600A047003BD8004ECB2E7FC6B
:0102B100222A
:100E0A00E53B2427F8E6053B2278243007027827B9
:100E1A00E475F0011206AB0205E72000EB7F2ED243
:100E2A00008018EF540F2490D43440D4FF30040BC0
:100E3A00EF24BFB41A0050032461FFE53C60021599
:100E4A003C053FE53F7002053E30070D7824E47506
:100E5A00F0011206ABEF02062D021EB97403D20787
:100E6A008003E4C207F53B8B248A258926E4F53CF6
:100E7A00F53EF53FE53C60077F20120E4580F5758B
:100E8A003DFFC201C200C202C203C205C206C208B5
:100E9A00120E13FF700D3007057F00120E56AF3F7A
:100EAA00AE3E22B4255FC2D5C204120E13FF24D06F
:100EBA00B40A00501A75F00A783C30D50508B6FF16
:100ECA000106C6A426F620D5047002D20380D924CE
:100EDA00CFB41A00EF5004C2E5D204021143D20182
:100EEA0080C6D20080C0D20280BCD2D580BAD205D8
:100EFA0080B47F20120E452002077401B53C0040E1
:100F0A00F1120E0AFF120E45020E7ED208D2068098
:100F1A0095120E0AFB120E0AFA120E0AF94A4B70C1
:100F2A0006793A7A127BFF20022EE53C602A7E007F
:100F3A008E8275830012060060060EEE653D70F023
:100F4A00C2D5EBC0E0EAC0E0E9C0E0EE1211A3D0DE
:100F5A00E0F9D0E0FAD0E0FB1205E7FF60AAEBC0A7
:100F6A00E0EAC0E0E9C0E0120E45D0E02401F9D081
:100F7A00E03400FAD0E0FBE53D0460DCD53DD980E1
:100F8A0087D20280A212118660F7E53D7001041231
:100F9A0003F8A93D600DE53D600914F53D12122DD7
:100FAA00EF60F3EA30E702F404C3995077EAF425D4
:100FBA003D0430E701E404F53D800D12118660C15D
:100FCA00EA053D253D1203F8EA783AF630E701E4EE
:100FDA00253D04D53D04200501141211A3E4C0E007
:100FEA0012122D783AE6601320E70714F6120E2D36
:100FFA00802204F6D0E014C0E07F00120E2DE53DF9
:10100A006007120E24153D800B300503120E24D002
:10101A00E0020E7ED0E00480C512118660A0E53D94
:10102A00041203F8783AEAF6E53D20050260010465
:05103A0024041211A3C3
:10103F0074FF04C0E012122D120E2DE53D200502A3
:10104F006003120E24D0E0B53DE87F45120E3778CD
:10105F003AE67F2B30E7047F2DF404C0E0120E45F3
:10106F00D0E075F00A84C0F0120E2ED0E0120E2ED2
:10107F00020E7E791080027908C206C2088008D25B
:10108F00D5790A8004790AC2D5E53D047002F53D91
:10109F00E4FAFDFEFF120E0AFC7B08200113120E6C
:1010AF000AFD7B1030000A120E0AFE120E0AFF7B99
:1010BF0020EC3382D592D55013C3E43000069FFF46
:1010CF00E49EFEE42001039DFDE49CFCE4CBF8C20A
:1010DF0001EC700CCFCECDCCE824F8F870F380176C
:1010EF00C3EF33FFEE33FEED33FDEC33FCEB33FB9D
:1010FF00994002FB0FD8E9EB300105F8D0E0C44866
:10110F00B201C0E00AEC4D4E4F78207B0070C2EA6E
:10111F00B53D0040BCC0E01211A5D0F0D0E02001D9
:10112F0004C4C0E0C4B201C0F0120E2ED0F0D5F04E
:10113F00EB020E7E1206BB0F1B531082580EEC4CA7
:10114F000EE84210864F108E44108E490F01431047
:10115F0094550FC5461023450F8F47125A500EF066
:10116F002D0EF42E0F172B0EF8230F152012432AD6
:10117F000EB04800000F0FE53DB4FF03753D06129A
:10118F000E0AFC120E0AFD120E0AFE120E0AFF784C
:10119F0033020427790AA2D5200314300509B910A8
:1011AF00020404B9080104A2D5200602500104204C
:1011BF0002689202B53C005034C0E07F2030031922
:1011CF007F30A20272067205500F1211FCC202C2CA
:1011DF0006C205C2087F30800F300503E9C0E01258
:1011EF000E45300503D0E0F9D0E0B53CCC30051703
:1011FF007F30B9100C120E457F583004077F78806E
:10120F0003B90803120E453002057F2D020E457FEC
:10121F00202008F87F2B2006F322920280CF7F0038
:10122F00B4070050052433F8E6FF22286E756C6C66
:10123F002900D201120E0A3001F8C201783C30D5D4
:10124F000108F6020EB02D50434958120E0A24031E
:10125F00B405004001E490125593120E36743A1201
:0A126F000E36D203753C0402108213
:101DB900D2008B248A258926121DF5C0E0FF121F47
:101DC90091D0E040F312182E400122ECC0E0EDC0A2
:101DD900E0EEC0E0EFC0E0121DF5D0F0AFF0D0F0BA
:101DE900AEF0D0F0ADF0D0F0ACF080D9E475F001F0
:081DF90078241206AB0205E795
:101A4A0033DA929E35B16011377FE5FE39218489F8
:101A5A003AAEC3FF3C1D955B3D6358473E75FDF0AA
:101A6A003F3172183F800000C2D50202F10202E73C
:101A7A00BD80FA50F30202EEED33EC330460F17BE1
:101A8A003B7AAA79B8783F1200FBED33EC3392D552
:101A9A00247B5011A2D570DB500BED4480240450F6
:101AAA0004A2D580CEEFFBEEFAEDF9ECF81203C1F1
:101ABA00EFF582F404FC12038D12000AC082901A18
:101ACA004A7409120539ED33CC33D0F092D525F09A
:0A1ADA00A2D57001C313CC13FD2246
:1015CF003E9248DA3ECCCCCD3F2AAAAB4000000079
:1015DF003F8000003F9837F03FB504F33FD744FCFE
:1015EF003E3172173EB172173F0515913EDE5BD942
:1015FF00D2008002C200EDD2E7F8CD33EC33047095
:10160F000BBD800592D50202F10202E740FBD31415
:10161F0060F2F5F07C3FEE7A00C39496C8948B404D
:10162F00230AC89469C8941A401A0AC89468C894BF
:10163F001F40110AC8945AC89425400805F07A0033
:10164F00CDC2E7CDC0F08C2E8D2F8E308F31EA2397
:10165F0023C0E024DFF582E43415F58312067612F9
:10166F00000AECC0E0EDC0E0EEC0E0EFC0E0120613
:10167F0059A82EA92FAA30AB31120006D0E0FBD00B
:10168F00E0FAD0E0F9D0E0B2E7F81202048C2E8D28
:10169F002F8E308F319015CF740312052AA82EA9E3
:1016AF002FAA30AB311200FBD0E0600F24EBF58294
:1016BF00E43415F58312067612000A8C2E8D2F8EC8
:1016CF00308F31D0E0C3947FFDE49400FC12038887
:1016DF007B187A727931783F1200FBA82EA92FAAB6
:1016EF0030AB3112000A30000B7BD97A5B79DE7890
:0516FF003E1200FB2279
:101901000202E722EDA2E7D2E7F9EC3340F260F3FD
:10191100B4FF08ED547F70E80202F1F82481C2E0BF
:10192100C0E0F40428FAC313FCED92E7FD8C248D8A
:10193100258E268F27EEA2E7E9BA7F02C313340072
:101941009400FA75F091A4E5F013F494FE8AF0A4E2
:1019510033E5F033248CD313FDE492E7FE7F007C62
:101961003F758302ECC0E0F8EDC0E0F9EEC0E0FAAB
:10197100EFC0E0FBAC24AD25AE26AF27120204D0A8
:10198100E0FBD0E0FAD0E0F9D0E0F812000AED6413
:1019910080FD30E7011CD583CBED33CC33F8D0E0AB
:0A19A100A2E71328C313CC13FD22A4
:101461003A70FA83BCAAE9E43E81E0F8BF9DE9E65F
:101471003F80000039283C1ABB9969663DA335E3DA
:10148100BF255DE73FC90FDB418DDBCCC44936EE9B
:1014910045C9913FC5B0F83D3F800000C317F53401
:1014A100452FFA73C60AFDDD12155004A2E1920020
:1014B1001420E015901461740412052A8026121577
:1014C1005030E102B20020E0EB8C248D258E268F76
:1014D10027901475740412052AA824A925AA26ABFD
:1014E100271200FBED4C6007300004EC6480FC2205
:1014F100121550C0E08C248D258E268F27901499CB
:10150100740312052AA824A925AA26AB271200FBD9
:10151100ECC524FCEDC525FDEEC526FEEFC527FF74
:10152100901489740312052AD082A824A925AA2619
:10153100AB27E58230E007120204B20080A6EFCBB0
:10154100FFEECAFEEDC9FDECC8FC1202048095ED68
:1015510033EC547FCC33920024605007D0E0D0E0CC
:101561000202E77B837AF97922783E1200FBEDF9DA
:1015710033ECF83324815011EFFBEEFA1203C11260
:101581000383ECB2E7FC12000AED33EC33602F2445
:1015910003F8C313FCED92E7FDE82481E4501FEC4E
:1015A100F8EDF9EEFAEFFB1203C1EF04C2E0FCF52E
:1015B1008212038DECB2E7FC12000AE58203FAED18
:0E15C10033EC3360071413FCED92E7FDEA22D1
:101AE4008F278E268D258C24E4FFFEFDFCAB2BAACC
:101AF4002AA929A8281203167005FFFEFDFC22ABB3
:101B04002BAA2AA929A828AF27AE26AD25AC2412D2
:101B140002041203C18F2F8E2E8D2D8C2CAF27AE75
:101B240026AD25AC24ECC0E0EDC0E0EEC0E0EFC093
:101B3400E0AF2FAE2EAD2DAC2CEC120383AB2BAA51
:101B44002AA929A8281200FBC8ECC8C9EDC9CAEE05
:101B5400CACBEFCBD0E0FFD0E0FED0E0FDD0E0FC7C
:0C1B64001200068F278E268D258C24226F
:101704008F278E268D258C24E4FFFE7D807C3FABC5
:1017140027AA26A925A8241203167009AF27AE26E6
:10172400AD25AC2422AF27AE26AD25AC241202FC95
:10173400FBAF2BAE2AAD29AC281202FCFFBF010877
:10174400E4FFFE7D807C3F22EF64046022EB6404AE
:10175400601DBB0127E4FFFEFDFCAB2BAA2AA929CF
:10176400A82812031660084006E4FFFEFDFC22745C
:10177400FFF52BF52AF529F528021812E4F52CF5C6
:101784002DFFFEFDFCAB27AA26A925A824120316CB
:10179400504BAF2BAE2AAD29AC281203C18E2C8F2F
:1017A4002DAC2CAD2DEC120388C8ECC8C9EDC9CA08
:1017B400EECACBEFCBAF2BAE2AAD29AC2812000674
:1017C400E4FBFAF9F812031670A5AF27AE26AD258F
:1017D400AC241202A18F278E268D258C24AF27AE30
:1017E40026AD25AC24121603AB2BAA2AA929A828B6
:1017F4001200FB121A828F2B8E2A8D298C28E52D3C
:1018040030E00B1202A18F2B8E2A8D298C28AF2B4E
:07181400AE2AAD29AC282229
:1002B200E9D2E7C933E833F892D5EDD2E7CD33EC92
:0702C20033FC5002B2D5220B
:1002C900EC30E7100FBF000C0EBE00080DBD000496
:1002D9000BEB6014A2D5EB13FCED92E7FD2274FF42
:1002E900FCFDFEFF22E480F8A2D574FF13FC7D809B
:0302F900E480EFAF
:1002FC00ED33EC33601004700FED547F7005740215
:0A030C0092E0227404220422E4228D
:1003160074F8CC6480CCC86480C8F582046043C39A
:10032600EB9FF5F0EA9E42F0E99D42F0E89C45F02D
:1003360060305018E5825FFFE582F42B5582FB5052
:10034600210ABA001D09B90019088016E5825BFB6F
:10035600E582F42F5582FF50090EBE00050DBD0043
:10036600010CC3EB9FF5F0EA9E42F0E99D42F0E8EE
:0D0376009C45F06007CC4820E701B3EC2265
:1003830075F020800E75F010800575F0087D007EF5
:10039300007F003392D530D50312063FEC33401073
:1003A300EF33FFEE33FEED33FDEC33FCD5F0ED22FE
:0E03B300E5F0247EA2D513CC92E7CDCEFF223A
:1003C100EDD2E7CD33EC3392D524814006E4FFFE34
:1003D100FDFC22FCE4CFCECDCC24E0501174FF8093
:1003E100EDC3CC13CCCD13CDCE13CECF13CF047030
:0703F100F030D5DE02063FEB
:1003F800F920E72824F950037907E4F42402FB18CC
:10040800DBFDE624FB5014E9600DE4F618E604F67B
:0F041800B40A08E4F6D9F57401F60A22C2D52217
:10042700ED33EC3392D5FA602AB4FF33EDC2E77BA4
:10043700FF60067A04794CE4227A04795520D504C2
:100447007A047950224E614E002B494E46002D49C1
:100457004E4600E47A08F608DAFC7B00740722E8C7
:10046700C0E0ECC0E0EDC0E0EEC0E0EFC0E0EA7550
:10047700F010A4CAABF075F04DA42BFBE435F0FCEB
:10048700EA2410FAEB34C5FBEC34D9FCEDC2E7FFE4
:1004970075F056A4F42411C5F0F434C58FF0A42ADE
:1004A700E5F03BE43CF620E7141205A7D0E0FFD0C7
:1004B700E0FED0E0FDD0E0FC1202048014F4041248
:1004C70005A7D0E0FFD0E0FED0E0FDD0E0FC1200B1
:1004D700FBD0E0F8E6FAEDD2E7CD33EC332482FB2C
:1004E700E4C3CF33CFCE33CECD33CD33DBF37B076E
:1004F70075F00A846004F6081B0AE5F0F6088FF029
:10050700740AA4FFACF08EF0740AA42CFEACF05071
:10051700010C8DF0740AA42CFDE435F0F608DBDE3F
:0305270074072234
:10181B00C201C202C203C204F9E4F527F528FCFD9C
:10182B00FEFFE91000EA20030CB42D04D203D322EF
:10183B00B42B02D32224D0504794095041240A30B0
:10184B000415F88528F0740AA42872E74051C5F0F6
:10185B00704D85F028D322D202C0E0E4FBFA792048
:10186B0078411200FBECF8EDF9EEFAEFFBD0E0FC5F
:10187B00E412038D12000A3001B41527D322240A77
:10188B00200420B4FE0720011AD201D32224EB60DE
:10189B000424E0700EA2039201D204C203D322C32C
:1018AB000202E7E430040BE528300302F404A20142
:1018BB0092033002EA252720D2E5A2E792045002D8
:1018CB00F404B4260050D8CCC0E0EDC0E0EEC0E08C
:1018DB00EFC0E0EC1205A7D0E0FFD0E0FED0E0FDBA
:1018EB00D0E0FC2004051200FB800312020430033D
:0618FB00031202A1C3224A
:10052A00C0E0EFFBEEFAEDF9ECF81200FBD0E0F5D3
:10053A00F0EFFBEEFAEDF9ECF8120659A3A3A3A328
:10054A00E8C0E0E9C0E0EAC0E0EBC0E0C0F01200B9
:10055A00FB120676A3A3A3A312000AD0F0D0E0FBF5
:0D056A00D0E0FAD0E0F9D0E0F8D5F0D422CE
:100577003F8000004120000042C80000447A00008C
:10058700461C400047C35000497424004B1896800E
:100597004CBEBC205A0E1BCA6753C21C749DC5AE05
:1005A700FB60065407601C23231205D5EB54386003
:1005B700091205C11205D01200FBECF8EDF9EEFAAD
:1005C700EFCB22EB1205D080F1543803241C9005A1
:1005D70077FE93FC0EEE93FD0EEE930ECE93FF2265
:03000000021B7070
:0C1B7000787FE4F6D8FD7581C6021BB733
:1005E700BB010689828A83E0225002E722BBFE0212
:0905F700E32289828A83E4932245
:10060000BB010CE58229F582E5833AF583E02250AF
:1006100006E92582F8E622BBFE06E92582F8E222F9
:0D062000E58229F582E5833AF583E4932213
:10062D00BB010689828A83F0225002F722BBFE01AC
:02063D00F322A6
:0E063F00C3E49FFFE49EFEE49DFDE49CFC22CC
:0C064D00E6FC08E6FD08E6FE08E6FF22D9
:10065900E493FC740193FD740293FE740393FF22E7
:0D066900E6FB08E6F908E6FA08E6CBF82201
:10067600E493F8740193F9740293FA740393FB22DA
:0C068600ECF608EDF608EEF608EFF622A0
:10069200D083D082E493F608740193F6087402932F
:0906A200F608740393F674047366
:1006AB00FAE6FB0808E6F925F0F618E6CA3AF62250
:1006BB00D083D082F8E4937012740193700DA3A3CE
:1006CB0093F8740193F5828883E4737402936860E2
:0606DB00EFA3A3A380DFE2
:101EB900EFB40A07740D121EC4740A309811A89958
:101EC900B8130CC2983098FDA899C298B811F63089
:071ED90099FDC299F5992261
:101F9100EFC394094005EF940E4003BF2003D380A3
:031FA10001C32257
:1006E100E709F60870FA8046E709F20870FA803ED9
:1006F10088828C83E709F0A370FA807EE309F6080B
:1007010070FA8076E309F20870FA806E88828C8331
:10071100E309F0A370FA806289828A83E0A3F60874
:1007210070FA805689828A83E0A3F20870FA804ABF
:1007310080D280FA80C680D4806580F280318010BA
:1007410080A680EA809A80A880DA80E280CA80311F
:1007510089828A83ECFAE493A3C8C582C8CCC58395
:10076100CCF0A3C8C582C8CCC583CC70E9800D8903
:10077100828A83E493A3F60870F9ECFAA9F0EDFB01
:100781002289828A83ECFAE0A3C8C582C8CCC583DA
:10079100CCF0A3C8C582C8CCC583CC70EA80DD8902
:1007A100828A83E493A3F20870F980CE88F0ED2465
:1007B10002B4040050C4F582EB2402B4040050BA20
:0907C100232345822390073173C4
:101B7C00021E34E493A3F8E493A34003F68001F22D
:101B8C0008DFF48029E493A3F85407240CC8C3336A
:101B9C00C4540F4420C8834004F456800146F6DF39
:101BAC00E4800B0102040810204080901FB3E47EF7
:101BBC00019360BCA3FF543F30E509541FFEE4932E
:101BCC00A360010ECF54C025E060A840B8E493A3F5
:101BDC00FAE493A3F8E493A3C8C582C8CAC583CA20
:101BEC00F0A3C8C582C8CAC583CADFE9DEE780BED8
:011FBC000024
:00000001FF
