:101359002531352E3366004552524F522100020283
:101369000000000202020200000002020202020260
:101379000002020202020200020200000000000153
:101389000302020202030202000000000003013707
:10139900383928293435362B2D3132332A2F302E3E
:0313A90064DE3DC2
:06162200010900010800AF
:041614007F647E0071
:0A161800EF1F70011E144E70F72240
:091459007F381215F07F057E00BA
:04146200AD07AC0620
:10146600E4FBFAC3EB9DEA9C501A9000007F017ED4
:1014760000121618A3E5826441458370F00BBB0089
:04148600010A80DFF8
:01148A00223F
:1015F000C2A6C2A5D2A78F807F057E00121618C290
:02160000A7221F
:10160200D2A6C2A5D2A78F807F057E00121618C26D
:02161200A7220D
:1015BB007F0112145BE508B401047BDE80027B2003
:0D15CB007D01E4FF1215D87F801215F0227B
:0812E8008B678A688969AE0773
:1012F000ED7005EE24808003EE24C0FF1215F07F10
:1013000004AB67AA68A96990000E1204E4FE643079
:101310006005EE642E70257E0EEE7C0024FFF582C3
:10132000EC34FFF583AB67AA68A9691204E48E82E6
:101330007583001205231EBE01DFDFC5AB67AA68F7
:10134000A9691204CBFF601012160274012569F519
:0813500069E43568F56880E4EA
:011358002272
:1015D800AE07AC03ED7005EE24808003EE24C0FF57
:0815E8001215F0AF0402160217
:101599001214591214591214597F381215F07F0870
:1015A9001215F07F011215F07F0612145B7F0C02F1
:0215B90015F02B
:100EF400756710120E2AEF12071E0F91000F96014C
:100F04000F9B020FA0030F8C770F787B0F647D0F6C
:100F1400507E0F87B70F73BB0F5FBD0F4BBE0F82A1
:100F2400D70F6EDB0F5ADD0F46DE0F7DE70F69EB3F
:100F34000F55ED0F41EE0FA5FF00000FA5E4F56777
:100F44008062756701805D756702805875670380EC
:100F540053756705804E7567068049756707804439
:100F6400756708803F75670A803A75670B80357529
:100F7400670C803075670D802B75670F8026756749
:100F8400108021756711801C7567128017756704BE
:100F94008012756709800D75670E80087567138068
:060FA40003756714AF673E
:010FAA002224
:100E2A0075B00FE5B0540FF9640F6037121614E964
:100E3A00640F602FE5B0540FF944F0F5B0E5B054F3
:100E4A00F0F568E5B0640F600C75B00FE50824FF93
:100E5A00B392A480EEC2A47F147E00121462E568E5
:100E6A0029FF2220A01E12161420A01820A009E58E
:100E7A000824FFB392A480F4C2A47F037E00121454
:100E8A00627F002220A11E12161420A11820A10997
:100E9A00E50824FFB392A480F4C2A47F037E001263
:100EAA0014627F012220A21E12161420A21820A268
:100EBA0009E50824FFB392A480F4C2A47F037E004C
:100ECA001214627F022220A31E12161420A31820D5
:100EDA00A309E50824FFB392A480F4C2A47F037E89
:090EEA00001214627F03227FFF55
:010EF30022DC
:1013EB008B678A688969AB6AAA6BA96CC003C00258
:1013FB00C001AB67AA68A969120646AB67AA68A9C0
:10140B0069120626C003C002C001AB67AA68A969AE
:07141B009000031206C52238
:0614DB007B007A00794A53
:1014E1008B678A688969900003120695ED120511D0
:1014F100AB67AA68A969900003A3E475F00102052E
:0115010045A4
:06148B007B007A00794AA3
:061491008B678A6889697F
:10149700900003A374FFF5F0120545AB67AA68A98E
:0B14A700699000031206951204CBFFB1
:0114B2002217
:101422008B678A688969AB6AAA6BA96CC003C00220
:10143200C001AB67AA68A969120646AB67AA68A988
:1014420069120626C003C002C001AB67AA68A96977
:071452009000031206C52201
:061550007B007A007950D7
:101556008B788A79897A9000031206951205F0AB8A
:1015660078AA79A97A900003A3E475F004020545E8
:0614B3007B007A00795075
:0614B9008B788A79897A24
:1014BF00900003A374FF75F0FC120545AB78AA7971
:0B14CF00A97A9000031206951205A0F8
:0114DA0022EF
:021057008D67A3
:10105900EF24DD602C24FB6020146021146012242D
:10106900FD600A24FE600E2404E4F98016790180EB
:10107900127902800E7903800A7904800679058045
:10108900027906E56724DD602E24FB6022146023C3
:1010990014601424FD600C24FE60102404701CE408
:1010A900FE801A7E0180167E0280127E03800E7EEB
:1010B90004800A7E0580067E068002E4FEEEFD338A
:1010C90095E0FCE9FB3395E0FA90136775F007EBBF
:1010D90012060AEA75F007A42583F583E5822DF542
:0910E90082E5833CF583E493FFEA
:0110F20022DB
:08117F008F6A8E698D688C6790
:10118700E56B24D6603624FD601D24FE60432404ED
:10119700705AAF6FAE6EAD6DAC6CAB6AAA69A968D9
:1011A700A86712000A803DAB6FAA6EA96DA86CAF45
:1011B7006AAE69AD68AC671200068028AF6FAE6E85
:1011C700AD6DAC6CAB6AAA69A968A8671200FB8011
:1011D70013AB6FAA6EA96DA86CAF6AAE69AD68ACA8
:1011E700671202048F738E728D718C70AF73AE723B
:0411F700AD71AC70BA
:0111FB0022D1
:0E13AC008F6D8E6C8D6B8C6A8B678A68896979
:1013BA001214B98F718E708D6F8C6EE4FFFE7D20D2
:1013CA007C41AB71AA70A96FA86E1200FBAB6DAA23
:1013DA006CA96BA86A12000AAB67AA68A969021508
:0113EA0056AC
:0811FC008B678A6889698D6A1E
:10120400E4F577F57675758075743FF573C3E56A13
:101214006480F8E573648098501FAF77AE76AD753F
:10122400AC747BCD7ACC79CC783D1200FB8F778E71
:10123400768D758C74057380D4AB67AA68A969121E
:1012440014B98F728E718D708C6FAF77AE76AD7569
:10125400AC74AB6EAA6DA96CA86B1200FBAB72AA3E
:1012640071A970A86F12000AAB67AA68A969021570
:011274005623
:100FAB00E4F52675A0FF7F64FE12146212159912E8
:100FBB0015BB121275AA07EA90139893FFB43D0C58
:100FCB00AE26052674272EF87623804FEFB4640BDC
:100FDB00152674272526F8763080D7EA9013989338
:100FEB00F964DE702AE50870047F0180027F008FB0
:100FFB00081509E508B401047BDE80027B207D0126
:10100B00E4FF1215D8E5092480FF1215F080A3AF79
:10101B0026052674272FF8A6018097E509C394109F
:10102B0040097F1C12145B150980F074272526F8E4
:10103B00E4F6F526F509FB7A007927120C638F2568
:0C104B008E248D238C22121502020FBD92
:101502007559FF755A13755B598F5F8E5E8D5D8CB1
:101512005C7B007A0079471208507B007A00794799
:071522007D017F010212E8C8
:060C63008B478A48894915
:100C6900E4F556F557F558F56A756B00756C7BFB1D
:100C79007A007950121422756A00756B00756CCB75
:100C89007B007A00794A1213EB7D231214DBE4F519
:100C990056AB470549E549AA4870020548020DB710
:100CA900E559B42313AB4DAA4EA94F90FFFF120487
:100CB900E464237003020E02C3E559648094B040D2
:100CC90062D3E559648094B9505974D02559F559BE
:100CD900E5577020E556AC59700BEC1202AB1215B2
:100CE900500556800FEC1202AB7B007A0079501246
:100CF90013AC0556E557B4011BAC59EC1202AB8F86
:100D09006E8E6D8D6C8C6B7B007A007950AD5612AE
:100D190011FC0556AB470549E549AA48702C054819
:100D2900020DB7E559B42E24755701E556700CFB31
:100D39007A007950FFFEFDFC121556755601AB4736
:100D49000549E549AA48700205488062AB4DAA4E9B
:100D5900A94F90FFFF1204E4FFAD59121057EF1489
:100D6900603D146053147003020DFC2403600302F8
:100D79000CA9E5567009E55964286003121576AD8A
:100D8900591214DBAB470549E549AA4870020548E1
:100D990014F91204CBF559E4F556F557020CA912CA
:100DA900148BAB470549E549AA487002054814F96F
:100DB9001204CBF559020CA912148B8F5A1214B3D1
:100DC9008F628E618D608C5F1214B38F5E8E5D8D24
:100DD9005C8C5B855A6B85626F85616E85606D85FC
:100DE9005F6C12117F8F668E658D648C631215504E
:100DF900020CA9121576020CA9AB47AA48A94912F7
:100E090004CB6010E4120511042549F549E435487D
:100E1900F54880E5AB53AA54A95590FFFC1205C0CB
:010E290022A6
:101275007547140509E547B41414120EF48F47E5B4
:1012850009B401F1E547B411EC75471480E7E509A8
:10129500B401031215BBE509C3941040057F18126C
:1012A50015F0E509B42103121576E547B41121E5DA
:1012B5000924FEFF7B20E4FD1215D87F027E001273
:1012C5001462E509247EFF1215F015091509801031
:1012D500E5476412600AE54790139893FF121602DA
:0212E500AF4711
:0112E70022E4
:101576001215BB7BFF7A1379607D017F041212E896
:101586007B217F0A1215D8120EF4EF641460F875E9
:03159600E7202229
:10000300020314E86480F8E933E83360110460F014
:10001300ED33EC337009E8FCE9FDEAFEEBFF220463
:1000230060DED3EB9FEA9EE99DE8C2E78CF0C2F75E
:1000330095F0400CE8CCF8E9CDF9EACEFAEBCFFB2A
:100043001202DF85D0F05804700320D5B3E80470A2
:10005300075002B2D502031E92D5EC0460F7E4CC3C
:10006300C0E0C398F8603B94186008400DD0E0FBF3
:100073000202F6E4FBFAC9FC8028E830E406E4C98E
:10008300FBE4CAFCE830E305E4C9CACBFCE8540747
:100093006010F8C3E913F9EA13FAEB13FBEC13FC52
:1000A300D8F130F52FC3E49CFCEF9BFFEE9AFEEDF5
:1000B30099FDD0E0FBEF4E4D4C701222DB0302039F
:1000C3001BEC2CFCEF33FFEE33FEED33FDED30E79D
:1000D300EB0202F6EF2BFFEE3AFEED39FDD0E0FB2B
:1000E30050130BBB000302031EED13FDEE13FEEFD3
:0800F30013FFEC13FC0202F6FE
:1000FB00EC4D6011E8497017ED33EC3304600DE4FF
:10010B00FCFFFEFD22E933E8330470F802031412FE
:10011B0002DF58046009E4CC248150062850090200
:10012B00031E28400302031BC0E0EB4A7044B98056
:10013B0006D0E0FB02030AEF4E701CBD8008EBFFFC
:10014B00EAFEE9FD80EBE98DF0A4FEE5F00201E4A7
:10015B00E9CDF9EAFEEBFFEF89F0A4FCE5F0CE89DF
:10016B00F0A42EFFE435F0CD89F0A42DFEE435F09C
:10017B008067EF4E7005BD80D780C3EF8BF0A4ACCA
:10018B00F0EE8BF0A42CFCE435F0F8EF8AF0A42C05
:10019B00E5F038FCE433CB8DF0A42CFCE5F03BF818
:1001AB00EE8AF0A42CFCE5F038F8E433CF89F0A408
:1001BB002CFCE5F038CF3400CE89F0A42FFFE5F00E
:1001CB003EFEE433C98DF0A42EFEE5F039CD8AF066
:1001DB00A42FFFE5F03EFEE43DFD33D0E0FB5007DE
:1001EB000BBB000F02031EEC2CFCEF33FFEE33FEB8
:0601FB00ED33FD0202F6E7
:1002010002031EEC5D046005E85904700302031447
:100211001202DF580460F6EC4860F2EC7004FDFE57
:10022100FF22C860DB2481C85009C39860025006D0
:1002310002031B9850CAF582E9294B4A7005AB822B
:1002410002030A75F0007C1A7880C3EF9BEE9AEDE9
:1002510099400DC3EF9BFFEE9AFEED99FDE842F048
:10026100DC23ACF0D0E0FFD0E0FED0E0FDAB82209B
:10027100E7101BEB60BAEC2CFCEF33FFEE33FEED25
:1002810033FD0202F6E803F830E705C0F075F0002F
:10029100EF2FFFEE33FEED33FD40B830E7C280AA09
:1002A10075F020800E75F010800575F0087D007ED8
:1002B100007F003392D530D503120592EC33401004
:1002C100EF33FFEE33FEED33FDEC33FCD5F0ED22E1
:0E02D100E5F0247EA2D513CC92E7CDCEFF221D
:1007F400E56D2459F8E6056D2278563007027859DC
:10080400E475F0011206160204CB2000EB7F2ED211
:10081400008018EF540F2490D43440D4FF30040BDC
:10082400EF24BFB41A0050032461FFE56E60021583
:100834006E0571E5717002057030070D7856E47528
:10084400F001120616EF0205110215297403D207EE
:100854008003E4C207F56D8B568A578958E4F56E18
:10086400F570F571E56E60077F2012082F80F5752D
:100874006FFFC201C200C202C203C205C206C2089F
:100884001207FDFF700D3007057F00120840AF719D
:10089400AE7022B4255FC2D5C2041207FDFF24D076
:1008A400B40A00501A75F00A786E30D50508B6FF00
:1008B4000106C6A426F620D5047002D20380D924EA
:1008C400CFB41A00EF5004C2E5D204020B2DD201BA
:1008D40080C6D20080C0D20280BCD2D580BAD205F4
:1008E40080B47F2012082F2002077401B56E0040E7
:1008F400F11207F4FF12082F020868D208D206800A
:10090400951207F4FB1207F4FA1207F4F94A4B7034
:100914000679247A0C7BFF20022EE56E602A7E0085
:100924008E827583001204E460060EEE656F70F02B
:10093400C2D5EBC0E0EAC0E0E9C0E0EE120B8DD016
:10094400E0F9D0E0FAD0E0FB1204CBFF60AAEBC0E0
:10095400E0EAC0E0E9C0E012082FD0E02401F9D0B9
:10096400E03400FAD0E0FBE56F0460DCD56FD98099
:1009740087D20280A2120B7060F7E56F7001041237
:100984000329A96F600DE56F600914F56F120C1748
:10099400EF60F3EA30E702F404C3995077EAF425F0
:1009A4006F0430E701E404F56F800D120B7060C131
:1009B400EA056F256F120329EA786CF630E701E443
:1009C400256F04D56F0420050114120B8DE4C0E0DB
:1009D400120C17786CE6601320E70714F612081758
:1009E400802204F6D0E014C0E07F00120817E56FFF
:1009F400600712080E156F800B30050312080ED025
:100A0400E0020868D0E00480C5120B7060A0E56FB6
:100A140004120329786CEAF6E56F200502600104EC
:050A24002404120B8DFB
:100A290074FF04C0E0120C17120817E56F200502C5
:100A3900600312080ED0E0B56FE87F4512082178EF
:100A49006CE67F2B30E7047F2DF404C0E012082FF9
:100A5900D0E075F00A84C0F0120818D0E012081826
:100A6900020868791080027908C206C2088008D293
:100A7900D5790A8004790AC2D5E56F047002F56F49
:100A8900E4FAFDFEFF1207F4FC7B082001131207AC
:100A9900F4FD7B1030000A1207F4FE1207F4FF7B05
:100AA90020EC3382D592D55013C3E43000069FFF62
:100AB900E49EFEE42001039DFDE49CFCE4CBF8C226
:100AC90001EC700CCFCECDCCE824F8F870F3801788
:100AD900C3EF33FFEE33FEED33FDEC33FCEB33FBB9
:100AE900994002FB0FD8E9EB300105F8D0E0C44882
:100AF900B201C0E00AEC4D4E4F78207B0070C2EA8B
:100B0900B56F0040BCC0E0120B8FD0F0D0E02001DF
:100B190004C4C0E0C4B201C0F0120818D0F0D5F086
:100B2900EB02086812071E0905530A6C5808D64CCF
:100B390008D2420A704F0A78440A784908EB430AF6
:100B49007E5509AF460A0D450979470C445008DA24
:100B59002D08DE2E09012B08E22308FF200C2D2A7F
:100B6900089A48000008F9E56FB4FF03756F06128B
:100B790007F4FC1207F4FD1207F4FE1207F4FF78DC
:100B890065020358790AA2D5200314300509B91062
:100B9900020404B9080104A2D52006025001042068
:100BA90002689202B56E005034C0E07F203003190C
:100BB9007F30A20272067205500F120BE6C202C202
:100BC90006C205C2087F30800F300503E9C0E01274
:100BD900082F300503D0E0F9D0E0B56ECC30051709
:100BE9007F30B9100C12082F7F583004077F7880A6
:100BF90003B9080312082F3002057F2D02082F7F41
:100C0900202008F87F2B2006F322920280CF7F0054
:100C1900B4070050052465F8E6FF22286E756C6C50
:100C29002900D2011207F43001F8C201786E30D5DB
:100C39000108F602089A2D504349581207F4240373
:100C4900B405004001E4900C3F93120820743A1255
:0A0C59000820D203756E04020A6C35
:1002DF00E9D2E7C933E833F892D5EDD2E7CD33EC65
:0702EF0033FC5002B2D522DE
:1002F600EC30E7100FBF000C0EBE00080DBD000469
:100306000BEB6014A2D5EB13FCED92E7FD2274FF14
:10031600FCFDFEFF22E480F8A2D574FF13FC7D806D
:03032600E480EF81
:10032900F920E72824F950037907E4F42402FB189B
:10033900DBFDE624FB5014E9600DE4F618E604F64B
:0F034900B40A08E4F6D9F57401F60A22C2D522E7
:10035800ED33EC3392D5FA602AB4FF33EDC2E77B74
:10036800FF60067A03797DE4227A03798620D50432
:100378007A037981224E614E002B494E46002D4961
:100388004E4600E47A08F608DAFC7B00740722E897
:10039800C0E0ECC0E0EDC0E0EEC0E0EFC0E0EA7520
:1003A800F010A4CAABF075F04DA42BFBE435F0FCBB
:1003B800EA2410FAEB34C5FBEC34D9FCEDC2E7FFB4
:1003C80075F056A4F42411C5F0F434C58FF0A42AAE
:1003D800E5F03BE43CF620E71412048BD0E0FFD0B4
:1003E800E0FED0E0FDD0E0FC1202048014F4041218
:1003F800048BD0E0FFD0E0FED0E0FDD0E0FC12009E
:10040800FBD0E0F8E6FAEDD2E7CD33EC332482FBFB
:10041800E4C3CF33CFCE33CECD33CD33DBF37B073D
:1004280075F00A846004F6081B0AE5F0F6088FF0F8
:10043800740AA4FFACF08EF0740AA42CFEACF05041
:10044800010C8DF0740AA42CFDE435F0F608DBDE0F
:0304580074072204
:10045B003F8000004120000042C80000447A0000A9
:10046B00461C400047C35000497424004B1896802B
:10047B004CBEBC205A0E1BCA6753C21C749DC5AE22
:10048B00FB60065407601C23231204B9EB5438603D
:10049B00091204A51204B41200FBECF8EDF9EEFA04
:1004AB00EFCB22EB1204B480F1543803241C9004DC
:1004BB005BFE93FC0EEE93FD0EEE930ECE93FF229E
:030000000210F3F8
:0C10F300787FE4F6D8FD7581DE02113A2A
:1004CB00BB010689828A83E0225002E722BBFE022F
:0904DB00E32289828A83E4932262
:1004E400BB010CE58229F582E5833AF583E02250CD
:1004F40006E92582F8E622BBFE06E92582F8E22217
:0D050400E58229F582E5833AF583E4932230
:10051100BB010689828A83F0225002F722BBFE01C9
:02052100F322C3
:10052300F8BB010DE58229F582E5833AF583E8F00E
:10053300225006E92582C8F622BBFE05E92582C8BA
:02054300F222A2
:10054500BB010DC58229C582C5833AC5830207440F
:100555005011C58229F808E5F026F618F5F0E58270
:1005650036F622BBFE11C58229F808E225F0F5F022
:10057500F218E23582F222F8E58229F582E5832A2E
:0D058500F58374019325F0F5F0E49338221E
:0E059200C3E49FFFE49EFEE49DFDE49CFC227A
:1005A000BB010789828A830207665005E9F80207C2
:1005B0005ABBFE05E9F802077289828A8302077E28
:1005C000BB010DE58229F582E5833AF583020766D2
:1005D0005007E92582F802075ABBFE07E92582F891
:1005E000020772E58229F582E5833AF58302077EE8
:1005F000BB010789828A8302079A5005E9F802073E
:0A0600008EBBFE05E9F80207A622F2
:0C060A00A42582F582E5F03583F58322FB
:10061600FAE6FB0808E6F925F0F618E6CA3AF622E5
:10062600BB010789828A830207C45005E9F80207DD
:10063600B2BBFE05E9F80207D689828A830207E87B
:10064600BB011A89828A83D0F0D0E0F8D0E0F9D0D5
:10065600E0FAD0E0FBE8C0E0C0F00207CD5016E9B2
:10066600F8D083D082D0E0F9D0E0FAD0E0FBC082A7
:10067600C0830207BBBBFE16E9F8D083D082D0E068
:0F068600F9D0E0FAD0E0FBC082C0830207DF2288
:10069500BB010DE58229F582E5833AF5830207C49E
:1006A5005007E92582F80207B2BBFE07E92582F863
:1006B5000207D6E58229F582E5833AF5830207E844
:1006C500BB0120E58229F582E5833AF583D0F0D098
:1006D500E0F8D0E0F9D0E0FAD0E0FBE8C0E0C0F007
:1006E5000207CD5018E92582F8D083D082D0E0F9F1
:1006F500D0E0FAD0E0FBC082C0830207BBBBFE1886
:10070500E92582F8D083D082D0E0F9D0E0FAD0E0B4
:09071500FBC082C0830207DF2251
:10071E00D083D082F8E4937012740193700DA3A36A
:10072E0093F8740193F5828883E47374029368607E
:06073E00EFA3A3A380DF7E
:10152900EFB40A07740D121534740A309811A8998A
:10153900B8130CC2983098FDA899C298B811F63022
:0715490099FDC299F59922FA
:1010FF00020FABE493A3F8E493A34003F68001F24D
:10110F0008DFF48029E493A3F85407240CC8C333F1
:10111F00C4540F4420C8834004F456800146F6DFC0
:10112F00E4800B0102040810204080901622E47E18
:10113F00019360BCA3FF543F30E509541FFEE493B5
:10114F00A360010ECF54C025E060A840B8E493A37C
:10115F00FAE493A3F8E493A3C8C582C8CAC583CAA7
:10116F00F0A3C8C582C8CAC583CADFE9DEE780BE5F
:0116280000C1
:10074400C5F0F8A3E028F0C5F0F8E5821582700240
:060754001583E038F022DD
:0C075A00E6FC08E6FD08E6FE08E6FF22CB
:0C076600E0FCA3E0FDA3E0FEA3E0FF2206
:0C077200E2FC08E2FD08E2FE08E2FF22C3
:10077E00E493FC740193FD740293FE740393FF22C1
:0C078E00ECF608EDF608EEF608EFF62297
:0C079A00ECF0A3EDF0A3EEF0A3EFF022D2
:0C07A600ECF208EDF208EEF208EFF2228F
:0907B200E6FB08E6FA08E6F9226C
:0907BB00EBF608EAF608E9F62263
:0907C400E0FBA3E0FAA3E0F92236
:0907CD00EBF0A3EAF0A3E9F0222D
:0907D600E2FB08E2FA08E2F92254
:0907DF00EBF208EAF208E9F2224B
:0C07E800E493FB740193FA740293F9226D
:00000001FF
