:0239C0000022E3
:0D3907000000000000000000000000002291
:053993007F0302398CE6
:053998007F0902398CDB
:05399D007F1402398CCB
:0539A2007F3502398CA5
:070003007F537E0002391457
:073962007FA87E000239146A
:073969007FA77E0102391463
:073970007F507E03023914B1
:073977007FA37E0602391454
:07397E007F9B7E100239144B
:073985007F397E2102391495
:0539A7007F140238B49A
:0539AC007F320238B477
:0539B1007F640238B440
:0539B6007FC80238B4D7
:0B3920007F007E007D007C3F023758D6
:0B392B007F007E007D807C3F0237584B
:0B3936007F007E007D007C40023758BF
:0B3941007F007E007DA07C4002375814
:0B394C007F007E007D207C4102375888
:06398C00EF60031F80FA4A
:013992002212
:0B391400EF4E6007EF1F70F81E80F5FB
:01391F002285
:1038B400900020EFF0900020E0600B12397090002F
:0638C40020E014F080EF8B
:0138CA0022DB
:063758009000EB12230AB1
:10375E00E4FFFE7DC87C429000EBE0F8A3E0F9A305
:10376E00E0FAA3E0FB12201F1221259000EFEEF0ED
:10377E00A3EFF09000EF74FFF5F01221B845F06062
:06378E000512398580EDF3
:013794002212
:10371700E4F593F59475914C7592B0F5957596FF10
:1037270075B14575B28275BB70F5B3F5B4D2A4C255
:10373700A4F580F590C2A0C2A1C2A2C2A3C2B7C21B
:10374700A5D2A6C2A7D2A47580FFC2A4F580F59022
:01375700224F
:10000E0004218210821082108210821061088210E8
:10001E008210821082108210821082108210821042
:10002E008210821082108210821082108210821032
:10003E00A11061082210442023202010000122125A
:10004E00821B042BC000821062108110821082105D
:10005E008210821082108210821082108210821002
:10006E008210042182100000000000000000000039
:10007E000000000000000000000000000000000072
:10008E000000000000000000000000000000000062
:10009E000000000000002000000800004000A00941
:1000AE004323E42B232C442B80000000000000008F
:1000BE000000000000000000000000000000000032
:1000CE0000000000000082108210000000000000FE
:1000DE000000000000000000000000000000000012
:1000EE000000000000000000000000000000000002
:1000FE0000000000000000000000000020000001D1
:10010E002213C52C4535022D2224E21A6000000070
:10011E0000000000000000000000000000000000D1
:10012E00000000000000000000008210821000009D
:10013E0000000000000000000000000000000000B1
:10014E0000000000000000000000000000000000A1
:10015E000000000000000000000000000100000090
:10016E0040010634E84D063EA32D6225221CA11245
:10017E0060000000000000002000200000000000D1
:10018E0000000000000000000000000000008210CF
:10019E0082100000000000000000000000000000BF
:1001AE000000000000000000000000000000000041
:1001BE000000000000000000000000000000000031
:1001CE000000A000C73B2C66E7458435842D222510
:1001DE00C223200A400001000000000000000000C1
:1001EE000000000000000000000000000000000001
:1001FE0000008210821000000000000000000000CD
:10020E0000000000000000000000000000000000E0
:10021E0000000000000000000000000000000000D0
:10022E000000000040000633CC654B5EA745C64D6E
:10023E00863DC31C23234001000000000000000087
:10024E0000000000000000000000000000000000A0
:10025E000000000000008210610800000000000095
:10026E000000000000000000000000000000000080
:10027E000000000000000000000000000000000070
:10028E00000000000000000060010A5D6C6E09565F
:10029E004856074E453D631C021A800000000000C0
:1002AE000000000000000000000000000000000040
:1002BE000000000000000000000061088210000035
:1002CE000000000000000000000000000000000020
:1002DE000000000000000000000000000000000010
:1002EE000000000000000000000000008002084D29
:1002FE00C9654866674E8435042DC00BA00000000A
:10030E0000000100000020000000000800000000B6
:10031E00000000000000000000000000000082103D
:10032E006108000000000000000000000000000056
:10033E000000000020002100000000000000000866
:10034E00200020002000000000000000000000003F
:10035E00A11AA53CC53D032E243644356223A009BF
:10036E0000000000000000002000400020002000DF
:10037E002000000000000000000000000000200827
:10038E000000821061080000000000000000000064
:10039E0000000000000000002000000000004108E6
:1003AE00000800080010000800080000000000000F
:1003BE0001000200A002421C242D242D8424031BC4
:1003CE0041090000000000000000000000000000D5
:1003DE0000000108200000000000000000000000E6
:1003EE000000000000008210610800000000000004
:1003FE0000000000000000000000000000000000EF
:10040E000000000020004000000800000000200056
:10041E002000000000080008A00A431B4423C31A52
:10042E00C10980000000020820002000600060006A
:10043E00400000000000010000000000000000006D
:10044E00000000000000000000008210821000007A
:10045E00000000000000000000000000000000008E
:10046E0020002000A000E211472B293CA84C073C9D
:10047E00031BE001E0002000000800108421431956
:10048E00C110400040002000C0008211E31A231B5F
:10049E0063236323021B410A400180000000000019
:1004AE00000001000100000000002000000082108A
:1004BE00821000000000000000000000000000009C
:1004CE00620820006000431AAA544F7EF086CF7E49
:1004DE00CD6EED6E8C66EA55C83C6423E109E000F2
:1004EE00400020002000A000C011C11AA21B6224EF
:1004FE00621CA21C0225232503258324C21B411343
:10050E00000960000000000001080100000000006A
:10051E0000008210821000000000000000000000A9
:10052E000000000000002109873B2E76308FEE86FA
:10053E00CE96EFA6B09EB09EAE8E6B76095EA745A8
:10054E00032D6114E323C323042C04244324C32466
:10055E00021D821D8435A435A435832D4225C21C6F
:10056E00821C62240323C009600000000000010009
:10057E000000000000008210821000000000000049
:10058E000000000000000000C000C6530D8ECFA674
:10059E000FAF30C752DF53E774EF73EF52E730CF30
:1005AE00EEB6AC96086645456335432D842D442D35
:1005BE0044258535A63D274EC745E74D074EC64512
:1005CE00653DE32C8224411C642C621BC00180001B
:1005DE0000000000000000000000821082100000E9
:1005EE00000000000000000000002000A54CCE9E80
:1005FE0091CF71E793FF54FF35FF76FF97FF76FF9C
:10060E0055FF33FF52FF51F70ED76BB64866A5451F
:10061E00843D8535C745E955A95DA95D295E295EED
:10062E00E955C85586452435A224411C601423245F
:10063E0044238111400000000000000000008210E1
:10064E006318000020000008010021000000429CF9
:10065E000DFF2EFF50FF53FF74FF76FF97FF97FF9E
:10066E0097FF97FF75FF53FF51FF4EFF2CFF0AFFB9
:10067E000AE767BEC585A55DE74D294E2A564B5E36
:10068E000C6E2A66695E2956A93D683567352114B8
:10069E00A00BA323641AC20000000000000000009B
:1006AE0000008210831800002000000801000000E6
:1006BE008462CAF60CFF2DFF30FF52FF54FF76FF07
:1006CE0097FFB8FF97FF97FF75FF53FF51FF4FFF3F
:1006DE000DFFCBFEE8FEC8FEA9E6AACEAAB66A9E1C
:1006EE006B866B7ECE7EAC6E4A5E0856084E075603
:1006FE002235C02CA65440128000000000000000DD
:10070E000000200000008210821020000000000077
:10071E0000082010C6B44AFF2BFF2DFF4FFF51FFDC
:10072E0073FF95FF96FFB7FFB7FFB6FF75FF53FF39
:10073E0031FF0FFF0DFFCBFEC6FEC6FEC8FEEAFE62
:10074E00ECFE0DF70EEF2FE70FD70FD78CCE6ACE3C
:10075E0068CEA8D6E4BD67CE6A7C001900000108F9
:10076E000008000000000000000082106208000077
:10077E00010000000008804166E6E6FE2BFF2CFF1C
:10078E004EFF71FF73FF74FF75FF76FFB6FF95FF87
:10079E0053FF32FF2FFF2DFF0BFFE9FEE6FEC6FED5
:1007AE00A6FEA7FEC9FEECFE0DFF0EFF2FFF4FFFAC
:1007BE000DFF0BFFA7FEA6FEEAFE6BF64131000809
:1007CE000008010800000000000000000000821078
:1007DE0062100000010020000000437327FF07FF96
:1007EE002CFF2DFF2FFF51FF53FF55FF55FF76FFB7
:1007FE0054FF54FF53FF51FF4FFF2CFF0AFF08F722
:10080E00A7F6A7FEC7FEC8F6C9F6EAF60CFF2DFF3F
:10081E004FF70EF7EBF609FFC7F6CAEE93FFA98363
:10082E000008000022080100000000000000000087
:10083E000000821082102008000020000000A7B4E3
:10084E0009FFC9FEADFE8DFE6EFE4FFE30FE31FE7F
:10085E0052FE52FE11F610F6F0FD0EFE2DFE6BFE50
:10086E00AAFE0AFFEAF6EAFEC9FEC8FEC9FE0AFFA4
:10087E002CFF4CFFECFECBFEC9FE09FF0BFF92FFD7
:10088E0058F704290000410001000000200020005C
:10089E00000001000000821062080000000001004C
:1008AE00802007E5A9FD49FD89F489F46AF4ACF4CA
:1008BE00CDF42FFD4FFD70FD50FD0FFDCDFC6CFCFA
:1008CE004AF448F4A8F429FDACFECBFECAFEC8FEDD
:1008DE00C8FEC8FEC9FEA9FEE9FEE8FEE7FE0AFF55
:1008EE002FF7F8FFB4B50000000000000000000074
:1008FE00000020000000010000008210A20800008D
:10090E00000002006030A2D345F346F388FBA9FB3A
:10091E00CAFB2CFC6EFCAFFCEFFCEFFCCFFCAFFC7B
:10092E006EFC0DFCCBFB8AFBA9FB0AFC46F448FDD2
:10093E0069FE09FF28F708F7E8FEC9FEC9FEA8FE02
:10094E00A8FEEEFE35FFFDFF508C200000000000DB
:10095E0021080000000020080000010000008210A5
:10096E006110200000000000603824EAC5FA07FB81
:10097E0067FB88FBC9FB0AFC2BFC6CFC8CFC8DFC1A
:10098E00ACFC8CFC4BFC2BFC2BFC2BFC2BFC2BFC1F
:10099E000CFC0BFC4AFCAAFC2AFDAAFD2AFE6AFEF0
:1009AE0068FE87FE68FE0FFF98FFFEFF8D6B20002E
:1009BE000000000000000000000001000000200008
:1009CE00000082106210200000000000603023EA58
:1009DE00A4FAE6FA26FB67FB88FBC9FB0AFC2BFC94
:1009EE004BFC6CFC6CFC4BFC2BFC2BFC2BFC4CFCDE
:1009FE006CFC6CFC6DFC4CFC2BFC2AF429F428ECF2
:100A0E0047EC26EC66F465F485ECACF557FFDDF7A4
:100A1E002C6B000800000000000000000000000029
:100A2E0000000000000082106218000000000000AC
:100A3E00603023DA83FAA4FAC5FAE5FA26FB67FBDF
:100A4E00A8FBC9FB0AFC2BFC4BFC4BFC4CFC4CFCE6
:100A5E008DFCADFCCDFCCDFC8DFC8DFC6CFC4CFC02
:100A6E000BFCEAFBC9FBA9FB69FB27FB05EBCCFCE6
:100A7E0017FF9CFF4D7B00180000000000000000D7
:100A8E00000000000000000000008210621800004C
:100A9E0000000000602802D262FA63FAA5FAE5FAB5
:100AAE0006FB47FB88FBC9FB0AFC2BFC2CFC4CFC11
:100ABE006CFC8DFCCEFCEEFC0EFD0EFDEEFCCEFCB9
:100ACE00ADFC8DFC4CFC2CFCEBFBCBFB4AFB28FB62
:100ADE00C5F20AFCB3FD3BFFD2AC000000000000E3
:100AEE000000000000000000000000000000821066
:100AFE0062100008000001004018C2B922FA02FA82
:100B0E0044FA64FA85FAC6FA27FB68FBA9FBEAFBEE
:100B1E000BFC2CFC6DFCAEFCCEFC0FFD0FFD30FD76
:100B2E002FFD0FFDEEFCADFC8CFC4BFC0AFCE9FB33
:100B3E0068FBC8FB04F3E5FA29F3D5FD37E6C100DF
:100B4E00000000000000000000000000000001088E
:100B5E000000821082080008000001002010409161
:100B6E00C2F9A2F982F9A2F9E3F944FA86FAE7FA90
:100B7E0028FB69FBABFBEBFB2CFC8EFCCFFCEFFCEC
:100B8E0010FD10FD50FD2FFD0FFDEEFCCDFCABFC5E
:100B9E008AFC6AFC08FCE7FB44F3C4FAC2E9ABFB2F
:100BAE0056FECB7B0000000020000000000000007D
:100BBE0000000000000082108208001000000200F9
:100BCE000000A07842F121F141F962F9C3F904FA6B
:100BDE0066FAC7FA08FB49FBABFBCBFB2DFC6EFCA0
:100BEE00AEFCCFFCD0FCF0FC10FDF0FCEFFCCEFC1C
:100BFE00CDFC8CFC6BFC4AF40AFC87F346F325FB18
:100C0E0043FA44EA6DFC92FD24390008000000000E
:100C1E00000020000000000000008210A20800105A
:100C2E00000002000000406002E901E901F942F90A
:100C3E0083F9E4F946FAA7FA09FB29FBCBFBECFB97
:100C4E004DFC6EFC8FFCAFFCB0FCD0FCB0FCB0FCDD
:100C5E00AFFCAFFC8EFC6DFC2CFC0BFCABFB69FB04
:100C6E0068FBE5F2C4FAC1E1E2D1CBFBF09B822036
:100C7E000000200000002000000020000000821074
:100C8E00A3080000000000000000202042A9E0F8A8
:100C9E0020E941F9A2F9C3F904FAA7FAE9FA0AFB25
:100CAE00CBFBECFB2DFC6EFCAFFCD0FCD0FCD0FCE7
:100CBE00B0FCB0FC8FFC6EFC2DFCECFB8BFB6AFBDE
:100CCE0048F307F3A5FA44FAE3F982E921D9E0C81B
:100CDE00C3E9A3A960400000210021000000000824
:100CEE0000008210A30800000000000000000018A1
:100CFE00C18801E121E941F182F9C3F924FAA7FA89
:100D0E00E8FA09FBAAFBCBFB0CFC4EFC8EFCAFFCFD
:100D1E00B0FCB0FCB0FC8FFC6FFC2DFCECFBABFB15
:100D2E0049FB09FBC7FA85FA24FAC3F982F942F1A5
:100D3E00E1E0C0D0C0B022B9E288603820100008CF
:100D4E000000000000008210821000000000000071
:100D5E0000000008606023C120E121F162F9A2F9D0
:100D6E0023FA85FAA6FAE7FA49FB8AFBCBFB0CFCC1
:100D7E002DFC4EFC6EFC6EFC8FFC6FFC4DFC0CFCD7
:100D8E00EBFB8AFB29FB08FB87FA45FAC3F962F9EC
:100D9E0042F921F1E1E0C1D0C0A8E1B002B1029167
:100DAE00A150201800000100000082106210000007
:100DBE0000000000210000000030249123D123E127
:100DCE0064F1A5F905FA66F287F2C8FA09FB29FB68
:100DDE008AFBABFBECFB0CFC0CFC0CFC2DFC0DFCA9
:100DEE00ECFBCBFB8AFB48FB07FBC7FA86FA45FAFE
:100DFE00E3F982F941F121E101C9E1B801A9609855
:100E0E0040A0A198A15840100000010000008210DF
:100E1E008210000000000000210000000010E458C5
:100E2E0048A18AB98AD1EAE14BE26CDA8CDAEDEAB2
:100E3E00EDF22DF36DF3ADF3CDF3CDF3EDF3EDFB5D
:100E4E00ACFBABFB8AFB6AFB28FBE7FAA6FA65FA5A
:100E5E0044FA03FAC2F981F940E920D900C1E0B0A1
:100E6E00E09020902088816060200000000000004B
:100E7E000000821083180000000000000000010036
:100E8E00000062282979ABA1ACC1ECD12EDA6EDA62
:100E9E008FDAB0E2F0E231E371E391E3B1E3D0E354
:100EAE00D0E3D0EB8DFB6DFB4CF32BF3EAF2A8FAFB
:100EBE0067FA26F2C3F9A2F961F941F920E9E0D007
:100ECE00E0B0C0A0C080A178C368823820002000A6
:100EDE0000000008000082106318000000000000EF
:100EEE000000200000002108A4586889AAB1ABC9EF
:100EFE000CDA0DDA4EDA4FE2B0DAF0DA31DB51DB32
:100F0E0071DB71DB72E372E370EB50EB4FE32EEBB0
:100F1E00EDEAACEA4BEA2AEAC7E9A6E965E944E15B
:100F2E0024C9E3B0E390C380A370C358E3404120CB
:100F3E000000200020000008000082104210000077
:100F4E00000020080000200020000000213046692B
:100F5E0068998AB1EBC9ECC90DD20EDA6DDA8DDA69
:100F6E00CEDAEFDA10DB10DB11E311E332D331D33B
:100F7E0011D3F0D2CFDA8EDA4DE22CE22CD2EBD1B5
:100F8E00AAC989C148A9288908690859C650E650D6
:100F9E00C4380008000000080100010000008210A3
:100FAE0082100000000000000000000000000000A1
:100FBE000100C440868966A189B9ECC9CCC92DDA75
:100FCE004ECA2ED22ED24EDA8EDAAEDACDDAEDD27D
:100FDE008DDA8EDA8EE26EE24DDA0CDAEBD9EBD9DF
:100FEE00EBC9CAB9CAB1689927812679A468C568C0
:100FFE002659A44001180000000000000000000067
:10100E0000008210821000000000000000000000AE
:10101E0000000000200021100751AA818991AAB179
:10102E00AAC98BD90AE20BE20BE2ECE1ECE1EDD9B5
:10103E00EED90FD22DDA0DDA0DD20DD20ED20ED28E
:10104E00EDC9CCC1ECC18BB16A990881E6682669FD
:10105E000559C450E5486228001000000000000049
:10106E00000000000000821082100000000000004E
:10107E000000000000000000000001008818CE41B2
:10108E00CF410F5A10721192CEB9CDC1EDC9ECD12C
:10109E00EBD1CAD1AAD1AAD1ACC1ABC18BB9ABC16C
:1010AE00ABC1CBC1CBC1ABC169B9E7A00799078969
:1010BE00C5688458A350E458A33001100000000006
:1010CE0020000000000000000000821082100000CE
:1010DE0000000000000000000000000000080008F2
:1010EE0003000A011212B71A77127722982A973A3A
:1010FE00B74AB65A946A527A107ACF81CB896881F0
:10110E00E67806816791A8A188A968A1888948799F
:10111E000769C758E75048512751A53841100000BC
:10112E0000000000200000000000000000008210FF
:10113E00821000000000000000000000000000000F
:10114E000000400800000100E900120A560A781259
:10115E00981298129912790A780A770A760A960ADC
:10116E00CF09CF11CF11AF198F199021D231133A68
:10117E00CE29CE29AE218E218D216B19E810450086
:10118E000000000000000000000000000000000051
:10119E00000082108210000000000000000000001D
:1011AE00000000006000600000000000A208EA21BC
:1011BE00512AB211530A541255123512341A932A67
:1011CE00144B945BB584F68C178D957473537132F2
:1011DE00D121B219F311F309D209F211CF198B11E2
:1011EE00E6082100000020002000000000000000A2
:1011FE0000000000000082108210000000000000BD
:10120E0000000000000000004000000000006531FA
:10121E0050843495536C6E3AD111D111111A722A31
:10122E00D13A7153F06B307C8E736D6B6C6BCE73E9
:10123E001174D16BD04AED296C116D196D19AD2158
:10124E00F052B594508463290000000000000000A5
:10125E00000000000000000000008210821000005C
:10126E000000000000000000000000000000000070
:10127E0000008631359D97A5D394308CCF7BAF730C
:10128E00B06BF1735284718C0F84AD7B8F6B8F6357
:10129E00AE63ED6B2E744F7C307C1174CE638E5B1F
:1012AE00D063537CD58C97A5D28CA4292000000046
:1012BE00000000000000000000000000000082108E
:1012CE0061080000000000000000000000000000A7
:1012DE0000000000000000008208A631AA522C6314
:1012EE006D6B8E6B6D6B4D632C630C5B2C636D6B3A
:1012FE008E6B8E6B6E6B6D6B4D632C632C632C63E0
:10130E008E6BAE736E6B0C636A4A652961080000C2
:10131E0000000000000000000000000000000000BF
:10132E000000610804218210821082108210821047
:10133E00821082108210821082108108610861086A
:10134E006108820882088208820861088208820881
:10135E006108820882088208820882088208620870
:10136E008208820882088208620862088210620877
:10137E0061088210821082108210821082108210F8
:10138E00821082108210E31800000000000000009E
:10139E0000000000000000000000001010101010EF
:1013AE00101000001818000000123624480000002B
:1013BE000000000000000000000000242424FE486D
:1013CE004848FE4848480000000010385454503039
:1013DE00181414545438101000000044A4A8A8A8DF
:1013EE00541A2A2A2A440000000000304848485067
:1013FE006EA494888976000000606020C000000012
:10140E000000000000000000000204080810101088
:10141E0010101008080402000040201010080808E0
:10142E000808081010204000000000001010D638E8
:10143E0038D6101000000000000000001010101030
:10144E00FE10101010000000000000000000000050
:10145E0000000000606020C00000000000000000DE
:10146E007F000000000000000000000000000000EF
:10147E000000000060600000000001020204040889
:10148E000810102020404000000000182442424264
:10149E00424242422418000000000010701010104A
:1014AE0010101010107C00000000003C424242045C
:1014BE0004081020427E00000000003C4242041846
:1014CE000402024244380000000000040C142424DC
:1014DE0044447E04041E00000000007E404040583C
:1014EE0064020242443800000000001C24404058B0
:1014FE0064424242241800000000007E4444080862
:10150E0010101010101000000000003C4242422447
:10151E0018244242423C000000000018244242427D
:10152E00261A0202243800000000000000001818DD
:10153E00000000001818000000000000000000105D
:10154E00000000000010102000000002040810200F
:10155E004020100804020000000000000000FE0001
:10156E000000FE00000000000000004020100804F3
:10157E0002040810204000000000003C42426202BB
:10158E00040808001818000000000038445AAAAADF
:10159E00AAAAB442443800000000001010182828EF
:1015AE00243C444242E70000000000F844444478E2
:1015BE004442424244F800000000003E4242808015
:1015CE008080804244380000000000F844424242CD
:1015DE004242424244F80000000000FC4248487873
:1015EE004848404242FC0000000000FC4248487857
:1015FE004848404040E000000000003C44448080E9
:10160E00808E844444380000000000E7424242428B
:10161E007E42424242E700000000007C1010101093
:10162E0010101010107C00000000003E0808080882
:10163E0008080808080888F0000000EE44485070BA
:10164E005048484444EE0000000000E04040404056
:10165E004040404042FE0000000000EE6C6C6C6C9E
:10166E005454545454D60000000000C762625252C3
:10167E004A4A4A4646E2000000000038448282820E
:10168E008282828244380000000000FC42424242C4
:10169E007C40404040E000000000003844828282DE
:1016AE008282B2CA4C380600000000FC4242427CE4
:1016BE004848444442E300000000003E42424020BD
:1016CE0018040242427C0000000000FE921010102E
:1016DE001010101010380000000000E74242424285
:1016EE0042424242423C0000000000E74242442493
:1016FE002428281810100000000000D69292929212
:10170E00AAAA6C4444440000000000E742242418B6
:10171E001818242442E70000000000EE4444282854
:10172E0010101010103800000000007E840408080D
:10173E001020204242FC0000001E1010101010104D
:10174E001010101010101E0000004040202010102D
:10175E0010080804040402020078080808080808A3
:10176E000808080808087800001C22000000000085
:10177E00000000000000000000000000000000005B
:10178E0000000000000000FF00606020C0000000AC
:10179E000000000000000000000000000000003CFF
:1017AE00421E2242423F0000000000C0404040580E
:1017BE006442424264580000000000000000001C19
:1017CE0022404040221C0000000000060202021EC1
:1017DE0022424242261B0000000000000000003C96
:1017EE00427E4040423C00000000000F1110107E6F
:1017FE0010101010107C0000000000000000003ED1
:10180E00444438403C42423C000000C04040405CF2
:10181E006242424242E70000000000303000007099
:10182E0010101010107C00000000000C0C00001CAA
:10183E000404040404044478000000C04040404EF8
:10184E004850684844EE0000000000701010101060
:10185E0010101010107C000000000000000000FEB0
:10186E004949494949ED000000000000000000DC34
:10187E006242424242E70000000000000000003CCD
:10188E0042424242423C000000000000000000D8EC
:10189E0064424242447840E0000000000000001E16
:1018AE0022424242221E020700000000000000EE0B
:1018BE003220202020F80000000000000000003E32
:1018CE0042403C02427C0000000000000010107CF0
:1018DE0010101010100C000000000000000000C6D8
:1018EE0042424242463B000000000000000000E77A
:1018FE00422424281010000000000000000000D731
:10190E009292AAAA44440000000000000000006E5B
:10191E00241818182476000000000000000000E7CC
:10192E0042242428181010E0000000000000007E61
:10193E0044081010227E000000030404040404086E
:10194E00040404040404030008080808080808082E
:10195E000808080808080808006010101010100881
:10196E001010101010106000304C430000000000EA
:10197E00000000000000000000007FE000200020BA
:10198E001020102010201FFC000400040004FFE4AF
:10199E00000400040028001000007F7C44444444EE
:1019AE005F44517C51405F40444244427FBE000040
:1019BE00248822444244800408101D10F090109098
:1019CE001010FD10109038903410501E53F09010DF
:1019DE00101010101010101010201020102013FED8
:1019EE00FC201020102015FC18843088D048105090
:1019FE001020105051882606000000000000001C28
:101A0E002C40001C2C4000000000000000000000D4
:101A1E000000000000000000040408091525558D83
:101A2E0045271511080C0800000001F90204087082
:101A3E00080406FB00000000003F20203F041AF2BD
:101A4E00521212131010100000F04040E0000C1261
:101A5E002242820202020E00000F08FF080F041835
:101A6E00179070501518100004C484F888DC080014
:101A7E00FC428282021C000000000000000004688C
:101A8E0070000468700000000000000000000000FC
:101A9E00000000000000000008866106109F72130F
:101AAE001408F41516141000203FC0021CE201FEAB
:101ABE00004241FE4040400000282422232C3004E6
:101ACE0004FF0444340504000008106080C4340888
:081ADE000810E05884020F001B
:08348000900021EEF0A3EFF033
:1034880090004DE4F0A374DCF07BB0E4FDFCFF1287
:103498003672E4900023F0A3F0E4900025F0A3F046
:1034A800900021E0FEA3E0FF123957900026E004C7
:1034B800F07006900025E004F0C3900026E094B078
:1034C800900025E0940040D8900024E004F07006B5
:1034D800900023E004F0C3900024E094DC900023E3
:0534E800E0940040B477
:0134ED0022BC
:05388000E0FAA3E0FBEB
:10388500900047EAF0A3EBF012389B900047E0FE6A
:06389500A3E0FF02395719
:0E31C9009000D2EFF0A3ECF0A3EDF0A3EBF03A
:1031D700E49000DAF09000DAE0FFC39408400302BD
:1031E700327674807E00A807088006CEA2E713CE49
:1031F70013D8F8FF9000D5E0FD7C00EF5DB50731EF
:10320700ECB5062D9000D2E0FFA3E0FCA3E0FD9013
:1032170000D6E0FBA3E09000CBCBF0A3EBF090004F
:10322700D8E0FBA3E09000CDCBF0A3EBF07B0180CF
:103237002B9000D2E0FFA3E0FCA3E0FD9000D6E0D6
:10324700FBA3E09000CBCBF0A3EBF09000D8E0FB22
:10325700A3E09000CDCBF0A3EBF0E4FB122D56904A
:0F32670000D2E02408F09000DAE004F00231DC3D
:013276002235
:103411009000DEEBF09000DBEFF0A3ECF0A3EDF019
:10342100C007A3E0C4540FFBA3E0FFA3E09000CBCF
:10343100CFF0A3EFF09000E1E0FFA3E09000CDCF4B
:10344100F0A3EFF0D007122D569000DBE02408F036
:10345100A3E0FCA3E0FDA3E0540FFBA3E0FFA3E086
:103461009000CBCFF0A3EFF09000E1E0FFA3E0905C
:0F34710000CDCFF0A3EFF09000DBE0FF022D566F
:10311700900022EFF0A3ECF0A3EDF0A3EBF0C007D3
:1031270075F064842430FBA3E0FFA3E090002FCF69
:10313700F0A3EFF0900028E0FFA3E0900031CFF07C
:10314700A3EFF0D0071229FB900022E02408FFC06C
:1031570007A3E0FCA3E0FDA3E075F00A8475F00A7D
:1031670084E5F02430FBA3E0FFA3E090002FCFF02D
:10317700A3EFF0900028E0FFA3E0900031CFF0A389
:10318700EFF0D0071229FB900022E02410FFC007C0
:10319700A3E0FCA3E0FDA3E075F00A84E5F024308A
:1031A700FBA3E0FFA3E090002FCFF0A3EFF0900088
:1031B70028E0FFA3E0900031CFF0A3EFF0D00702A3
:0231C70029FBE2
:0E2D56009000C7EFF0A3ECF0A3EDF0A3EBF0BC
:102D6400E49000CFF0A3F0A3F0EBD39409400790D4
:102D740000CAE02407F09000CAE02410F0E49000B8
:102D8400D0F09000D0E0FFC394104003022E75EF02
:102D9400FD7C009000C9E02DFF9000C8E03CFEC31C
:102DA400EF94DCEE94004003022E6C9000CAE07EA7
:102DB40000C4F8540FC868FFEEC454F048FEEF2D69
:102DC400FFEC3EFE74962FF58274133EF583E49374
:102DD4009000D1F0E49000CFF09000CFE0FFC394D6
:102DE400084003022E6C9000C7E0FD2FFFE433FE81
:102DF400C3EF94B0EE6480948050649000CFE0FC04
:102E040074807E00A804088006CEA2E713CE13D8EF
:102E1400F8FF9000D1E0FB7A00EF5BB5071EEAB53E
:102E2400061AED2CFF9000D0E0FD9000C9E02DFDC6
:102E34009000C8E03400FC9000CB80209000CFE0EC
:102E4400FF9000C7E02FFF9000D0E0FD9000C9E0A4
:102E54002DFD9000C8E03400FC9000CD1238809025
:102E640000CFE004F0022DDD9000D0E004F0022D4C
:012E740086D7
:012E7500223A
:10379500AE079000F2ECF0A3EDF0A3EBF0C0072F1D
:1037A50014FB9000F2E0FFA3E090004DCFF0A3EFF3
:1037B500F0D0071236729000F5E0FEA3E0FF123953
:0B37C500579000F4E014F0E070EC22DC
:10361A009000E7EAF0A3EBF09000E5ECF0A3EDF000
:10362A00C007AB07A3E0FEA3E0FF9000E5E0F8A324
:10363A00E02FFFE83ECF24FFCF34FF90004DF0A3E8
:10364A00EFF0D0071236729000E9E0FEA3E0FF1215
:10365A0039579000E8E024FFF09000E7E034FFF0EB
:08366A00E07002A3E070E02211
:0E27DE00900029EEF0A3EFF0A3ECF0A3EDF0D5
:1027EC00E4900035F0A3F0A3F0A3F0900029E0FEF4
:1027FC00A3E0FFC3EB9FFFEA9E900039F0A3EFF03C
:10280C0090002BE0FAA3E0FBC3900030E09BFE901D
:10281C00002FE09A90003BF0A3CEF0900029E0FF4F
:10282C00A3E0900045CFF0A3EFF0900043EAF0A3B3
:10283C00EBF0900039E0FEA3E0FFD39400EE64804F
:10284C009480400A90003FE4F0A304F08021EF4E06
:10285C00700890003FF0A3F0801574FF90003FF0DB
:10286C00A3F0C3E49FFFE49E900039F0A3EFF09037
:10287C00003BE0FEA3E0FFD39400EE648094804024
:10288C000A900041E4F0A304F08021EF4E70089010
:10289C000041F0A3F0801574FF900041F0A3F0C349
:1028AC00E49FFFE49E90003BF0A3EFF090003BE030
:1028BC00FEA3E0FF900039E0FCA3E0FDD39FEE64A3
:1028CC0080F8EC64809890003D4007ECF0A3EDF0AC
:1028DC008005EEF0A3EFF0E4900033F0A3F090004D
:1028EC003EE02401FF90003DE03400FED390003424
:1028FC00E09F900033E09E40030229CD900045A359
:10290C00E0FF900043E0FCA3E0FD90003112388022
:10291C00900039E0FEA3E0FF900036E02FF090002D
:10292C0035E03EF090003BE0FEA3E0FF900038E085
:10293C002FF0900037E03EF090003DE0FEA3E0FF6A
:10294C00900035E0FCA3E0FDD39FEE6480F8EC64CE
:10295C0080984020ED9FFFEC9E900035F0A3EFF0A7
:10296C0090003FE0FEA3E0FF900046E02FF09000C7
:10297C0045E03EF090003DE0FEA3E0FF900037E024
:10298C00FCA3E0FDD39FEE6480F8EC6480984020BB
:10299C00ED9FFFEC9E900037F0A3EFF0900041E02C
:1029AC00FEA3E0FF900044E02FF0900043E03EF0E7
:1029BC00900034E004F07006900033E004F002283C
:0129CC00EA20
:0129CD0022E7
:0C304F009000BCECF0A3EDF0A3EBF0F956
:10305B00E49000C1F0A3F0A3F0A3F0A3F0A3F0C0A1
:10306B0007EF2914FB9000BFE0FEA3E0FF9000BC2C
:10307B00E0F8A3E02FFFE83ECF24FFCF34FF900012
:10308B004DF0A3EFF0D0071236729000BEE0FF7E3A
:10309B0000A3E0FCA3E0FD1221A6EF25E0FFEE3339
:1030AB009000C5F0A3EFF09000C3E0FCA3E0FD247B
:1030BB000FF58274003CF583E493FF9000C1E4F0BC
:1030CB00A3EFF0E07F00FE9000C1F0A3EFF0740ED1
:1030DB002DF58274003CF583E493FDEDFF9000C168
:1030EB00EEF0A3EFF01239579000C4E02402F090F9
:1030FB0000C3E03400F09000C5E0FEA3E0FFC390F6
:0B310B0000C4E09F9000C3E09E409CC9
:013116002296
:1029CE00900080E024F9FFA3E0FCA3E0FD900089D5
:1029DE00E0FBA3E090002FCBF0A3EBF090008BE098
:0D29EE00FBA3E0900031CBF0A3EBF07B2EBB
:0E29FB0090002BEFF0A3ECF0A3EDF0A3EBF0B7
:102A0900E024E0F0E4900034F0900034E0FFC39457
:102A1900104003022B01EFFD7C0090002DE02DFFFB
:102A290090002CE03CFEC3EF94DCEE9400400302DE
:102A39002AF890002EE07E00C4F8540FC868FFEE13
:102A4900C454F048FEEF2DFFEC3EFE74962FF5823C
:102A590074133EF583E493900035F0E4900033F06D
:102A6900900033E0FFC394084003022AF890002B3A
:102A7900E0FD2FFFE433FEC3EF94B0EE6480948051
:102A89005064900033E0FC74807E00A8040880063E
:102A9900CEA2E713CE13D8F8FF900035E0FB7A00F9
:102AA900EF5BB5071EEAB5061AED2CFF900034E07E
:102AB900FD90002DE02DFD90002CE03400FC9000ED
:102AC9002F8020900033E0FF90002BE02FFF900033
:102AD90034E0FD90002DE02DFD90002CE03400FC49
:102AE900900031123880900033E004F0022A699096
:082AF9000034E004F0022A128F
:012B010022B1
:1034EE00900022EFF0A3ECF0A3EDF0A3EAF0A3EB33
:1034FE00F0900025E0FEA3E0F5828E83E493FB605E
:10350E0045900023E0FCA3E0FD900027E0FFA3E040
:10351E0090002FCFF0A3EFF0900029E0FFA3E090F2
:10352E000031CFF0A3EFF0900022E0FF1229FB90C4
:10353E000022E02408F0900026E004F070B3900022
:07354E0025E004F080AB2230
:102316009000ACEFF0A3ECF0A3EDF0A3EAF0A3EB92
:01232600F0C6
:10232700E49000B3F0A3F0A3F09000B9F0A3740B0E
:10233700F0E49000B6F09000B6E0FFD39000BAE06A
:102347009F9000B9E09400500302259FE49000B3EA
:10235700F09000B3E0FFC39410400302246A90009A
:10236700ACE0FDEFFB7A002DFFEA33FEC3EF94B03C
:10237700EE6480948040030224619000B6E0FFA3DE
:10238700E4F0A3EFF09000B7E0FEA3E07805C333D5
:10239700CE33CED8F92BFFEE3A9000B7F0A3EFF08B
:1023A7009000B7E0FEA3E02486F58274193EF5831A
:1023B700E4939000B5F0E49000B4F09000B4E0FF2F
:1023C700C3940840030224619000AEE02FFF900001
:1023D700ADE03400FEC3EF94DCEE94005073900040
:1023E700B4E0FD74807E00A805088006CEA2E7133E
:1023F700CE13D8F8FF9000B5E0FBEF5B6F7001EEEE
:102407009000B37023E0FF9000ACE02FFF9000B680
:10241700E0C454F02FFF9000AEE02DFD9000ADE03A
:102427003400FC9000AF8026E0FF9000ACE02FFF67
:102437009000B6E0C454F02FFF9000B4E0FD900088
:10244700AEE02DFD9000ADE03400FC9000B11238F5
:10245700809000B4E004F00223C29000B3E004F0DF
:10246700022358E49000B3F09000B3E0FFC3941048
:1024770040030225969000ACE0FDEFFB7A002DFFAC
:10248700EA33FEC3EF94B0EE6480948040030225E4
:102497008D9000B6E0FFA3E4F0A3EFF09000B7E063
:1024A700FEA3E07805C333CE33CED8F92BFFEE3A3F
:1024B700CF2410CF34009000B7F0A3EFF09000B70F
:1024C700E0FEA3E02486F58274193EF583E4939039
:1024D70000B5F0E49000B4F09000B4E0FFC39408B6
:1024E700400302258D9000AEE02FFF9000ADE03451
:1024F70000FEC3EF94DCEE940040030225849000B5
:10250700B4E0FD74807E00A805088006CEA2E7131C
:10251700CE13D8F8FF9000B5E0FBEF5B6F7001EECC
:102527009000B37029E0FF9000ACE02FFF9000B659
:10253700E0C454F02FFF9000AEE02DFD9000ADE019
:102547003400CD2408CD3400FC9000AF802CE0FF90
:102557009000ACE02FFF9000B6E0C454F02FFF903E
:1025670000B4E0FD9000AEE02DFD9000ADE034003A
:10257700CD2408CD3400FC9000B11238809000B40F
:10258700E004F00224DF9000B3E004F002246F902F
:0825970000B6E004F002233D50
:01259F002219
:0E338D00900026EFF0A3ECF0A3EDF0A3EBF020
:10339B00C007A3E0FFA3E090004DCFF0A3EFF0D068
:1033AB0007123672900026E0FF900029E0C39F04BD
:1033BB00900026F0A3E0FEA3E0FFC390002BE09F5C
:1033CB00FF90002AE09ECF2401CF3400900027F01D
:1033DB00A3EFF0900026E0FF14F0EF6028A3E0FFCE
:1033EB00A3E090002ECFF0A3EFF090002E74FFF52A
:1033FB00F01221B845F060DB90002CE0FEA3E0FF5B
:05340B0012395780E5B5
:013410002299
:102F7300900021EFF0A3ECF0A3EDF0A3EBF07E00C3
:102F8300C0077A00900022E0FFA3E090002FCFF06B
:102F9300A3EFF0900027E0FFA3E0900031CFF0A370
:102FA300EFF0D0071227DE900021E0FB7A00FF7ECE
:102FB30000C007A3E0FCA3E0FD900025E0FFA3E031
:102FC30090002FCFF0A3EFF0900027E0FFA3E09055
:102FD3000031CFF0A3EFF0D0071227DE900024E0FA
:102FE300FB7A00FF7E00C007900022E0FCA3E0FD17
:102FF300900025E0FFA3E090002FCFF0A3EFF09027
:103003000027E0FFA3E0900031CFF0A3EFF0D0075B
:103013001227DE900021E0FF7E00C007900025E02C
:10302300FCA3E0FD900024E0FB7A00A3E0FFA3E013
:1030330090002FCFF0A3EFF0900027E0FFA3E090E4
:0C3043000031CFF0A3EFF0D0070227DE31
:0B2E760090009CEFF0A3ECF0A3EDF047
:102E8100E49000ABF0E4FFFEFDFC90009FE0F8A3AE
:102E9100E0F9A3E0FAA3E0FBC31222F97003022FC9
:102EA1002CE47B0AFAF9F890009FE0FCA3E0FDA373
:102EB100E0FEA3E0FF1222599000A712230A90001E
:102EC1009CE024F9FFC007E47F0AFEFDFC9000A707
:102ED100E0F8A3E0F9A3E0FAA3E0FB1221CEAB07EF
:102EE10090009FA3A3A3E0C39B2430FBA3E0FFA317
:102EF100E090002FCFF0A3EFF09000A5E0FFA3E05A
:102F0100900031CFF0A3EFF090009DE0FCA3E0FD35
:102F1100D0071229FB9000A7E0FCA3E0FDA3E0FE8F
:102F2100A3E0FF90009F12230A803090009CE024D0
:102F3100F9FFA3E0FCA3E0FD9000A3E0FBA3E09078
:102F4100002FCBF0A3EBF09000A5E0FBA3E09000F5
:102F510031CBF0A3EBF07B201229FB90009CE02405
:102F6100F8F09000ABE004F0E0C3940A5003022EA5
:012F710086D9
:012F7200223C
:0B25A000900080EFF0A3ECF0A3EDF042
:1025AB00E490009BF0900087E0FF90009BE0C39FBE
:1025BB004003022671E4FFFEFDFC900083E0F8A3CC
:1025CB00E0F9A3E0FAA3E0FBC31222F96067E47B16
:1025DB000AFAF9F8900083E0FCA3E0FDA3E0FEA368
:1025EB00E0FF12225990009712230AE47F0AFEFDA6
:1025FB00FC900097E0F8A3E0F9A3E0FAA3E0FB124C
:10260B0021CEAB07900083A3A3A3E0C39B2430FF91
:10261B0090009BE0248DF582E43400F583EFF0907D
:10262B000097E0FCA3E0FDA3E0FEA3E0FF90008396
:10263B0012230A8028900088E0FF90009BE0FEC3E5
:10264B009F748D400D2EF582E43400F5837420F0D9
:10265B00800B2EF582E43400F5837430F090009BF0
:10266B00E004F00225B0E490009BF0FFFEFDFC902F
:10267B000083E0F8A3E0F9A3E0FAA3E0FBC3122286
:10268B00F96066900087E0FF90009BE0C39F4003DA
:10269B000227DD900080E024F9FFA3E0FCA3E0FD1E
:1026AB00900089E0FBA3E090002FCBF0A3EBF09020
:1026BB00008BE0FBA3E0900031CBF0A3EBF07B2D84
:1026CB001229FB90009BE004F0900080E024F8F0CE
:1026DB00900088E0FF90009BE0B507A71229CE90F1
:1026EB000080E024F8F002268E900087E0FF900037
:1026FB009BE0FEC39F40030227DD900088E0FF2490
:10270B008DF582E43400F583E0B420047D01800272
:10271B007D00EEB507047F0180027F00EF5D60371F
:10272B001229CE900080E024F8F0E024F9FFA3E01A
:10273B00FCA3E0FD900089E0FBA3E090002FCBF021
:10274B00A3EBF090008BE0FBA3E0900031CBF0A368
:10275B00EBF07B300227CA900088E0FF90009BE0F3
:10276B00FEB507047F0180027F00EE60047E0180CE
:10277B00027E00EE5F600A1229CE900080E024F802
:10278B00F0900080E024F9FFC007A3E0FCA3E0FD7C
:10279B0090009BE0248DF582E43400F583E0FB9000
:1027AB000089E0FFA3E090002FCFF0A3EFF09000A3
:1027BB008BE0FFA3E0900031CFF0A3EFF0D0071236
:1027CB0029FB900080E024F8F090009BE004F002DD
:0227DB0026F4E2
:0127DD0022D9
:1037FB00AA07ED54FC75F008A4FDEA54F845F0FC5B
:10380B00EB54F87E007803CEC313CE13D8F9FFEE3A
:06381B004CFEEF4DFF2200
:102C2E00D2B37FF47E01EF1F70011EEF4E70F7C21C
:102C3E00B37E017FF4EF1F70011EEF4E70F7D2B31B
:102C4E007E137F88EF1F70011EEF4E70F7C2A77DB7
:102C5E00017C00E4FF123848E4FDFC7F071238487F
:102C6E00E4FDFC7F121238487FA41238447E137F95
:102C7E0088EF1F70011EEF4E70F77408FDFCFF12F7
:102C8E0038487D017C007F181238487DB07C117F5A
:102C9E0010123848E4FDFC7F111238487D157C1166
:102CAE007F121238487D0B7C8B7F131238487D358E
:102CBE007C117F121238487D007C807F14123848B8
:102CCE007D007C017F011238487D007C077F021257
:102CDE0038487D307C107F031238487D007C1B7F86
:102CEE00701238487D017C007F711238487D027C5D
:102CFE00007F90123848E4FDFC7F911238487D0128
:102D0E007C007F921238487F071238447E137F88EA
:102D1E00EF1F70011EEF4E70F77D217C007F0712B2
:102D2E0038487E137F88EF1F70011EEF4E70F77DBF
:102D3E00357C117F121238487D337C027F071238A2
:082D4E00487D22E4FF0238CBAE
:1038CB00C2A7C2A68F90C2A5D2A5AF058F80C2A5F5
:0538DB00D2A5D2A722D6
:1038E000C2A7D2A68F90C2A5D2A5AF058F80C2A5D0
:0538F000D2A5D2A722C1
:04395700AD07AC0606
:07395B00ECFFAE050238E0AD
:043844007D017C0086
:02384800AB07CC
:10384A00ECFEAF05AC07AF03AD07E4FF1238CBAF10
:08385A0006AE04AD060238E0E1
:1036720090004AECF0A3EDF0AA07A903EAFD7C0052
:103682007F50123848E9FD7C007F51123848900083
:103692004AE0FCA3E0FD7F5212384890004DE0FC66
:1036A200A3E0FD7F53123848EAFD7C007F201238E8
:1036B2004890004AE0FCA3E0FD7F211238487D22B9
:0536C200E4FF0238CB1B
:10389B008D828C83C007AB07AE83AF8290004DEE59
:0938AB00F0A3EFF0D00702367221
:1038210053434F5245004C4556454C0047414D4589
:10383100204F56455200596F7520617265005749F6
:033841004E210015
:0439BB0041007F0741
:1038F500758911758CB8E4F58AD2A9D2AFD28CD26C
:023905008E2210
:03000B000235B902
:1035B900C0E0C0F0C083C082C0D075D000C000C0D8
:0D35C90001C002C003C004C005C006C00759
:1035D600758CB8758A00900000E004F07F647E0068
:1035E600E0D39FE49E4012E4F0C2A0F580C2A1C2DF
:0935F600A2C2A3121AE6758000BE
:1035FF00D007D006D005D004D003D002D001D00020
:0B360F00D0D0D082D083D0F0D0E032C9
:1033030074532EF582E43400F583E0FF74672EF5E1
:0E33130082E43400F583E0FD7C007B1F7A002D
:10332100900024EAF0A3EBF0A907900022ECF0A3AF
:10333100EDF0E90475F008A4FFC007ED2401FFE4F6
:103341003CFEEF7803C333CE33CED8F9FDAC06E9AA
:10335100240275F008A4FB900023E02402FF9000F2
:1033610022E03400FEEF7803C333CE33CED8F9FF29
:1033710090002AEEF0A3EFF0900024E0FFA3E0908C
:0C338100002CCFF0A3EFF0D00702338D3A
:0C355500900053E0FF900067E0FD7C0058
:10356100AB078D828C83EB0475F008A4FFC007E5DF
:10357100822401FFE43583FEEF7803C333CE33CEDB
:10358100D8F9FDAC06EB240275F008A4FBAE83AFBD
:1035910082EF2402FFE43EFEEF7803C333CE33CE45
:1035A100D8F9FF90002AEEF0A3EFF0A37407F0A37F
:0835B10074FFF0D00702338D16
:102B02001238F590007B7402F0E4A3F0A3F0900079
:102B12005104F09000007407F0E4900052F090002D
:102B220020F090007BE0FF900020E0FEC39F502544
:102B3200EE2402FF74532EF582E43400F583EFF0A5
:102B420074672EF582E43400F5837402F09000205D
:102B5200E004F080CD7FFF7E0712348090002AE4EB
:102B6200F0A374DBF0A37407F0A374FFF07BAF7DD6
:102B7200C87C00E4FF12338D900025E4F0A374D3E7
:102B8200F0A3E4F0A374AAF07BA67D077C007F0784
:102B9200122F737A387B21900027748BF0A3E4F014
:102BA200A374BEF0A3745FF07D087C00E4FF1234CE
:102BB200EE90007DE0FB90002674F8F0A3E4F0A311
:102BC20074BEF0A3745FF07D187C00E4FF1231172D
:102BD2007A387B27900027748BF0A3E4F0A374BEAD
:102BE200F0A3745FF07D517C00E4FF1234EE90009C
:102BF2007EE0FB90002674F8F0A3E4F0A374BEF02C
:102C0200A3745FF07D6B7C00E4FF123117E4900047
:102C120020F090007BE0FF900020E0FEC39F500B6D
:0B2C2200123303900020E004F080E774
:012C2D002284
:1037D0007A387B2D90002774CCF0A37488F0A37402
:1037E000BEF0A3745FF07D8C7C007F3C1234EE90C1
:0B37F00000527401F0C28CE4F580224E
:1036C70090007EE004F07A387B3790002774CCF0C6
:1036D700A37488F0A374BEF0A3745FF07D7C7C00B4
:1036E7007F441234EE7A387B3F90002774CCF0A3E6
:1036F7007488F0A374BEF0A3745FF07D9C7C007F98
:10370700501234EE9000527401F0C28CE4F580221E
:101AE600E4900020F0D2A3D2A2D2A1D2A020A308D3
:101AF6009000007403F0802920A20890000074056D
:101B0600F0801E20A1089000007401F0801320A030
:101B1600089000007407F08008900021E090000013
:101B2600F0900000E0900021F0B4070790007FE0FD
:101B3600B40116900000E064016003021BFF9000F0
:101B46007FE064076003021BFF123555E490002016
:101B5600F090007BE014FF900020E0C39F503DE032
:101B6600FF2454F582E43400F583E0FE74532FF528
:101B760082E43400F583EEF0900020E0FF2468F55F
:101B860082E43400F583E0FE74672FF582E43400C6
:101B9600F583EEF0900020E004F080B590007BE045
:101BA600FF2451F582E43400F583E004FE74522FDD
:101BB600F582E43400F583EEF090007BE0FF2465C7
:101BC600F582E43400F583E0FE74662FF582E43492
:101BD60000F583EEF0E4900020F090007BE0FF90AB
:101BE6000020E0FEC39F500B123303900020E00458
:101BF600F080E790007F7407F0900000E0FFB401EA
:101C06000790007FE0B40713EF64076003021CD15E
:101C160090007FE064016003021CD1123555E49008
:101C26000020F090007BE014FF900020E0C39F505E
:101C36003DE0FF2454F582E43400F583E0FE74535E
:101C46002FF582E43400F583EEF0900020E0FF24C7
:101C560068F582E43400F583E0FE74672FF582E4CC
:101C66003400F583EEF0900020E004F080B590009B
:101C76007BE0FF2451F582E43400F583E014FE7422
:101C8600522FF582E43400F583EEF090007BE0FFFE
:101C96002465F582E43400F583E0FE74662FF58250
:101CA600E43400F583EEF0E4900020F090007BE051
:101CB600FF900020E0FEC39F500B123303900020DC
:101CC600E004F080E790007F7401F0900000E0FFF0
:101CD600B4030790007FE0B40513EF6405600302C8
:101CE6001DA390007FE064036003021DA312355517
:101CF600E4900020F090007BE014FF900020E0C309
:101D06009F503DE0FF2454F582E43400F583E0FE65
:101D160074532FF582E43400F583EEF0900020E052
:101D2600FF2468F582E43400F583E0FE74672FF53E
:101D360082E43400F583EEF0900020E004F080B5F4
:101D460090007BE0FF2451F582E43400F583E0FE49
:101D560074522FF582E43400F583EEF090007BE0B8
:101D6600FF2465F582E43400F583E014FE74662FE3
:101D7600F582E43400F583EEF0E4900020F0900064
:101D86007BE0FF900020E0FEC39F500B12330390D0
:101D96000020E004F080E790007F7403F0900000DC
:101DA600E0FFB4050790007FE0B40313EF6403601F
:101DB60003021E7590007FE064056003021E751223
:101DC6003555E4900020F090007BE014FF90002051
:101DD600E0C39F503DE0FF2454F582E43400F583D0
:101DE600E0FE74532FF582E43400F583EEF09000A4
:101DF60020E0FF2468F582E43400F583E0FE746792
:101E06002FF582E43400F583EEF0900020E004F034
:101E160080B590007BE0FF2451F582E43400F58321
:101E2600E0FE74522FF582E43400F583EEF0900064
:101E36007BE0FF2465F582E43400F583E004FE745C
:101E4600662FF582E43400F583EEF0E4900020F08E
:101E560090007BE0FF900020E0FEC39F500B123302
:101E660003900020E004F080E790007F7405F09076
:101E7600007BE0FF2452F582E43400F583E0C3944E
:101E860016501074662FF582E43400F583E0C3948F
:101E960023400690007C7401F09000207403F090BB
:101EA600007BE0FF900020E0FEC39F503B74532E62
:101EB600F582E43400F583E0FF900053E0FEEFB5D1
:101EC600061E900020E02467F582E43400F583E0E6
:101ED600FF900067E0FEEFB5060690007C7401F007
:101EE600900020E004F080B790007CE0B4010B90F5
:101EF6000000E090007FF01237D090007BE0B41431
:101F06000B900000E090007FF01236C790007BE057
:101F1600FF2452F582E43400F583E0FE90004FE0A2
:101F2600FDEE6D705E74662FF582E43400F583E095
:101F3600FF900050E0FEEF6E704990007BE004F0E9
:101F4600E0FF2452F582E43400F583EDF074662F49
:101F5600F582E43400F583EEF090007DE0240AF08B
:101F6600E0FB90002674CCF0A37488F0A374BEF056
:101F7600A3745FF07D187C007F64123117900051C6
:101F86007401F0900051E0701190004FE0FFA3E063
:101F9600FD7C007B1F7AF8123321900051E064012A
:101FA6007076E58B75F00C8490004FF0E0D39415B5
:101FB6004005A3E024EBF0E58B75F0078490005014
:101FC600F0E0D394224004E024DEF0E4900020F018
:101FD60090007BE0FF900020E0FEC39F502F7453DB
:101FE6002EF582E43400F583E0FE90004FE0FDB567
:101FF6000613900020E02467F582E43400F583E0C0
:10200600FEED6E6008900020E004F080C390002092
:08201600E06F708E900051F0A4
:01201E00229F
:103862001237177F141238B4122C2E7F141238B468
:0E387200122B029000007407F0121AE680FE7E
:10201F00EC4D6011E8497017ED33EC3304600DE4BB
:10202F00FCFFFEFD22E933E8330470F80221911220
:10203F00215C58046009E4CC248150062850090221
:10204F00219B284003022198C0E0EB4A7044B980DD
:10205F0006D0E0FB022187EF4E701CBD8008EBFF1E
:10206F00EAFEE9FD80EBE98DF0A4FEE5F002210820
:10207F00E9CDF9EAFEEBFFEF89F0A4FCE5F0CE899C
:10208F00F0A42EFFE435F0CD89F0A42DFEE435F059
:10209F008067EF4E7005BD80D780C3EF8BF0A4AC87
:1020AF00F0EE8BF0A42CFCE435F0F8EF8AF0A42CC2
:1020BF00E5F038FCE433CB8DF0A42CFCE5F03BF8D5
:1020CF00EE8AF0A42CFCE5F038F8E433CF89F0A4C5
:1020DF002CFCE5F038CF3400CE89F0A42FFFE5F0CB
:1020EF003EFEE433C98DF0A42EFEE5F039CD8AF023
:1020FF00A42FFFE5F03EFEE43DFD33D0E0FB50079B
:10210F000BBB000F02219BEC2CFCEF33FFEE33FED9
:06211F00ED33FD02217307
:10212500EDD2E7CD33EC3392D524814006E4FFFEB2
:10213500FDFC22FCE4CFCECDCC24E0501174FF8011
:10214500EDC3CC13CCCD13CDCE13CECF13CF0470AE
:07215500F030D5DE0222EBA1
:10215C00E9D2E7C933E833F892D5EDD2E7CD33ECC9
:07216C0033FC5002B2D52242
:10217300EC30E7100FBF000C0EBE00080DBD0004CD
:102183000BEB6014A2D5EB13FCED92E7FD2274FF79
:10219300FCFDFEFF22E480F8A2D574FF13FC7D80D2
:0321A300E480EFE6
:0300000002327752
:0C327700787FE4F6D8FD7581070232BEB6
:1021A600EF8DF0A4A8F0CF8CF0A428CE8DF0A42E4D
:0221B600FE2207
:1021B800A3F8E0C5F025F0F0E582158270021583DA
:0621C800E0C838F0E82237
:1021CE00E88FF0A4CC8BF0A42CFCE98EF0A42CFCB0
:1021DE008AF0EDA42CFCEA8EF0A4CDA8F08BF0A42E
:1021EE002DCC3825F0FDE98FF0A42CCD35F0FCEB8D
:1021FE008EF0A4FEA9F0EB8FF0A4CFC5F02ECD3952
:0F220E00FEE43CFCEAA42DCE35F0FDE43CFC22BE
:10221D0075F008758200EF2FFFEE33FECD33CDCC78
:10222D0033CCC58233C5829BED9AEC99E5829840FB
:10223D000CF582EE9BFEED9AFDEC99FC0FD5F0D6D8
:10224D00E4CEFBE4CDFAE4CCF9A88222B800C1B902
:10225D000059BA002DEC8BF084CFCECDFCE5F0CB40
:10226D00F97818EF2FFFEE33FEED33FDEC33FCEB79
:10227D0033FB10D703994004EB99FB0FD8E5E4F934
:10228D00FA227818EF2FFFEE33FEED33FDEC33FC21
:10229D00C933C910D7059BE99A4007EC9BFCE99A15
:1022AD00F90FD8E0E4C9FAE4CCFB2275F010EF2F5A
:1022BD00FFEE33FEED33FDCC33CCC833C810D7075A
:1022CD009BEC9AE899400AED9BFDEC9AFCE899F895
:0E22DD000FD5F0DAE4CDFBE4CCFAE4C8F92228
:0E22EB00C3E49FFFE49EFEE49DFDE49CFC2204
:1022F900EB9FF5F0EA9E42F0E99D42F0E89C45F03B
:0123090022B1
:0C230A00ECF0A3EDF0A3EEF0A3EFF02246
:10328300023862E493A3F8E493A34003F68001F2C7
:1032930008DFF48029E493A3F85407240CC8C3334C
:1032A300C4540F4420C8834004F456800146F6DF1B
:1032B300E4800B01020408102040809039BBE47EB7
:1032C300019360BCA3FF543F30E509541FFEE49310
:1032D300A360010ECF54C025E060A840B8E493A3D7
:1032E300FAE493A3F8E493A3C8C582C8CAC583CA02
:1032F300F0A3C8C582C8CAC583CADFE9DEE780BEBA
:0139BF000007
:00000001FF
