:0D000E0000000000000000000000000022C3
:103288000000000000000000000000000000000036
:103298000000000000000000000000000000000026
:0332A80000002201
:0533D9007F090233D260
:0533DE007F140233D250
:0533E3007F2A0233D235
:0533E8007F6C0233D2EE
:070003007FA87E00023350CC
:0733A8007F527E0102335049
:0733AF007F507E0302335042
:0733B6007FA37E06023350E5
:0733BD007F487E0D02335032
:0733C4007F397E2102335026
:0733CB007F747E42023350C3
:0533ED007F140232FD17
:0533F2007F320232FDF4
:0533F7007F640232FDBD
:0533FC007FC80232FD54
:0B335C007F007E007D007C3F0231EA14
:0B3367007F007E007D807C3F0231EA89
:0B3372007F007E007D007C400231EAFD
:0B337D007F007E007DA07C400231EA52
:0B3388007F007E007D207C410231EAC6
:0633D200EF60031F80FA0A
:0133D80022D2
:0B335000EF4E6007EF1F70F81E80F5C5
:01335B00224F
:1032FD00900025EFF0900025E0600B1233B69000A2
:06330D0025E014F080EF42
:013313002297
:0631EA009000D0121DE16F
:1031F000E4FFFE7DC87C429000D0E0F8A3E0F9A394
:10320000E0FAA3E0FB121AF6121BFC9000D4EEF0D9
:10321000A3EFF09000D474FFF5F0121C8F45F0601E
:06322000051233CB80ED26
:013226002285
:0A339E0047414D45204F56455200AF
:10333E004100D9474100D7014200DA00A64100D82A
:01334E00146A
:102F3F001231A97F141232FD1227437F141232FD72
:102F4F00E4FFFE123027D2A0E4F580758911758C4D
:102F5F00ACF58AD2A9D2ABD2AFD28CD28E9000D898
:102F6F00E0FD7C0024ECFFEC34FFFEED2414FBECC1
:102F7F0033FA90002BE4F0A374DBF074FFA3F0A3FB
:102F8F00F07DDB1222B520B409D28EE49000D6F08A
:102F9F0080F420B50AD28E9000D67401F080E7C27B
:092FAF008E758DFF758BFF80DD2E
:03001B00022D8C27
:102D8C00C0E0C0F0C083C082C0D075D000C000C00D
:102D9C0001C002C003C004C005C006C007758DB8D1
:102DAC00758B00C2A09000D6E070279000D8E0147C
:102DBC00F0E0C3941450037414F09000D8E0241580
:102DCC00FFE4FBFA7DDBFC1232CE9000D8E024EC61
:102DDC0080259000D8E004F0E0D394DB4003749B92
:102DEC00F09000D8E024EBFFE4FBFA7DDBFC123220
:102DFC00CE9000D8E02414FF74FFFBFA7DDB7C003E
:102E0C001232CE758000D2A0D007D006D005D004E7
:102E1C00D003D002D001D000D0D0D082D083D0F05B
:032E2C00D0E032C1
:03000B000224A527
:1024A500C0E0C0F0C083C082C0D075D000C000C0FD
:0D24B50001C002C003C004C005C006C0077E
:1024C200758CB8758A00C2A09000D9E0FFA3E0FC29
:1024D200A3E0FDE4FBFA1232CE9000D7E024FE60C6
:1024E20011146024146037240370479000D9E0046B
:1024F20080059000D9E014F09000DBE024FFF0901A
:1025020000DAE034FFF0802A9000D9E014F0900065
:10251200DBE004F0701C9000DAE004F0801490001C
:10252200D9E004F09000DBE004F070069000DAE0FD
:1025320004F09000D9E0FFA3E0FCA3E0FD74FFFBF0
:10254200FA1232CE9000D9E0FF70129000D7E0B4B8
:1025520002057401F080069000D77404F0EFB4AF66
:10256200129000D7E0B401057402F080069000D703
:102572007403F09000DAE0FEA3E0FF4E70129000C8
:10258200D7E0B401057404F080069000D77403F01C
:10259200EF64DA4E70579000D8E0FF2414FDE43364
:1025A200FCA3E0FEC39DEC6480F8748098501DEF9C
:1025B20024ECFFEED39F40149000D7E0B4030574DF
:1025C20002F080299000D77401F080217A337B9E3B
:1025D20090000E74CCF0A37488F0A374BEF0A374C0
:1025E2005FF07D8C7C007F5412309580FE758000F8
:0225F200D2A075
:1025F400D007D006D005D004D003D002D001D0003B
:0B260400D0D0D082D083D0F0D0E032E4
:1031A900E4F593F59475914C7592B0F5957596FF84
:1031B90075B14575B28275BB70F5B3F5B4D2A4C2C9
:1031C900A4F580F590C2A0C2A1C2A2C2A3C2B7C28F
:1031D900A5D2A6C2A7D2A47580FFC2A4F580F59096
:0131E90022C3
:10001E0004218210821082108210821061088210D8
:10002E008210821082108210821082108210821032
:10003E008210821082108210821082108210821022
:10004E00A11061082210442023202010000122124A
:10005E00821B042BC000821062108110821082104D
:10006E0082108210821082108210821082108210F2
:10007E008210042182100000000000000000000029
:10008E000000000000000000000000000000000062
:10009E000000000000000000000000000000000052
:1000AE000000000000002000000800004000A00931
:1000BE004323E42B232C442B80000000000000007F
:1000CE000000000000000000000000000000000022
:1000DE0000000000000082108210000000000000EE
:1000EE000000000000000000000000000000000002
:1000FE0000000000000000000000000000000000F2
:10010E0000000000000000000000000020000001C0
:10011E002213C52C4535022D2224E21A6000000060
:10012E0000000000000000000000000000000000C1
:10013E00000000000000000000008210821000008D
:10014E0000000000000000000000000000000000A1
:10015E000000000000000000000000000000000091
:10016E000000000000000000000000000100000080
:10017E0040010634E84D063EA32D6225221CA11235
:10018E0060000000000000002000200000000000C1
:10019E0000000000000000000000000000008210BF
:1001AE0082100000000000000000000000000000AF
:1001BE000000000000000000000000000000000031
:1001CE000000000000000000000000000000000021
:1001DE000000A000C73B2C66E7458435842D222500
:1001EE00C223200A400001000000000000000000B1
:1001FE0000000000000000000000000000000000F1
:10020E0000008210821000000000000000000000BC
:10021E0000000000000000000000000000000000D0
:10022E0000000000000000000000000000000000C0
:10023E000000000040000633CC654B5EA745C64D5E
:10024E00863DC31C23234001000000000000000077
:10025E000000000000000000000000000000000090
:10026E000000000000008210610800000000000085
:10027E000000000000000000000000000000000070
:10028E000000000000000000000000000000000060
:10029E00000000000000000060010A5D6C6E09564F
:1002AE004856074E453D631C021A800000000000B0
:1002BE000000000000000000000000000000000030
:1002CE000000000000000000000061088210000025
:1002DE000000000000000000000000000000000010
:1002EE000000000000000000000000000000000000
:1002FE000000000000000000000000008002084D19
:10030E00C9654866674E8435042DC00BA0000000F9
:10031E0000000100000020000000000800000000A6
:10032E00000000000000000000000000000082102D
:10033E006108000000000000000000000000000046
:10034E000000000020002100000000000000000856
:10035E00200020002000000000000000000000002F
:10036E00A11AA53CC53D032E243644356223A009AF
:10037E0000000000000000002000400020002000CF
:10038E002000000000000000000000000000200817
:10039E000000821061080000000000000000000054
:1003AE0000000000000000002000000000004108D6
:1003BE0000080008001000080008000000000000FF
:1003CE0001000200A002421C242D242D8424031BB4
:1003DE0041090000000000000000000000000000C5
:1003EE0000000108200000000000000000000000D6
:1003FE0000000000000082106108000000000000F4
:10040E0000000000000000000000000000000000DE
:10041E000000000020004000000800000000200046
:10042E002000000000080008A00A431B4423C31A42
:10043E00C10980000000020820002000600060005A
:10044E00400000000000010000000000000000005D
:10045E00000000000000000000008210821000006A
:10046E00000000000000000000000000000000007E
:10047E0020002000A000E211472B293CA84C073C8D
:10048E00031BE001E0002000000800108421431946
:10049E00C110400040002000C0008211E31A231B4F
:1004AE0063236323021B410A400180000000000009
:1004BE00000001000100000000002000000082107A
:1004CE00821000000000000000000000000000008C
:1004DE00620820006000431AAA544F7EF086CF7E39
:1004EE00CD6EED6E8C66EA55C83C6423E109E000E2
:1004FE00400020002000A000C011C11AA21B6224DF
:10050E00621CA21C0225232503258324C21B411332
:10051E00000960000000000001080100000000005A
:10052E000000821082100000000000000000000099
:10053E000000000000002109873B2E76308FEE86EA
:10054E00CE96EFA6B09EB09EAE8E6B76095EA74598
:10055E00032D6114E323C323042C04244324C32456
:10056E00021D821D8435A435A435832D4225C21C5F
:10057E00821C62240323C0096000000000000100F9
:10058E000000000000008210821000000000000039
:10059E000000000000000000C000C6530D8ECFA664
:1005AE000FAF30C752DF53E774EF73EF52E730CF20
:1005BE00EEB6AC96086645456335432D842D442D25
:1005CE0044258535A63D274EC745E74D074EC64502
:1005DE00653DE32C8224411C642C621BC00180000B
:1005EE0000000000000000000000821082100000D9
:1005FE00000000000000000000002000A54CCE9E70
:10060E0091CF71E793FF54FF35FF76FF97FF76FF8B
:10061E0055FF33FF52FF51F70ED76BB64866A5450F
:10062E00843D8535C745E955A95DA95D295E295EDD
:10063E00E955C85586452435A224411C601423244F
:10064E0044238111400000000000000000008210D1
:10065E006318000020000008010021000000429CE9
:10066E000DFF2EFF50FF53FF74FF76FF97FF97FF8E
:10067E0097FF97FF75FF53FF51FF4EFF2CFF0AFFA9
:10068E000AE767BEC585A55DE74D294E2A564B5E26
:10069E000C6E2A66695E2956A93D683567352114A8
:1006AE00A00BA323641AC20000000000000000008B
:1006BE0000008210831800002000000801000000D6
:1006CE008462CAF60CFF2DFF30FF52FF54FF76FFF7
:1006DE0097FFB8FF97FF97FF75FF53FF51FF4FFF2F
:1006EE000DFFCBFEE8FEC8FEA9E6AACEAAB66A9E0C
:1006FE006B866B7ECE7EAC6E4A5E0856084E0756F3
:10070E002235C02CA65440128000000000000000CC
:10071E000000200000008210821020000000000067
:10072E0000082010C6B44AFF2BFF2DFF4FFF51FFCC
:10073E0073FF95FF96FFB7FFB7FFB6FF75FF53FF29
:10074E0031FF0FFF0DFFCBFEC6FEC6FEC8FEEAFE52
:10075E00ECFE0DF70EEF2FE70FD70FD78CCE6ACE2C
:10076E0068CEA8D6E4BD67CE6A7C001900000108E9
:10077E000008000000000000000082106208000067
:10078E00010000000008804166E6E6FE2BFF2CFF0C
:10079E004EFF71FF73FF74FF75FF76FFB6FF95FF77
:1007AE0053FF32FF2FFF2DFF0BFFE9FEE6FEC6FEC5
:1007BE00A6FEA7FEC9FEECFE0DFF0EFF2FFF4FFF9C
:1007CE000DFF0BFFA7FEA6FEEAFE6BF641310008F9
:1007DE000008010800000000000000000000821068
:1007EE0062100000010020000000437327FF07FF86
:1007FE002CFF2DFF2FFF51FF53FF55FF55FF76FFA7
:10080E0054FF54FF53FF51FF4FFF2CFF0AFF08F711
:10081E00A7F6A7FEC7FEC8F6C9F6EAF60CFF2DFF2F
:10082E004FF70EF7EBF609FFC7F6CAEE93FFA98353
:10083E000008000022080100000000000000000077
:10084E000000821082102008000020000000A7B4D3
:10085E0009FFC9FEADFE8DFE6EFE4FFE30FE31FE6F
:10086E0052FE52FE11F610F6F0FD0EFE2DFE6BFE40
:10087E00AAFE0AFFEAF6EAFEC9FEC8FEC9FE0AFF94
:10088E002CFF4CFFECFECBFEC9FE09FF0BFF92FFC7
:10089E0058F704290000410001000000200020004C
:1008AE00000001000000821062080000000001003C
:1008BE00802007E5A9FD49FD89F489F46AF4ACF4BA
:1008CE00CDF42FFD4FFD70FD50FD0FFDCDFC6CFCEA
:1008DE004AF448F4A8F429FDACFECBFECAFEC8FECD
:1008EE00C8FEC8FEC9FEA9FEE9FEE8FEE7FE0AFF45
:1008FE002FF7F8FFB4B50000000000000000000064
:10090E00000020000000010000008210A20800007C
:10091E00000002006030A2D345F346F388FBA9FB2A
:10092E00CAFB2CFC6EFCAFFCEFFCEFFCCFFCAFFC6B
:10093E006EFC0DFCCBFB8AFBA9FB0AFC46F448FDC2
:10094E0069FE09FF28F708F7E8FEC9FEC9FEA8FEF2
:10095E00A8FEEEFE35FFFDFF508C200000000000CB
:10096E002108000000002008000001000000821095
:10097E006110200000000000603824EAC5FA07FB71
:10098E0067FB88FBC9FB0AFC2BFC6CFC8CFC8DFC0A
:10099E00ACFC8CFC4BFC2BFC2BFC2BFC2BFC2BFC0F
:1009AE000CFC0BFC4AFCAAFC2AFDAAFD2AFE6AFEE0
:1009BE0068FE87FE68FE0FFF98FFFEFF8D6B20001E
:1009CE0000000000000000000000010000002000F8
:1009DE00000082106210200000000000603023EA48
:1009EE00A4FAE6FA26FB67FB88FBC9FB0AFC2BFC84
:1009FE004BFC6CFC6CFC4BFC2BFC2BFC2BFC4CFCCE
:100A0E006CFC6CFC6DFC4CFC2BFC2AF429F428ECE1
:100A1E0047EC26EC66F465F485ECACF557FFDDF794
:100A2E002C6B000800000000000000000000000019
:100A3E00000000000000821062180000000000009C
:100A4E00603023DA83FAA4FAC5FAE5FA26FB67FBCF
:100A5E00A8FBC9FB0AFC2BFC4BFC4BFC4CFC4CFCD6
:100A6E008DFCADFCCDFCCDFC8DFC8DFC6CFC4CFCF2
:100A7E000BFCEAFBC9FBA9FB69FB27FB05EBCCFCD6
:100A8E0017FF9CFF4D7B00180000000000000000C7
:100A9E00000000000000000000008210621800003C
:100AAE0000000000602802D262FA63FAA5FAE5FAA5
:100ABE0006FB47FB88FBC9FB0AFC2BFC2CFC4CFC01
:100ACE006CFC8DFCCEFCEEFC0EFD0EFDEEFCCEFCA9
:100ADE00ADFC8DFC4CFC2CFCEBFBCBFB4AFB28FB52
:100AEE00C5F20AFCB3FD3BFFD2AC000000000000D3
:100AFE000000000000000000000000000000821056
:100B0E0062100008000001004018C2B922FA02FA71
:100B1E0044FA64FA85FAC6FA27FB68FBA9FBEAFBDE
:100B2E000BFC2CFC6DFCAEFCCEFC0FFD0FFD30FD66
:100B3E002FFD0FFDEEFCADFC8CFC4BFC0AFCE9FB23
:100B4E0068FBC8FB04F3E5FA29F3D5FD37E6C100CF
:100B5E00000000000000000000000000000001087E
:100B6E000000821082080008000001002010409151
:100B7E00C2F9A2F982F9A2F9E3F944FA86FAE7FA80
:100B8E0028FB69FBABFBEBFB2CFC8EFCCFFCEFFCDC
:100B9E0010FD10FD50FD2FFD0FFDEEFCCDFCABFC4E
:100BAE008AFC6AFC08FCE7FB44F3C4FAC2E9ABFB1F
:100BBE0056FECB7B0000000020000000000000006D
:100BCE0000000000000082108208001000000200E9
:100BDE000000A07842F121F141F962F9C3F904FA5B
:100BEE0066FAC7FA08FB49FBABFBCBFB2DFC6EFC90
:100BFE00AEFCCFFCD0FCF0FC10FDF0FCEFFCCEFC0C
:100C0E00CDFC8CFC6BFC4AF40AFC87F346F325FB07
:100C1E0043FA44EA6DFC92FD2439000800000000FE
:100C2E00000020000000000000008210A20800104A
:100C3E00000002000000406002E901E901F942F9FA
:100C4E0083F9E4F946FAA7FA09FB29FBCBFBECFB87
:100C5E004DFC6EFC8FFCAFFCB0FCD0FCB0FCB0FCCD
:100C6E00AFFCAFFC8EFC6DFC2CFC0BFCABFB69FBF4
:100C7E0068FBE5F2C4FAC1E1E2D1CBFBF09B822026
:100C8E000000200000002000000020000000821064
:100C9E00A3080000000000000000202042A9E0F898
:100CAE0020E941F9A2F9C3F904FAA7FAE9FA0AFB15
:100CBE00CBFBECFB2DFC6EFCAFFCD0FCD0FCD0FCD7
:100CCE00B0FCB0FC8FFC6EFC2DFCECFB8BFB6AFBCE
:100CDE0048F307F3A5FA44FAE3F982E921D9E0C80B
:100CEE00C3E9A3A960400000210021000000000814
:100CFE0000008210A3080000000000000000001891
:100D0E00C18801E121E941F182F9C3F924FAA7FA78
:100D1E00E8FA09FBAAFBCBFB0CFC4EFC8EFCAFFCED
:100D2E00B0FCB0FCB0FC8FFC6FFC2DFCECFBABFB05
:100D3E0049FB09FBC7FA85FA24FAC3F982F942F195
:100D4E00E1E0C0D0C0B022B9E288603820100008BF
:100D5E000000000000008210821000000000000061
:100D6E0000000008606023C120E121F162F9A2F9C0
:100D7E0023FA85FAA6FAE7FA49FB8AFBCBFB0CFCB1
:100D8E002DFC4EFC6EFC6EFC8FFC6FFC4DFC0CFCC7
:100D9E00EBFB8AFB29FB08FB87FA45FAC3F962F9DC
:100DAE0042F921F1E1E0C1D0C0A8E1B002B1029157
:100DBE00A1502018000001000000821062100000F7
:100DCE0000000000210000000030249123D123E117
:100DDE0064F1A5F905FA66F287F2C8FA09FB29FB58
:100DEE008AFBABFBECFB0CFC0CFC0CFC2DFC0DFC99
:100DFE00ECFBCBFB8AFB48FB07FBC7FA86FA45FAEE
:100E0E00E3F982F941F121E101C9E1B801A9609844
:100E1E0040A0A198A15840100000010000008210CF
:100E2E008210000000000000210000000010E458B5
:100E3E0048A18AB98AD1EAE14BE26CDA8CDAEDEAA2
:100E4E00EDF22DF36DF3ADF3CDF3CDF3EDF3EDFB4D
:100E5E00ACFBABFB8AFB6AFB28FBE7FAA6FA65FA4A
:100E6E0044FA03FAC2F981F940E920D900C1E0B091
:100E7E00E09020902088816060200000000000003B
:100E8E000000821083180000000000000000010026
:100E9E00000062282979ABA1ACC1ECD12EDA6EDA52
:100EAE008FDAB0E2F0E231E371E391E3B1E3D0E344
:100EBE00D0E3D0EB8DFB6DFB4CF32BF3EAF2A8FAEB
:100ECE0067FA26F2C3F9A2F961F941F920E9E0D0F7
:100EDE00E0B0C0A0C080A178C36882382000200096
:100EEE0000000008000082106318000000000000DF
:100EFE000000200000002108A4586889AAB1ABC9DF
:100F0E000CDA0DDA4EDA4FE2B0DAF0DA31DB51DB21
:100F1E0071DB71DB72E372E370EB50EB4FE32EEBA0
:100F2E00EDEAACEA4BEA2AEAC7E9A6E965E944E14B
:100F3E0024C9E3B0E390C380A370C358E3404120BB
:100F4E000000200020000008000082104210000067
:100F5E00000020080000200020000000213046691B
:100F6E0068998AB1EBC9ECC90DD20EDA6DDA8DDA59
:100F7E00CEDAEFDA10DB10DB11E311E332D331D32B
:100F8E0011D3F0D2CFDA8EDA4DE22CE22CD2EBD1A5
:100F9E00AAC989C148A9288908690859C650E650C6
:100FAE00C438000800000008010001000000821093
:100FBE008210000000000000000000000000000091
:100FCE000100C440868966A189B9ECC9CCC92DDA65
:100FDE004ECA2ED22ED24EDA8EDAAEDACDDAEDD26D
:100FEE008DDA8EDA8EE26EE24DDA0CDAEBD9EBD9CF
:100FFE00EBC9CAB9CAB1689927812679A468C568B0
:10100E002659A44001180000000000000000000056
:10101E00000082108210000000000000000000009E
:10102E0000000000200021100751AA818991AAB169
:10103E00AAC98BD90AE20BE20BE2ECE1ECE1EDD9A5
:10104E00EED90FD22DDA0DDA0DD20DD20ED20ED27E
:10105E00EDC9CCC1ECC18BB16A990881E6682669ED
:10106E000559C450E5486228001000000000000039
:10107E00000000000000821082100000000000003E
:10108E000000000000000000000001008818CE41A2
:10109E00CF410F5A10721192CEB9CDC1EDC9ECD11C
:1010AE00EBD1CAD1AAD1AAD1ACC1ABC18BB9ABC15C
:1010BE00ABC1CBC1CBC1ABC169B9E7A00799078959
:1010CE00C5688458A350E458A330011000000000F6
:1010DE0020000000000000000000821082100000BE
:1010EE0000000000000000000000000000080008E2
:1010FE0003000A011212B71A77127722982A973A2A
:10110E00B74AB65A946A527A107ACF81CB896881DF
:10111E00E67806816791A8A188A968A1888948798F
:10112E000769C758E75048512751A53841100000AC
:10113E0000000000200000000000000000008210EF
:10114E0082100000000000000000000000000000FF
:10115E000000400800000100E900120A560A781249
:10116E00981298129912790A780A770A760A960ACC
:10117E00CF09CF11CF11AF198F199021D231133A58
:10118E00CE29CE29AE218E218D216B19E810450076
:10119E000000000000000000000000000000000041
:1011AE00000082108210000000000000000000000D
:1011BE00000000006000600000000000A208EA21AC
:1011CE00512AB211530A541255123512341A932A57
:1011DE00144B945BB584F68C178D957473537132E2
:1011EE00D121B219F311F309D209F211CF198B11D2
:1011FE00E608210000002000200000000000000092
:10120E0000000000000082108210000000000000AC
:10121E0000000000000000004000000000006531EA
:10122E0050843495536C6E3AD111D111111A722A21
:10123E00D13A7153F06B307C8E736D6B6C6BCE73D9
:10124E001174D16BD04AED296C116D196D19AD2148
:10125E00F052B59450846329000000000000000095
:10126E00000000000000000000008210821000004C
:10127E000000000000000000000000000000000060
:10128E0000008631359D97A5D394308CCF7BAF73FC
:10129E00B06BF1735284718C0F84AD7B8F6B8F6347
:1012AE00AE63ED6B2E744F7C307C1174CE638E5B0F
:1012BE00D063537CD58C97A5D28CA4292000000036
:1012CE00000000000000000000000000000082107E
:1012DE006108000000000000000000000000000097
:1012EE0000000000000000008208A631AA522C6304
:1012FE006D6B8E6B6D6B4D632C630C5B2C636D6B2A
:10130E008E6B8E6B6E6B6D6B4D632C632C632C63CF
:10131E008E6BAE736E6B0C636A4A652961080000B2
:10132E0000000000000000000000000000000000AF
:10133E000000610804218210821082108210821037
:10134E00821082108210821082108108610861085A
:10135E006108820882088208820861088208820871
:10136E006108820882088208820882088208620860
:10137E008208820882088208620862088210620867
:10138E0061088210821082108210821082108210E8
:10139E00821082108210E31800000000000000008E
:1013AE0000000000000000000000001010101010DF
:1013BE00101000001818000000123624480000001B
:1013CE000000000000000000000000242424FE485D
:1013DE004848FE4848480000000010385454503029
:1013EE00181414545438101000000044A4A8A8A8CF
:1013FE00541A2A2A2A440000000000304848485057
:10140E006EA494888976000000606020C000000001
:10141E000000000000000000000204080810101078
:10142E0010101008080402000040201010080808D0
:10143E000808081010204000000000001010D638D8
:10144E0038D6101000000000000000001010101020
:10145E00FE10101010000000000000000000000040
:10146E0000000000606020C00000000000000000CE
:10147E007F000000000000000000000000000000DF
:10148E000000000060600000000001020204040879
:10149E000810102020404000000000182442424254
:1014AE00424242422418000000000010701010103A
:1014BE0010101010107C00000000003C424242044C
:1014CE0004081020427E00000000003C4242041836
:1014DE000402024244380000000000040C142424CC
:1014EE0044447E04041E00000000007E404040582C
:1014FE0064020242443800000000001C24404058A0
:10150E0064424242241800000000007E4444080851
:10151E0010101010101000000000003C4242422437
:10152E0018244242423C000000000018244242426D
:10153E00261A0202243800000000000000001818CD
:10154E00000000001818000000000000000000104D
:10155E0000000000001010200000000204081020FF
:10156E004020100804020000000000000000FE00F1
:10157E000000FE00000000000000004020100804E3
:10158E0002040810204000000000003C42426202AB
:10159E00040808001818000000000038445AAAAACF
:1015AE00AAAAB442443800000000001010182828DF
:1015BE00243C444242E70000000000F844444478D2
:1015CE004442424244F800000000003E4242808005
:1015DE008080804244380000000000F844424242BD
:1015EE004242424244F80000000000FC4248487863
:1015FE004848404242FC0000000000FC4248487847
:10160E004848404040E000000000003C44448080D8
:10161E00808E844444380000000000E7424242427B
:10162E007E42424242E700000000007C1010101083
:10163E0010101010107C00000000003E0808080872
:10164E0008080808080888F0000000EE44485070AA
:10165E005048484444EE0000000000E04040404046
:10166E004040404042FE0000000000EE6C6C6C6C8E
:10167E005454545454D60000000000C762625252B3
:10168E004A4A4A4646E200000000003844828282FE
:10169E008282828244380000000000FC42424242B4
:1016AE007C40404040E000000000003844828282CE
:1016BE008282B2CA4C380600000000FC4242427CD4
:1016CE004848444442E300000000003E42424020AD
:1016DE0018040242427C0000000000FE921010101E
:1016EE001010101010380000000000E74242424275
:1016FE0042424242423C0000000000E74242442483
:10170E002428281810100000000000D69292929201
:10171E00AAAA6C4444440000000000E742242418A6
:10172E001818242442E70000000000EE4444282844
:10173E0010101010103800000000007E84040808FD
:10174E001020204242FC0000001E1010101010103D
:10175E001010101010101E0000004040202010101D
:10176E001008080404040202007808080808080893
:10177E000808080808087800001C22000000000075
:10178E00000000000000000000000000000000004B
:10179E0000000000000000FF00606020C00000009C
:1017AE000000000000000000000000000000003CEF
:1017BE00421E2242423F0000000000C040404058FE
:1017CE006442424264580000000000000000001C09
:1017DE0022404040221C0000000000060202021EB1
:1017EE0022424242261B0000000000000000003C86
:1017FE00427E4040423C00000000000F1110107E5F
:10180E0010101010107C0000000000000000003EC0
:10181E00444438403C42423C000000C04040405CE2
:10182E006242424242E70000000000303000007089
:10183E0010101010107C00000000000C0C00001C9A
:10184E000404040404044478000000C04040404EE8
:10185E004850684844EE0000000000701010101050
:10186E0010101010107C000000000000000000FEA0
:10187E004949494949ED000000000000000000DC24
:10188E006242424242E70000000000000000003CBD
:10189E0042424242423C000000000000000000D8DC
:1018AE0064424242447840E0000000000000001E06
:1018BE0022424242221E020700000000000000EEFB
:1018CE003220202020F80000000000000000003E22
:1018DE0042403C02427C0000000000000010107CE0
:1018EE0010101010100C000000000000000000C6C8
:1018FE0042424242463B000000000000000000E76A
:10190E00422424281010000000000000000000D720
:10191E009292AAAA44440000000000000000006E4B
:10192E00241818182476000000000000000000E7BC
:10193E0042242428181010E0000000000000007E51
:10194E0044081010227E000000030404040404085E
:10195E00040404040404030008080808080808081E
:10196E000808080808080808006010101010100871
:10197E001010101010106000304C430000000000DA
:10198E00000000000000000000024D6959496F5927
:10199E00C98999E989090C000204050932E25454F7
:1019AE004858644402030200000000007E54545460
:1019BE005454547E0000000000FEA4A4A4A4FE0013
:1019CE0000FEA4A4A4A4FE0000001F12121212FF17
:1019DE00121212121F0000000000F020202020FC26
:1019EE0022222222F2020E000000404040404047D8
:1019FE00485060400001000080808080808281FE1F
:101A0E008080808080808000000000000000001C2C
:101A1E002C40001C2C4000000000000000000000C4
:101A2E000000000000000000040408091525558D73
:101A3E0045271511080C0800000001F90204087072
:101A4E00080406FB00000000003F20203F041AF2AD
:101A5E00521212131010100000F04040E0000C1251
:101A6E002242820202020E00000F08FF080F041825
:101A7E00179070501518100004C484F888DC080004
:101A8E00FC428282021C000000000000000004687C
:101A9E0070000468700000000000000000000000EC
:101AAE00000000000000000008866106109F7213FF
:101ABE001408F41516141000203FC0021CE201FE9B
:101ACE00004241FE4040400000282422232C3004D6
:101ADE0004FF0444340504000008106080C4340878
:081AEE000810E05884020F000B
:08302700900025EEF0A3EFF08C
:10302F00900049E4F0A374DCF07BB0E4FDFCFF12E8
:10303F003154E4900027F0A3F0E4900029F0A3F0BE
:10304F00900025E0FEA3E0FF12339390002AE004E6
:10305F00F07006900029E004F0C390002AE094B0CD
:10306F00900029E0940040D8900028E004F070060A
:10307F00900027E004F0C3900028E094DC90002734
:05308F00E0940040B4D4
:013094002219
:0532C900E0FAA3E0FBA8
:1032CE00900043EAF0A3EBF01232E4900043E0FEEC
:0632DE00A3E0FF023393A0
:0E2CDE009000A7EFF0A3ECF0A3EDF0A3EBF055
:102CEC00E49000AFF09000AFE0FFC3940840030203
:102CFC002D8B74807E00A807088006CEA2E713CE29
:102D0C0013D8F8FF9000AAE0FD7C00EF5DB5073109
:102D1C00ECB5062D9000A7E0FFA3E0FCA3E0FD902E
:102D2C0000ABE0FBA3E0900096CBF0A3EBF090009F
:102D3C00ADE0FBA3E0900098CBF0A3EBF07B01801F
:102D4C002B9000A7E0FFA3E0FCA3E0FD9000ABE01C
:102D5C00FBA3E0900096CBF0A3EBF09000ADE0FB72
:102D6C00A3E0900098CBF0A3EBF0E4FB12286B905F
:0F2D7C0000A7E02408F09000AFE004F0022CF173
:012D8B002225
:102FB8009000B3EBF09000B0EFF0A3ECF0A3EDF0CD
:102FC800C007A3E0C4540FFBA3E0FFA3E090009662
:102FD800CFF0A3EFF09000B6E0FFA3E0900098CF09
:102FE800F0A3EFF0D00712286B9000B0E02408F0AF
:102FF800A3E0FCA3E0FDA3E0540FFBA3E0FFA3E0E4
:10300800900096CFF0A3EFF09000B6E0FFA3E09019
:0F3018000098CFF0A3EFF09000B0E0FF02286B1C
:102C2C009000B9EFF0A3ECF0A3EDF0A3EBF0C0072C
:102C3C0075F064842430FBA3E0FFA3E0900016CF72
:102C4C00F0A3EFF09000BFE0FFA3E0900018CFF0EE
:102C5C00A3EFF0D00712263C9000B9E02408FFC087
:102C6C0007A3E0FCA3E0FDA3E075F00A8475F00A6D
:102C7C0084E5F02430FBA3E0FFA3E0900016CFF036
:102C8C00A3EFF09000BFE0FFA3E0900018CFF0A3FB
:102C9C00EFF0D00712263C9000B9E02410FFC007DB
:102CAC00A3E0FCA3E0FDA3E075F00A84E5F024307A
:102CBC00FBA3E0FFA3E0900016CFF0A3EFF0900091
:102CCC00BFE0FFA3E0900018CFF0A3EFF0D0070215
:022CDC00263C94
:0E286B00900092EFF0A3ECF0A3EDF0A3EBF0E1
:10287900E490009AF0A3F0A3F0EBD39409400790F9
:102889000095E02407F0900095E02410F0E4900012
:102899009BF090009BE0FFC39410400302298AEF4C
:1028A900FD7C00900094E02DFF900093E03CFEC376
:1028B900EF94DCEE94004003022981900095E07EBC
:1028C90000C4F8540FC868FFEEC454F048FEEF2D59
:1028D900FFEC3EFE74A62FF58274133EF583E49354
:1028E90090009CF0E490009AF090009AE0FFC39465
:1028F900084003022981900092E0FD2FFFE433FE96
:10290900C3EF94B0EE64809480506490009AE0FC28
:1029190074807E00A804088006CEA2E713CE13D8DF
:10292900F8FF90009CE0FB7A00EF5BB5071EEAB563
:10293900061AED2CFF90009BE0FD900094E02DFD20
:10294900900093E03400FC900096802090009AE07B
:10295900FF900092E02FFF90009BE0FD900094E033
:102969002DFD900093E03400FC9000981232C9903C
:10297900009AE004F00228F290009BE004F002289B
:012989009BB2
:01298A00222A
:10322700AE079000DDECF0A3EDF0A3EBF0C0072FA5
:1032370014FB9000DDE0FFA3E0900049CFF0A3EF7F
:10324700F0D0071231549000E0E0FEA3E0FF123304
:0B325700939000DFE014F0E070EC2228
:1030FC009000CCEAF0A3EBF09000CAECF0A3EDF05A
:10310C00C007AB07A3E0FEA3E0FF9000CAE0F8A362
:10311C00E02FFFE83ECF24FFCF34FF900049F0A30F
:10312C00EFF0D0071231549000CEE0FEA3E0FF1276
:10313C0033939000CDE024FFF09000CCE034FFF00E
:08314C00E07002A3E070E02234
:0E22B500900025EEF0A3EFF0A3ECF0A3EDF007
:1022C300E4900031F0A3F0A3F0A3F0900025E0FE2A
:1022D300A3E0FFC3EB9FFFEA9E900035F0A3EFF06E
:1022E300900027E0FAA3E0FBC390002CE09BFE9054
:1022F300002BE09A900037F0A3CEF0900025E0FF8A
:10230300A3E0900041CFF0A3EFF090003FEAF0A3E9
:10231300EBF0900035E0FEA3E0FFD39400EE648081
:102323009480400A90003BE4F0A304F08021EF4E38
:10233300700890003BF0A3F0801574FF90003BF011
:10234300A3F0C3E49FFFE49E900035F0A3EFF09069
:102353000037E0FEA3E0FFD39400EE648094804056
:102363000A90003DE4F0A304F08021EF4E70089042
:10237300003DF0A3F0801574FF90003DF0A3F0C37F
:10238300E49FFFE49E900037F0A3EFF0900037E066
:10239300FEA3E0FF900035E0FCA3E0FDD39FEE64D5
:1023A30080F8EC6480989000394007ECF0A3EDF0DE
:1023B3008005EEF0A3EFF0E490002FF0A3F090007F
:1023C3003AE02401FF900039E03400FED39000305E
:1023D300E09F90002FE09E40030224A4900041A3BD
:1023E300E0FF90003FE0FCA3E0FD90002D1232C916
:1023F300900035E0FEA3E0FF900032E02FF0900064
:1024030031E03EF0900037E0FEA3E0FF900034E0BF
:102413002FF0900033E03EF0900039E0FEA3E0FFA0
:10242300900031E0FCA3E0FDD39FEE6480F8EC6400
:1024330080984020ED9FFFEC9E900031F0A3EFF0D9
:1024430090003BE0FEA3E0FF900042E02FF09000FD
:1024530041E03EF0900039E0FEA3E0FF900033E05E
:10246300FCA3E0FDD39FEE6480F8EC6480984020E9
:10247300ED9FFFEC9E900033F0A3EFF090003DE062
:10248300FEA3E0FF900040E02FF090003FE03EF01D
:10249300900030E004F0700690002FE004F0022377
:0124A300C177
:0124A4002215
:0C2B6400900087ECF0A3EDF0A3EBF0F97B
:102B7000E490008CF0A3F0A3F0A3F0A3F0A3F0C0C6
:102B800007EF2914FB90008AE0FEA3E0FF90008786
:102B9000E0F8A3E02FFFE83ECF24FFCF34FF900002
:102BA00049F0A3EFF0D007123154900089E0FF7E86
:102BB00000A3E0FCA3E0FD121C7DEF25E0FFEE3357
:102BC000900090F0A3EFF090008EE0FCA3E0FD24D5
:102BD0001FF58274003CF583E493FF90008CE4F0D1
:102BE000A3EFF0E07F00FE90008CF0A3EFF0741EE6
:102BF0002DF58274003CF583E493FDEDFF90008C8D
:102C0000EEF0A3EFF012339390008FE02402F090E7
:102C1000008EE03400F0900090E0FEA3E0FFC3904F
:0B2C2000008FE09F90008EE09E409C23
:012C2B002286
:10260F0090004BE024F9FFA3E0FCA3E0FD90005401
:10261F00E0FBA3E0900016CBF0A3EBF0900056E0A8
:0D262F00FBA3E0900018CBF0A3EBF07B2E96
:0E263C00900012EFF0A3ECF0A3EDF0A3EBF092
:10264A00E024E0F0E490001BF090001BE0FFC3944C
:10265A00104003022742EFFD7C00900014E02DFF9A
:10266A00900013E03CFEC3EF94DCEE9400400302BA
:10267A002739900015E07E00C4F8540FC868FFEEB1
:10268A00C454F048FEEF2DFFEC3EFE74A62FF582EF
:10269A0074133EF583E49390001CF0E490001AF062
:1026AA0090001AE0FFC394084003022739900012F1
:1026BA00E0FD2FFFE433FEC3EF94B0EE6480948014
:1026CA00506490001AE0FC74807E00A8040880061A
:1026DA00CEA2E713CE13D8F8FF90001CE0FB7A00D5
:1026EA00EF5BB5071EEAB5061AED2CFF90001BE05A
:1026FA00FD900014E02DFD900013E03400FC9000E2
:10270A0016802090001AE0FF900012E02FFF900040
:10271A001BE0FD900014E02DFD900013E03400FC56
:10272A009000181232C990001AE004F00226AA900A
:08273A00001BE004F00226532D
:012742002274
:10309500900009EFF0A3ECF0A3EDF0A3EAF0A3EBA9
:1030A500F090000CE0FEA3E0F5828E83E493FB60D4
:1030B5004590000AE0FCA3E0FD90000EE0FFA3E0D0
:1030C500900016CFF0A3EFF0900010E0FFA3E09082
:1030D5000018CFF0A3EFF0900009E0FF12263C9016
:1030E5000009E02408F090000DE004F070B39000B2
:0730F5000CE004F080AB22A7
:101DED00900077EFF0A3ECF0A3EDF0A3EAF0A3EBF6
:011DFD00F0F5
:101DFE00E490007EF0A3F0A3F0900084F0A3740BA7
:101E0E00F0E4900081F0900081E0FFD3900085E037
:101E1E009F900084E094005003022076E490007EB0
:101E2E00F090007EE0FFC394104003021F4190002B
:101E3E0077E0FDEFFB7A002DFFEA33FEC3EF94B09F
:101E4E00EE648094804003021F38900081E0FFA36F
:101E5E00E4F0A3EFF0900082E0FEA3E07805C33338
:101E6E00CE33CED8F92BFFEE3A900082F0A3EFF0EE
:101E7E00900082E0FEA3E02496F58274193EF5836D
:101E8E00E493900080F0E490007FF090007FE0FFFC
:101E9E00C394084003021F38900079E02FFF900092
:101EAE0078E03400FEC3EF94DCEE940050739000A3
:101EBE007FE0FD74807E00A805088006CEA2E713A1
:101ECE00CE13D8F8FF900080E0FBEF5B6F7001EE51
:101EDE0090007E7023E0FF900077E02FFF9000814E
:101EEE00E0C454F02FFF900079E02DFD900078E0D3
:101EFE003400FC90007A8026E0FF900077E02FFF00
:101F0E00900081E0C454F02FFF90007FE0FD900020
:101F1E0079E02DFD900078E03400FC90007C1232C8
:101F2E00C990007FE004F0021E9990007EE004F05C
:101F3E00021E2FE490007EF090007EE0FFC394100E
:101F4E00400302206D900077E0FDEFFB7A002DFF3D
:101F5E00EA33FEC3EF94B0EE648094804003022017
:101F6E0064900081E0FFA3E4F0A3EFF0900082E024
:101F7E00FEA3E07805C333CE33CED8F92BFFEE3A6D
:101F8E00CF2410CF3400900082F0A3EFF0900082A7
:101F9E00E0FEA3E02496F58274193EF583E4939057
:101FAE000080F0E490007FF090007FE0FFC3940883
:101FBE004003022064900079E02FFF900078E03417
:101FCE0000FEC3EF94DCEE9400400302205B900011
:101FDE007FE0FD74807E00A805088006CEA2E71380
:101FEE00CE13D8F8FF900080E0FBEF5B6F7001EE30
:101FFE0090007E7029E0FF900077E02FFF90008127
:10200E00E0C454F02FFF900079E02DFD900078E0B1
:10201E003400CD2408CD3400FC90007A802CE0FFF3
:10202E00900077E02FFF900081E0C454F02FFF90D6
:10203E00007FE0FD900079E02DFD900078E0340007
:10204E00CD2408CD3400FC90007C1232C990007F64
:10205E00E004F0021FB690007EE004F0021F4690EE
:08206E000081E004F0021E14E1
:012076002247
:0E2EBB0090009DEFF0A3ECF0A3EDF0A3EBF080
:102EC900C007A3E0FFA3E0900049CFF0A3EFF0D043
:102ED9000712315490009DE0FF9000A0E0C39F04C9
:102EE90090009DF0A3E0FEA3E0FFC39000A2E09F45
:102EF900FF9000A1E09ECF2401CF340090009EF006
:102F0900A3EFF090009DE0FF14F0EF6028A3E0FF2D
:102F1900A3E09000A5CFF0A3EFF09000A574FFF512
:102F2900F0121C8F45F060DB9000A3E0FEA3E0FFE8
:052F390012339380E556
:012F3E002270
:102A88009000C1EFF0A3ECF0A3EDF0A3EBF07E0013
:102A9800C0077A009000C2E0FFA3E090002BCFF0BF
:102AA800A3EFF09000C7E0FFA3E090002DCFF0A3C4
:102AB800EFF0D0071222B59000C1E0FB7A00FF7E4C
:102AC80000C007A3E0FCA3E0FD9000C5E0FFA3E081
:102AD80090002BCFF0A3EFF09000C7E0FFA3E090A9
:102AE800002DCFF0A3EFF0D0071222B59000C4E07C
:102AF800FB7A00FF7E00C0079000C2E0FCA3E0FD67
:102B08009000C5E0FFA3E090002BCFF0A3EFF0907A
:102B180000C7E0FFA3E090002DCFF0A3EFF0D007AF
:102B28001222B59000C1E0FF7E00C0079000C5E00A
:102B3800FCA3E0FD9000C4E0FB7A00A3E0FFA3E063
:102B480090002BCFF0A3EFF09000C7E0FFA3E09038
:0C2B5800002DCFF0A3EFF0D0070222B553
:0B298B00900067EFF0A3ECF0A3EDF06C
:10299600E4900076F0E4FFFEFDFC90006AE0F8A308
:1029A600E0F9A3E0FAA3E0FBC3121DD07003022AEC
:1029B60041E47B0AFAF9F890006AE0FCA3E0FDA383
:1029C600E0FEA3E0FF121D30900072121DE19000A0
:1029D60067E024F9FFC007E47F0AFEFDFC90007261
:1029E600E0F8A3E0F9A3E0FAA3E0FB121CA5AB070D
:1029F60090006AA3A3A3E0C39B2430FBA3E0FFA33C
:102A0600E0900016CFF0A3EFF0900070E0FFA3E097
:102A1600900018CFF0A3EFF0900068E0FCA3E0FD73
:102A2600D00712263C900072E0FCA3E0FDA3E0FE76
:102A3600A3E0FF90006A121DE18030900067E02459
:102A4600F9FFA3E0FCA3E0FD90006EE0FBA3E0909D
:102A56000016CBF0A3EBF0900070E0FBA3E0900033
:102A660018CBF0A3EBF07B2012263C900067E02405
:102A7600F8F0900076E004F0E0C3940A50030229CF
:012A86009BB4
:012A8700222C
:0B20770090004BEFF0A3ECF0A3EDF0A5
:10208200E4900066F0900052E0FF900066E0C39F8B
:102092004003022148E4FFFEFDFC90004EE0F8A35D
:1020A200E0F9A3E0FAA3E0FBC3121DD06067E47B72
:1020B2000AFAF9F890004EE0FCA3E0FDA3E0FEA3CB
:1020C200E0FF121D30900062121DE1E47F0AFEFD66
:1020D200FC900062E0F8A3E0F9A3E0FAA3E0FB12AF
:1020E2001CA5AB0790004EA3A3A3E0C39B2430FF23
:1020F200900066E02458F582E43400F583EFF09016
:102102000062E0FCA3E0FDA3E0FEA3E0FF90004E2E
:10211200121DE18028900053E0FF900066E0FEC3AC
:102122009F7458400D2EF582E43400F5837420F03C
:10213200800B2EF582E43400F5837430F090006653
:10214200E004F0022087E4900066F0FFFEFDFC90C0
:10215200004EE0F8A3E0F9A3E0FAA3E0FBC3121DEE
:10216200D06066900052E0FF900066E0C39F40039B
:102172000222B490004BE024F9FFA3E0FCA3E0FDAF
:10218200900054E0FBA3E0900016CBF0A3EBF0909C
:102192000056E0FBA3E0900018CBF0A3EBF07B2D00
:1021A20012263C900066E004F090004BE024F8F028
:1021B200900053E0FF900066E0B507A712260F904B
:1021C200004BE024F8F0022165900052E0FF9000FD
:1021D20066E0FEC39F40030222B4900053E0FF2456
:1021E20058F582E43400F583E0B420047D018002D6
:1021F2007D00EEB507047F0180027F00EF5D60374E
:1022020012260F90004BE024F8F0E024F9FFA3E03F
:10221200FCA3E0FD900054E0FBA3E0900016CBF09D
:10222200A3EBF0900056E0FBA3E0900018CBF0A3E4
:10223200EBF07B300222A1900053E0FF900066E0B9
:10224200FEB507047F0180027F00EE60047E0180FC
:10225200027E00EE5F600A12260F90004BE024F827
:10226200F090004BE024F9FFC007A3E0FCA3E0FDDF
:10227200900066E02458F582E43400F583E0FB9098
:102282000054E0FFA3E0900016CFF0A3EFF090001F
:1022920056E0FFA3E0900018CFF0A3EFF0D00712B2
:1022A200263C90004BE024F8F0900066E004F00237
:0222B20021CB3E
:0122B4002207
:10326200AA07ED54FC75F008A4FDEA54F845F0FCF9
:10327200EB54F87E007803CEC313CE13D8F9FFEED9
:063282004CFEEF4DFF229F
:10274300D2B37FF47E01EF1F70011EEF4E70F7C20C
:10275300B37E017FF4EF1F70011EEF4E70F7D2B30B
:102763007E137F88EF1F70011EEF4E70F7C2A77DA7
:10277300017C00E4FF1232AFE4FDFC7F071232AFAD
:10278300E4FDFC7F121232AF7FA41232AB7E137FC3
:1027930088EF1F70011EEF4E70F77408FDFCFF12E7
:1027A30032AF7D017C007F181232AF7DB07C117F88
:1027B300101232AFE4FDFC7F111232AF7D157C1194
:1027C3007F121232AF7D0B7C8B7F131232AF7D35BC
:1027D3007C117F121232AF7D007C807F141232AFE6
:1027E3007D007C017F011232AF7D007C077F0212E6
:1027F30032AF7D307C107F031232AF7D007C1B7FB4
:10280300701232AF7D017C007F711232AF7D027C8A
:10281300007F901232AFE4FDFC7F911232AF7D0155
:102823007C007F921232AF7F071232AB7E137F8818
:10283300EF1F70011EEF4E70F77D217C007F0712A2
:1028430032AF7E137F88EF1F70011EEF4E70F77D4E
:10285300357C117F121232AF7D337C027F07123237
:08286300AF7D22E4FF023314F3
:10331400C2A7C2A68F90C2A5D2A5AF058F80C2A5B1
:05332400D2A5D2A72292
:10332900C2A7D2A68F90C2A5D2A5AF058F80C2A58C
:05333900D2A5D2A7227D
:04339300AD07AC06D0
:07339700ECFFAE0502332933
:0432AB007D017C0025
:0232AF00AB076B
:1032B100ECFEAF05AC07AF03AD07E4FF123314AF6B
:0832C10006AE04AD060233293C
:10315400900046ECF0A3EDF0AA07A903EAFD7C0079
:103164007F501232AFE9FD7C007F511232AF9000E4
:1031740046E0FCA3E0FD7F521232AF900049E0FC30
:10318400A3E0FD7F531232AFEAFD7C007F201232B0
:10319400AF900046E0FCA3E0FD7F211232AF7D2218
:0531A400E4FF023314FA
:1032E4008D828C83C007AB07AE83AF82900049EE1A
:0932F400F0A3EFF0D00702315401
:101AF600EC4D6011E8497017ED33EC3304600DE4EA
:101B0600FCFFFEFD22E933E8330470F8021C68127C
:101B16001C3358046009E4CC24815006285009027D
:101B26001C72284003021C6FC0E0EB4A7044B98067
:101B360006D0E0FB021C5EEF4E701CBD8008EBFF7A
:101B4600EAFEE9FD80EBE98DF0A4FEE5F0021BDF7D
:101B5600E9CDF9EAFEEBFFEF89F0A4FCE5F0CE89CA
:101B6600F0A42EFFE435F0CD89F0A42DFEE435F087
:101B76008067EF4E7005BD80D780C3EF8BF0A4ACB5
:101B8600F0EE8BF0A42CFCE435F0F8EF8AF0A42CF0
:101B9600E5F038FCE433CB8DF0A42CFCE5F03BF803
:101BA600EE8AF0A42CFCE5F038F8E433CF89F0A4F3
:101BB6002CFCE5F038CF3400CE89F0A42FFFE5F0F9
:101BC6003EFEE433C98DF0A42EFEE5F039CD8AF051
:101BD600A42FFFE5F03EFEE43DFD33D0E0FB5007C9
:101BE6000BBB000F021C72EC2CFCEF33FFEE33FE36
:061BF600ED33FD021C4A64
:101BFC00EDD2E7CD33EC3392D524814006E4FFFEE1
:101C0C00FDFC22FCE4CFCECDCC24E0501174FF803F
:101C1C00EDC3CC13CCCD13CDCE13CECF13CF0470DC
:071C2C00F030D5DE021DC2FD
:101C3300E9D2E7C933E833F892D5EDD2E7CD33ECF7
:071C430033FC5002B2D52270
:101C4A00EC30E7100FBF000C0EBE00080DBD0004FB
:101C5A000BEB6014A2D5EB13FCED92E7FD2274FFA7
:101C6A00FCFDFEFF22E480F8A2D574FF13FC7D8000
:031C7A00E480EF14
:03000000022E2F9E
:0C2E2F00787FE4F6D8FD758107022E764E
:101C7D00EF8DF0A4A8F0CF8CF0A428CE8DF0A42E7B
:021C8D00FE2235
:101C8F00A3F8E0C5F025F0F0E58215827002158308
:061C9F00E0C838F0E82265
:101CA500E88FF0A4CC8BF0A42CFCE98EF0A42CFCDE
:101CB5008AF0EDA42CFCEA8EF0A4CDA8F08BF0A45C
:101CC5002DCC3825F0FDE98FF0A42CCD35F0FCEBBB
:101CD5008EF0A4FEA9F0EB8FF0A4CFC5F02ECD3980
:0F1CE500FEE43CFCEAA42DCE35F0FDE43CFC22ED
:101CF40075F008758200EF2FFFEE33FECD33CDCCA7
:101D040033CCC58233C5829BED9AEC99E582984029
:101D14000CF582EE9BFEED9AFDEC99FC0FD5F0D606
:101D2400E4CEFBE4CDFAE4CCF9A88222B800C1B930
:101D34000059BA002DEC8BF084CFCECDFCE5F0CB6E
:101D4400F97818EF2FFFEE33FEED33FDEC33FCEBA7
:101D540033FB10D703994004EB99FB0FD8E5E4F962
:101D6400FA227818EF2FFFEE33FEED33FDEC33FC4F
:101D7400C933C910D7059BE99A4007EC9BFCE99A43
:101D8400F90FD8E0E4C9FAE4CCFB2275F010EF2F88
:101D9400FFEE33FEED33FDCC33CCC833C810D70788
:101DA4009BEC9AE899400AED9BFDEC9AFCE899F8C3
:0E1DB4000FD5F0DAE4CDFBE4CCFAE4C8F92256
:0E1DC200C3E49FFFE49EFEE49DFDE49CFC2232
:101DD000EB9FF5F0EA9E42F0E99D42F0E89C45F069
:011DE00022E0
:0C1DE100ECF0A3EDF0A3EEF0A3EFF02275
:102E3B00022F3FE493A3F8E493A34003F68001F23F
:102E4B0008DFF48029E493A3F85407240CC8C33398
:102E5B00C4540F4420C8834004F456800146F6DF67
:102E6B00E4800B010204081020408090333EE47E86
:102E7B00019360BCA3FF543F30E509541FFEE4935C
:102E8B00A360010ECF54C025E060A840B8E493A323
:102E9B00FAE493A3F8E493A3C8C582C8CAC583CA4E
:102EAB00F0A3C8C582C8CAC583CADFE9DEE780BE06
:01334F00007D
:00000001FF
